:020000040800F2
:20000000280C0020C10100086502000833020008610200082D020008310300080000000038
:200020000000000000000000000000009302000831020008000000009102000895020008AE
:20004000DB010008DB010008DB010008DB010008DB010008DB010008DB010008DB01000880
:20006000DB010008DB010008DB010008DB010008DB010008DB010008DB010008DB01000860
:20008000DB010008DB010008DB010008DB010008DB010008DB010008DB010008DB01000840
:2000A000DB010008DB010008DB010008DB010008DB010008DB010008DB010008DB01000820
:2000C000DB010008DB010008DB010008DB010008DB01000815030008DB010008DB010008C4
:2000E000DB010008DB010008DB010008DB010008DB010008DB010008DB010008DB010008E0
:20010000DB010008DB010008DB010008DB010008DB010008DB010008DB010008DB010008BF
:20012000DB010008DB010008DB010008DB010008DB010008DB010008DB010008DB0100089F
:20014000DB010008DB010008DB010008DB010008DB010008DB010008DB010008DB0100087F
:20016000DB010008DB010008DB010008DB010008DB010008DB010008DB0100080000000043
:20018000DB010008DB010008DB010008DB010008DB010008DB010008DB0100080000000023
:2001A000DB010008DB010008DB010008DFF80CD000F02AF800480047A9090008280C002031
:2001C0000648804706480047FEE7FEE7FEE7FEE7FEE7FEE7FEE7FEE7FEE7FEE79D020008DC
:2001E000AD010008D2B201E000F8012B491EFBD270470022F6E710B513460A4604461946BF
:20020000FFF7F0FF204610BD064C074D06E0E06840F0010394E8070098471034AC42F6D361
:20022000FFF7C8FF440D0008640D000800BFFEE7704700BFFEE72DE9F04104460D461646F0
:200240000027B846274604EB860805E02046296800F0C2FA241D2D1D4445F7D3BDE8F08113
:2002600000BFFEE77047000010B5002807DA0A07140E054A00F00F031B1FD45403E00A077B
:20028000130E024A135410BD18ED00E000E400E07047704710B500F0E5F810BD10B5194821
:2002A000006840F47000174908601748006840F001001549086014490831096841F08001F3
:2002C000114A08321160002000E0401C1428FCD300200D49083108600B4800680B49084043
:2002E000094908600A48091D0860081F006820F48020091F0860002003490C31086000F090
:20030000D7FC10BD88ED00E000380240FFFFF6FE1030002410B540F20531044800F003FDAF
:2003200018B10521014800F0EFFC10BD0010014000BFFEE702E008C8121F08C1002AFAD147
:2003400070477047002001E001C1121F002AFBD1704710B500F0C0F910BD10B5FF2000F07F
:2003600001F810BD10B5044600BF02210A4800F000FC0028F9D02146074800F0F8FB00BF3F
:200380000121054800F0F5FB0028F9D0024800F0EAFBC0B210BD00000030014000B587B062
:2003A00040F6014000F0C2FB40F6014000F0BEFB40F6014000F0BAFB40F6064000F0B6FBC0
:2003C00040F6064000F0B2FB41F20C1000F0AEFB44F238020521204800F024FA44F238039F
:2003E000002202211C4800F050FA44F2380301220021194800F070FA4FF4005300220121D0
:20040000164800F042FA4FF4005302220021134800F062FA4FF40051104800F034FA0020A6
:2004200001904FF4827000900020029005904FF40070039020200690002004906946084850
:2004400000F09FFB0721064800F082FB044800F085FB07B000BD000000040240001802405F
:20046000003001400448006820B103480068401E01490860704700001C0000202DE9F04189
:2004800006460C46174600254FF40051144800F0F8F90320FFF766FF124800884EF618713E
:2004A000884202D1200EFFF75DFFC4F30740FFF759FFC4F30720FFF755FFE0B2FFF752FFD2
:2004C000002504E0FFF749FF7055681C85B2BD42F8DB4FF40051024800F0D5F9BDE8F081D1
:2004E000001802402000002010B500244FF40051094800F0C6F90520FFF734FF00BFFFF7E2
:200500002CFF044604F001000028F8D14FF40051014800F0B8F910BD001802402DE9F05F76
:2005200007460E4614464FF00008C146C2460025AB4606F0FF0ACAF10000C5B22046E117C5
:2005400004EB1161C1F30728E11704EB11610912A4EB012101F0FF09BAF1000F20D1B8F1E5
:20056000000F05D122463146384600F07BF864E009E04FF480723146384600F073F806F529
:20058000807607F58077B8F10000A8F1010101F0FF08EED14A463146384600F063F84CE07B
:2005A000B8F1000F18D1A94510DDA9EB050000F0FF0B2A463146384600F054F82E442F44A6
:2005C0005A463146384600F04DF836E022463146384600F047F830E0601B84B22046E11790
:2005E00004EB1161C1F30728E11704EB11610912A4EB012101F0FF092A463146384600F044
:2006000031F82E442F4409E04FF480723146384600F028F806F5807607F58077B8F100001C
:20062000A8F1010101F0FF08EED1B9F1000F04D04A463146384600F015F8BDE8F09F000025
:2006400010B54FF40051064800F01BF90620FFF789FE4FF40051024800F015F910BD0000A3
:20066000001802402DE9F04106460C4617460025FFF7E6FF4FF40051154800F002F90220E0
:20068000FFF770FE134800884EF61871884202D1200EFFF767FEC4F30740FFF763FEC4F314
:2006A0000720FFF75FFEE0B2FFF75CFE002504E0705DFFF757FE681C85B2BD42F8DB4FF4ED
:2006C0000051034800F0DFF8FFF70EFFBDE8F081001802402000002010B5FFF75FFE10BD1F
:2006E0000348006840F000400149086070470000103C024000B5012200BF00F031F80246E8
:20070000012AFAD0104600BD10B503460024FFF7F1FF0446FCB91148006820F0F8000F4999
:2007200008600846006843F0020108430B4908600846006840F480300860FFF7DBFF044642
:200740000648006820F00200044908600846006820F0F8000860204610BD0000103C024035
:2007600000201349096801F48031B1F5803F01D101201CE00E49096801F0100109B10520E9
:2007800015E00B49096801F4807109B102200EE00749096801F0EF0109B1072007E0044938
:2007A000096801F0020109B1062000E0002070470C3C02400548006800F0004028B10448A9
:2007C00002490C390860034808607047103C024023016745AB89EFCD30B503460C460025C4
:2007E000FFF788FF0546CDB90D48006820F440700B4908600846006840F40070086008465E
:20080000006840F0010008601C60FFF773FF05460348006820F0010001490860284630BDD7
:20082000103C0240F0B503461C6A5D6A00200DE00126864016403EB187000F26BE40B443FF
:20084000860001FA06F63443461CB0B20828EFD3082011E00126864016405EB1A0F10806E4
:20086000B7000F26BE40B543A0F10806B60001FA06F63543461CB0B21028EBD31C625D62DB
:20088000F0BD8162704781617047F0B504460D4616462168E268002019E0012787401F40A0
:2008A0009FB14FEA400C032707FA0CF7B943470005FA07F739434FEA400C032707FA0CF7C6
:2008C000BA43470006FA07F73A43471CB8B21028E3D32160E260F0BDF0B50C461546012CAF
:2008E00003D146681E43466002E046689E434660826800210DE001268E401E403EB14F00CF
:200900000326BE40B2434E0005FA06F632434E1CB1B21029EFD38260F0BD000010B5044697
:2009200072B6606804490860206880F3088800BF08460068804710BD180000202DE9F05FE1
:200940000746884691460025BB464446AA461FE0E0780606A07846EA0046607846EA0026E6
:2009600020780643241D2846691C8DB20D4941F82060B5F5007F07D100254FF4007258469B
:20098000FFF759FC0BF5006B0AF104001FFA80FACA45DDD325B12A4602495846FFF74BFCE4
:2009A000BDE8F09F28000020B2B0C8216846FFF720FC002400F080F9FFF7CBFC0822110328
:2009C0005648FFF75BFD5548007801287ED1FFF7F1FE0820FFF798FE1020FFF795FE182014
:2009E000FFF792FE2020FFF78FFE2820FFF78CFE3020FFF789FE3820FFF786FE4020FFF7F1
:200A000083FE4820FFF780FE5020FFF77DFE5820FFF77AFE8020FFF777FE8820FFF774FE97
:200A20009020FFF771FE9820FFF76EFEA020FFF76BFEA820FFF768FEB020FFF765FEB82043
:200A4000FFF762FEC020FFF75FFEC820FFF75CFED020FFF759FE31484068C821B0FBF1F002
:200A60002F4908802D484068C821B0FBF1F201FB12002C49088000BF18E004EBC40000EB82
:200A8000041049F21E0202EBC001C8226846FFF7F5FC04EBC40101EB0411234A02EBC100EA
:200AA000C8226946FFF74AFF601C84B21C4800888442E2DB1B480088F0B11948008800EBDD
:200AC000C00202EB001049F21E0200E020E002EBC001144802886846FFF7D0FC104909882E
:200AE00001EBC10202EB01110F4A02EBC1000D490A886946FFF722FF002008490870012089
:200B0000C8700822C1030548FFF708FDFFF7E8FD0548FFF703FF00BFFEE700000C00002077
:200B2000140000201600002000400008074A02EB9011D1F8001800F01F0301229A401143E0
:200B4000024B03EB9012C2F80018704700300240026842F40052026001617047016841F0B6
:200B60004001016070470146C86880B27047C160704702469068084008B1012070470020AB
:200B8000FCE702460020106800F441500B6818434B6818438B681843CB6818430B69184386
:200BA0004B6918438B6918431060D36923F40063D3617047002000213A4A126842F480329F
:200BC000384B1A6000BF401C364A126802F4003111B9B0F5006FF6D1324A126802F4003219
:200BE0000AB900BFFEE72F4A4032126842F080522C4B40331A602C4A126842F440422A4BA4
:200C00001A60284A08321268264B08331A601A46126842F400421A601A46126842F4A05240
:200C20001A60224A1B1F1A601A1F126842F080721B1F1A6000BF1B4A126802F00072002A63
:200C4000F9D0194A126842F48032174B1A6000BF154A526802F48032002AF9D0124A1268E1
:200C600042F40032104B1A6000BF0F4A526802F40032002AF9D00B4A0832126822F003022A
:200C8000084B08331A601A46126842F002021A6000BF044A0832126802F00802002AF8D013
:200CA0007047000000380240007000401964400910B5FFF77FFF10BD10B5124800684FF4BD
:200CC0007A71B0FBF1F4601EB0F1807F01D301200FE0601E4FF0E02148610F214FF0FF3092
:200CE000FFF7C2FA00204FF0E021886107200861002008B100BFFEE70021481EFFF7B4FAC1
:200D000010BD00002400002010B5024602EB9110006801F01F040123A340184008B1012072
:200D200010BD0020FCE710B5024602EB9110006801F01F040123A340184008B1012010BDC6
:200D40000020FCE7043000080000002028000000340300082C30000828000020000C000015
:200D6000440300080000000000000000000000000000000000000000000000000000000024
:200D8000000000000000000000000000000000000000000000000000000000000000000053
:200DA000000000000000000000000000000000000000000000000000000000000000000033
:200DC000000000000000000000000000000000000000000000000000000000000000000013
:200DE0000000000000000000000000000000000000000000000000000000000000000000F3
:202FE0000000000000000000000000000800000008002FFF0800400008061A800001050697
:203000000100010056312E3333000000000000000000000000000000000000000000000093
:0C3020000000000016EF000000C2EB0BE7
:1433EC0008000000080033FF0800400008061A80000100009A
:2040000060F606208142000807510008E14F000805510008E54B00080763000800000000B9
:20402000000000000000000000000000C14100083B4C0008000000001D420008995F000880
:204040009B4200089B4200089B4200089B4200089B4200089B4200083D4C00089B4200088C
:204060009B4200089B4200089B4200089B4200089B4200089B4200089B4200089B42000818
:204080009B4200089B4200089B4200089B4200089B4200089B4200089B4200089B420008F8
:2040A0009B4200089B4200089B4200089B42000811600008156000089B4200089B420008AC
:2040C0009B4200089B4200089B4200089B4200089B420008416200089B4200089B420008F2
:2040E0009B4200089B4200089B4200089B4200089B4200089B4200089B4200089B42000898
:204100009B4200089B4200089B4200089B4200089B4200089B4200089B4200084D600008A7
:204120009B4200089B4200089B4200089B4200089B4200089B4200089B4200089B42000857
:20414000E94B00089B4200089B420008D56200089B4200089B4200089B4200089B42000886
:204160009B4200089B4200089B4200089B4200089B4200089B4200089B42000800000000FC
:204180009B4200089B4200089B4200089B4200089B4200089B4200089B42000800000000DC
:2041A0009B4200089B420008E54F0008DFF80CD000F030FC004800479941020860F606203B
:2041C0002C4B19680868B0E8F04F80F30988BFF36F8F4FF0000080F31188704700000000EA
:2041E00008480068006880F308884FF0000080F3148862B661B6BFF34F8FBFF36F8F00DF00
:2042000000BF00BF08ED00E0DFF80C00016841F470010160704700BF88ED00E0EFF30980C2
:20422000BFF36F8F134B1A681EF0100F08BF20ED108A20E9F04F106009B44FF0500080F3DC
:204240001188BFF34F8FBFF36F8F2FF023FF4FF0000080F3118809BC19680868B0E8F04F6C
:204260001EF0100F08BFB0EC108A80F30988BFF36F8F70474C270020EFF3058070470000F8
:204280000648804706480047FEE7FEE7FEE7FEE7FEE7FEE7FEE7FEE7FEE7FEE7B15F00086A
:2042A000AD4100082DE9F05F0546002092469B4688460646814640241BE0284641464746BD
:2042C000224600F0BCF953465A46C01A914110D311461846224600F0A3F92D1A67EB0108BE
:2042E0004F4622460120002100F09AF917EB00094E41201EA4F10104DFDC484631462A465A
:204300004346BDE8F09F0000014610B509683C22B1FBF2F302FB1313B1FBF2F11D480360FA
:20432000B1FBF2F302FB1313B1FBF2F118224360B1FBF2F302FB1313B1FBF2F183600A1D10
:204340000723B2FBF3F403FB142282618A0040F2B55102F66C32B2FBF1F344334361B2FBD7
:20436000F1F301FB13218908C1613B2903D3027D920700D0491C0022074C13460261E25C80
:204380008A4203D8891A5B1C0361F8E7491CC16010BD000034D606208A31070840EA01039E
:2043A0009B0703D009E008C9121F08C0042AFAD203E011F8013B00F8013B521EF9D270478D
:2043C000D2B201E000F8012B491EFBD270470022F6E710B513460A4604461946FFF7F0FF6E
:2043E000204610BD30B505462A460B4612F8010B13F8014B08B1A042F8D01CB1002802D002
:204400006D1CF1E7284630BD421C10F8011B0029FBD1801A704710B5002200E0521C835C04
:204420008C5CA34201D1002BF8D1D8B2E1B2401A10BD30B504460020034600E05B1C9342E1
:2044400003D2E05CCD5C401BF8D030BD034611F8012B00F8012B002AF9D1184670472DE951
:20446000FE4F81EA030404F0004421F0004100944FF0000B23F0004350EA01045ED052EA16
:2044800003045BD0C3F30A54C1F30A552C44A4F2F3340194A0FB0254C1F3130141F4801182
:2044A000C3F3130343F4801301FB024400FB034E840A970A44EA815447EA8357A4FB07688D
:2044C00002958D0A05FB07854FEA932C04FB0C542705029D4FEA065847EA1637B5EB08053E
:2044E0006EEB070C870E920E47EA811742EA8312A7FB0201B6EB0B0164EB00042B0D43EA87
:204500000C335E1844EB1C50DA465146E7FB0201C5F313044FEA0B3343EA14534FEA043266
:20452000019C43EA0603A4F10C040294009CCDE900B400F0DAF803B0BDE8F08F0020014667
:20454000F9E70EB5C10F80EAE0700844CA07002140F233438DE80E000A460B4600F0C5F877
:2045600003B000BD0EB540F2334102910021CDE900110A460B4600F0B8F803B000BD0EB573
:2045800040F2334202920022CDE90022134600F0ACF803B000BD00F0004230F000400AD01D
:2045A000C10D01F56071C0F3160042EA0151C20840071143704700200146704701F00043B1
:2045C00030B421F0004150EA010206D00A0DA2F56072C1F31301002A02DC30BC002070477F
:2045E000440F44EAC104C100E01830BC00EBC25000F035B830B50B460146002020220124F2
:2046000009E021FA02F59D4205D303FA02F5491B04FA02F52844151EA2F10102F1DC30BDAC
:20462000202A04DB203A00FA02F1002070479140C2F1200320FA03F3194390407047202A4F
:2046400004DB203A21FA02F00021704721FA02F3D040C2F1200291400843194670470029EC
:20466000A8BF7047401C490008BF20F00100704710B4B0FA80FC00FA0CF050EA010404BF06
:2046800010BC704749B1CCF1200421FA04F411FA0CF118BF012121430843A3EB0C01CB1D76
:2046A0004FEA00614FEA102042BF002010BC704700EBC35010440029A4BF10BC7047401C96
:2046C000490008BF20F0010010BC704710B5141E73F1000408DA401C41F1000192185B4120
:2046E0001A4301D120F0010010BD2DE9F04D92469B4611B1B1FA81F202E0B0FA80F2203271
:204700009046FFF78DFF04460F4640EA0A0041EA0B0153465A46084313D0114653EA01003B
:2047200019D0C8F140025046FFF789FF05460E46504659464246FFF773FF084305D001207C
:2047400004E020463946BDE8F08D0020054346EAE0762C4337430A986305E40AA0EB08000C
:204760000022FD0A44EA47540A3002D500200146E9E7010510196941DDE908450019694150
:20478000BDE8F04DA2E72DE9FE4F804681EA0300C00F0C46009021F0004123F00045B8EB19
:2047A0000200A94105D24046214690461C460B46024623F00040104347D0270DC7F30A00C3
:2047C000C3F30A510290401A019040286BDAC3F3130040F4801B0098924620B10023D2EBE5
:2047E000030A63EB0B0B01985946C0F140025046FFF716FF06460D4650465946019A00F01D
:204800001BF910EB08006141002487EA115284EAE7731A4340D0009A62B3019A012A4FEA04
:20482000075215DC001B61EB02014FF0004202EA0752CDE90042001C41F5801132462B463A
:20484000FFF753FF03B0BDE8F08F40462146F9E7001B61EB0201001C41F5801300185B4169
:204860002018A2F5001747EB030140EAD570B6196D4111E06D084FEA360645EAC0754FEAB8
:204880000752001B61EB0201001C41F5801149084FEA30000019514132462B4603B0BDE8CC
:2048A000F04FFFF713BF0098012240000023D0EB020263EBE073009821464FEAE074B8EB44
:2048C000000061EB0401E9E783F000435BE781F0004158E72DE9F04D81EA030404F0004BCA
:2048E00021F0004514464FF0000A23F0004150EA050220D054EA01021DD0C5F30A570246AB
:20490000C5F31303C1F31300C1F30A5640F4801543F48013A7EB0608101BD64608F2FD3845
:2049200073EB050002D308F1010801E092185B41B8F1000F03DA00200146BDE8F08D0020D8
:204940004FF48011064684460EE0171B73EB050705D3121B63EB050306434CEA010C4908AB
:204960004FEA300092185B4150EA0107EDD152EA030012D082EA040083EA0501084305D064
:20498000101BAB4106D20122002306E000224FF0004302E06FF0010253101AEB06004CEB6F
:2049A000085110EB0A0041EB0B01BDE8F04DFFF78DBEC1F30A52C1F3130140F2FF3341F4CD
:2049C00080119A4202DA00200146704740F233439A42A2F2334202DC5242FFF730BEFFF797
:2049E0001FBE000030B5041E71F1000404DB4FF00044404264EB0101141E73F1000405DBBE
:204A00001C464FF00043524263EB0403994208BF904230BD064C074D06E0E06840F0010360
:204A200094E8070098471034AC42F6D3FFF7C2FBF835070818360708202A06DBCB17203A66
:204A400041FA02F043EAE07306E041FA02F3D040C2F12002914008431946704770B58C18B3
:204A600010F8015B15F0070301D110F8013B2A1106D110F8012B03E010F8016B01F8016BAB
:204A80005B1EF9D12B0705D40023521E0DD401F8013BFAE710F8013BCB1A921C03E013F879
:204AA000015B01F8015B521EF9D5A142D8D3002070BD00002DE9F8430025DDE90841474E12
:204AC000A8460A2711B101294BD14BE04449002303EB430C31F82CC0844501D11D4603E0A1
:204AE0005B1CDBB2042BF3D305EB450301EB830100200B8933E000BF4D6800EB400C35F876
:204B00002C50954229D14A6800EB4000082303EB8003D55A0423012D02D0022D09D018E079
:204B2000257803EB8003ADF80250D258247814800FE0657894F800C003EB800305EB0C256C
:204B4000ADF80250D2582578158062784C68E3585A80496807EB80002DE0401C80B28342DC
:204B6000CAD837E01E4B002113F1300301EB410C33F82CC0844501D10D4603E0491CC9B2BA
:204B80000429F3D305EB450103EB810100200B891EE000BF4D6800EB400C35F82C5095429F
:204BA00014D1496800EB400007EB80000A5A8AB12278ADF80220085AADF80000306848B12A
:204BC00000231A4669462FF025FB03E0401C80B28342DFD84046BDE8F8830000280E00207B
:204BE000B4000020FEE7000010B5054A0021054808F016F8BDE81040014808F0A9B80000DD
:204C0000285A0020006800407CB50646FF200D468DF800008DF80400002405E0305D01AA0C
:204C2000694609F009F8641CAC42F7DB9DF804009DF8001040EA01207CBD704702490020A7
:204C4000086001200CF0EEBE341C002038B500218DF80010114A8DF8010000BF545C9DF82B
:204C60000030491C2344C9B28DF80030B829F5D3D9B2C943491C8DF800108DF80100B8226E
:204C8000064948F247002CF08BFC0222694648F2FF002CF085FC002038BD0000464803084A
:204CA0002DE9F04F4D4E00244FF00A0A707885B0401CC0B2B0FBFAF20AFB1201484DA04678
:204CC000707009B10A2864D248F24E190122494642482CF073FB30784FF0000701060AD597
:204CE00000F00F00062806D28DF800700122694648462CF055FC307801074AD000F00F0024
:204D0000062846D2FF218140C8B28DF80000C04395F8349040F0C000A886A889A882288CEC
:204D2000DFF8C0B028854FF00108A98E08FA04F0014215D03BF81410042203A82CF03EFB65
:204D40009DF80C009DF80D1000EB012105EB440081819DF80E109DF80F2001EB02210184B2
:204D6000641CE4B2052CE0D3A9894FF001082846B1F5F07F03D8018CB1F5887F08D931789D
:204D800001F00F0101290AD9C1898181418C29847770307800F08F00802809D015E0818AB0
:204DA0008181018D018480213170A5F83490F0E7A88E010602D520F0800005E04FF6FF7126
:204DC000A981298400F0E000A8867078F02801D986F801A005B04046BDE8F08FF01C00207A
:204DE000045B00203C4803080D2912D2DFE801F011070B07090709070709070907001F2023
:204E000070471E207047800701D01C2070471D207047002070470000F0B53FA2064685B0C9
:204E200007CA02AB302583E807000020009001909DF811008DF800009DF812008DF8010094
:204E40009DF80C00202810D08DF804009DF80D008DF805008DF8025032A102A8FFF7C2FACE
:204E6000312428B18DF8034047E08DF80450EDE72DA102A8FFF7B6FA322710B18DF8037038
:204E80003BE02AA102A8FFF7ADFA08B1332028E027A102A8FFF7A6FA08B1342021E025A1F5
:204EA00002A8FFF79FFA08B135201AE022A102A8FFF798FA08B1362013E020A102A8FFF759
:204EC00091FA08B137200CE01DA102A8FFF78AFA08B1382005E01BA102A8FFF783FA18B1D1
:204EE00039208DF8030008E017A102A8FFF77AFA48B18DF802408DF8035069463046FFF76A
:204F0000A5FA05B0F0BD11A102A8FFF76BFA8DF802400028B2D0A5E74F63742020392032EB
:204F2000303231004A616E00466562004D617200417072004D6179004A756E004A756C00F6
:204F400041756700536570004F6374004E6F76002DE9F0471646DDE9089A0F4680461C4C1F
:204F600000201C491C4A04E0850706D01444401CC0B24045F8D301250CE00C44F7E72946DB
:204F80004046FFF731FF40F2A32148436D1C04EBC014EDB2BD42F2D30120104902E0401C7D
:204FA0000C44C0B2B042FAD3002003E0401CC0B204F561649842F9D3002002E0401CC0B26B
:204FC0003C344845FAD304EB0A00BDE8F087000080436D380085E2018033E10180510100BB
:204FE000FEE7000010B502200FF0F4FC10B102200FF0E8FCBDE81040014813F0A9BB00008B
:20500000F0C704202DE9FF47804614460D461046FFF7FAFD60556119000A487037483849B2
:2050200000798DF8048041EA0020009008208DF80C00280A8DF805008DF8065020788DF8A6
:20504000070060788DF80800A0788DF80900E0788DF80A0020798DF80B00684605F000FB90
:205060000520ED1E95FBF0F18EB295FBF0F100FB1150002587B248F01008A9461DE000BF29
:205080008DF8048005EB85008DF8059020448DF8065041798DF8071081798DF80810C17912
:2050A0008DF80910017A8DF80A10407A8DF80B00684605F0D5FA6D1CEDB2B542E0D3002F7B
:2050C0001AD0F81C8DF80C008DF80480300A8DF805008DF8066000206A4606EB860106E05B
:2050E0000B18234415185B79401CEB71C0B2B842F6D3104605F0B4FABDE8FF87000E0020E6
:20510000F700A018FEE770470907090E002806DA00F00F0000F1E02080F8141D704700F1D4
:20512000E02080F8001470472DE9F04F0F46014600250078FE4CFF4E91B0A846FE280CD0D6
:20514000308B20443A46FFF729F9308BFE2138443083A278FD2A06D009E0A6F81880A6F8BB
:205160001A802046EEE7E07801280DD088B1607802EB00201FFA80F9308B09F104029042BF
:205180001CD011B0BDE8F08F6278FF2000EB0220F0E7607801EB0020ECE76A1C635D8242A0
:2051A00006D2FD2B04D167197F78012F5ED0E7B3728BA354521C72836D1CADB28542ECD3E6
:2051C000A6F8188020784546FE28DAD104EB090898F80300FE28D4D1D54F3446387AF97985
:2051E0007A7900EB0120B979FF1C090401EB02610844F061D04882784178CDE9001203785C
:20520000CE48827841780078FFF7A2FE2062F87BB97B3A7B00EB0120797B090401EB02617D
:205220000844A062F879B97900E022E000EB0120DFF800B380B240F2ED4107F6BF3A0BF181
:20524000340BA7F6030488421ED91120ABF80000B06B20B100231A4659462EF0DBFF0120AF
:2052600025706070022311210094DFE0738BE15402E0738BFD25E5545B1CA9F101097383A0
:2052800095B21FFA89F997E798F8011098F8020001EB00201FFA80F8A9F102013846FFF7CD
:2052A000B3FC404591D1A6F81090B046787C397C9F4E00EB012080B2153670287ED02BDC18
:2052C000302855D017DC102885D11120ABF80000D8F8380028B1974900231A4634312EF035
:2052E00099FF00202554401C80B20628FAD3062311210094FEE340287ED05028D2D1002033
:20530000074601903078052877D0012025706070022351210094EDE3B0286FD010DC722875
:205320006DD074283FF42DAF9028BBD1002069463A18927C0A54401CC0B20428F8D320E7E8
:20534000C028FCD0C228FAD10195C3210295ABF80010D8F8380028B1764900231A46343198
:205360002EF058FFBA7C01A9082A7DD20020EEE30020A9F1140905E039188A7CD243401CE2
:205380008A74C0B24845F7DBB87C88F801003A7DFB7CC64602EB032296B2A8F80C607A7DF2
:2053A00088F8022091463A18937C92F811C003EB0C239BB2A8F80E309C4600E0B2E2D37CCB
:2053C00080468EF8033000215D4806E008EB01023A44127D4254491CC9B29942F6D3A6F5EA
:2053E0007F41F046FF3924D0CDE90005624649463046FFF75FFB03E049E013E1CDE32AE316
:205400003121ABF80010D8F83800464628B1494900231A4634312EF0FDFE00202554401C92
:2054200080B20228FAD3022331210094D6E90702CBE06146BCF1180FDDDA0229DBD1C17883
:20544000027801EB026142788078120402EB00200844039003A8FEF757FF01462C223948C3
:20546000FEF79CFF374B00E0BCE3187D197C1A7B93F808C01F791E781B7ECDE900C76438A9
:20548000491CC0B2C9B2029606F0EEFDB3E70020A9F1140905E039188A7CD243401C8A7425
:2054A000C0B24845F7DBB97C88F80110387DFA7C7B1800EB022080B2A8F80C007A7D88F835
:2054C000022096469A7C5E7C814602EB062292B2A8F80E20DB7CA0F57F4688F80330FF3E4F
:2054E00002D00020164E82E01237C8F83C70F879752802D061282DD04FE0387A73284CD140
:20550000787A652849D1B87A722846D1F87E262843D10D483A7F417891423ED181787A7F9C
:2055200091423AD1C178BA7F914236D100790DE0AE30002000000020001D0020FC1C002048
:2055400098280020084600203C5A0020F97F884236D022E0387A64281FD1787A6D281CD15B
:20556000B87A692819D1F87A6E2816D1F87E262813D1387F312810D1787F32280DD1B87F90
:2055800033280AD1F87F342807D197F82000352803D197F82100362812D0012088F80000B9
:2055A00020704120ABF80000D8F8380020B100231A46FE492EF02EFE02234121009425E347
:2055C00088F8005025706570EBE700F071FDAAF894090C208AF89709D3E500BF01EB000C65
:2055E000BC449CF814C006F800C0401CC0B29842F4D30120CDE9006071464846FFF75AFA50
:205600004120ABF80000D8F8380020B100231A46E6492EF0FFFD00202554401C80B2022890
:20562000FAD3C9E770785121FF2807D1B278FF2A04D13279022A01D172798AB1B278DB4F49
:2056400002EB00201FFA80F900201437CDF8000000EB400237F822304B457CD100908FE0F1
:20566000ABF80010D8F83800C14620B100231A46CE492EF0CFFD25706570FF20A070E0702A
:20568000257102206071A571E57101202072402101A8FEF79CFE8DF8225057208DF82300B3
:2056A0000DF125008DF824501E22C1490090FEF775FEBF4840223D3001A9FEF76FFEDFF8D3
:2056C000F482492598F8000000B3DFF8ECB2464619E000BFC7EBC70000EB0711594414229B
:2056E00031F8020BADF8220011F8010B8DF824000098FEF753FE6019402201A9FEF74EFE4B
:205700004035ADB27F1C30788742E3DBAB4F387800B30026DFF8A8B219E000BFC6EBC60008
:2057200000EB06115944142231F8020BADF8220011F8010B8DF824000098FEF72FFE6019A6
:20574000402201A9FEF72AFE4035ADB2761C38788642E3DB00E00EE098F800003978084429
:20576000401C8101A9F80A1000940931D9E907028BB2512129E7401CC0B20928FFF468AF2F
:205780005120ABF80000D8F8380020B100231A4686492EF03FFDA9F57F41FF3920D000F0FA
:2057A00045FA70793179C44600EB012080B2A8F80600B17A737A424601EB032189B2A8F89E
:2057C000081081427ED3AE46ACF80A50009D002205EB450507EB8509E346B9F8085055E0CB
:2057E000B8F816207748130A80F8483980F8492980F84A5980F84B5998F80420012A07D017
:205800000221A0F8461970490988A0F84C19C8E7664A0C321278012AC3D10222A0F8462916
:205820006422A0F84C290322ABF802205122ABF80020D8F838000028B3D000231A465B49DB
:205840002EF0E8FCADE700BFD9F8047002EB420337F82330834218D1D3B2019300230D1AE9
:205860006D1C0FE002EB030C0CEB4C084FF0080C0CEB880C37F80C80BBF80AC05B1CC444D4
:20588000ABF80AC09D42EDDC02E0521C9542DBDC081A84F800E084F801E084F802E0572164
:2058A000E17084F804E0317961717179A171401CC3B284F807E009210022237208254FF03E
:2058C00004081AE024E000BF0198D9F80460104400EB400705EB8700305A401E0CD408EB79
:2058E000870700BF56F807C01CF800C004F801C0491C89B2401EF5D5521C9A42E4DB009450
:20590000BBF80A10DBE9070209318BB251215CE601202570607000940223126A5121D8F8C5
:205920001C0052E696F8271096F8260001EB002080B2A8F81600572804D0522804D0562887
:2059400004D006E0012002E0032000E0022088F804003078022802D001283AD060E013486F
:20596000082211030C300BF013FE104F0C377878FF2803D004F0AEFE0028FBD00121797077
:205980007079B278337900EB0260F278120402EB03221044A8F8120000202554401CC0B2FC
:2059A0000628FAD3ABF8021010E00000340000207A280020010E002034460020020E002038
:2059C0001A47002006330020080E0020C8F8305026E0924E0127777098F80400012838D0BD
:2059E00035706F20ADF800008D48006820B100231A4669462EF00EFCFF20B070F070D8F8F7
:205A00002C0008221E3815037060294683480BF00FFE0822294681480BF0BAFDABF8027087
:205A20000094D8E907020623712100F041FBAAF894090C208AF897097121ABF80010D8F87F
:205A4000380000283FF47BAC7449497801297DD075E43770D0E7F078B178327800EB012099
:205A60007178A9F11809090401EB026108441FFA89F70190A8F81470012827D9D8F8301053
:205A8000401A012803D025700120607069E098F80400012806D1614B321D1C3B311D38462F
:205AA00000F01EFC0198B8F8142000EBC00101EB001048F6387101EBC001301D0BF0B8FD26
:205AC000B8F81410D8F82C00084446E05348012108224170FF2101708170C1704FF0FF31CA
:205AE000416011030BF0A4FD4E4900203218527B0A5400E08AE0401CC0B20C28F6D398F884
:205B00000400012817D1454F00201C3F0A181379127A1A440B5CC3F1FF031A443A54401C64
:205B2000C0B20428F2D33D4B321D1C3B311DB8F8140000F0D5FB0199B8F81420491E514389
:205B4000301D01F510410BF073FD01E03AE047E0B8F81400D8F82C100844C8F82C00257087
:205B600065700094D8E907020223732100F0A0FAAAF894090C208AF897097321ABF80010DB
:205B8000D8F8380028B1254900231A460C392EF041FB0198C8F830001EE52570657000940A
:205BA000D8E907020223B12100F082FAAAF894090C208AF89709B121ABF80010D8F838009E
:205BC0000028E9D011B00023BDE8F04F13491A460C392EF01FBB3B18DB7C0B54401CC0B24C
:205BE0009042F8D3104A002013180E5C5B78B3420FD1401CC0B20428F6D300202554401C99
:205C000080B20228FAD30223C3210094D8E90702DBE4257001206070F5E700004000002073
:205C2000280E0020A22800203C5A0020F0B5CA48CD4DCF4E4168C948C1F30063002280F815
:205C40001437C1F3406380F81537C1F3806380F81637C1F3C06380F81737C1F3007380F846
:205C60001837C1F3407380F81937C1F3404180F81D17BB49D1E90031C1F3C06480F821471E
:205C8000C1F3C00180F83917C3F3C06180F84117C3F3024180F84417990F80F84617B149DD
:205CA0004968C1F3006480F86847C1F3406480F86947C1F3806480F86A47C1F3C06480F863
:205CC0006B47C1F3007480F86C47C1F3407480F86D47C1F3807480F86E47C1F3004480F8E6
:205CE0006F47C1F3404480F87047C1F3804480F87147C1F3C04180F87217A988A0F85218F6
:205D00009A498988A0F85A18716834880F0EA0F86878C1F30747A0F86A78C1F30727A0F865
:205D20006C78C9B2A0F86E18317880F87818210A80F879182988A0F856188E4CC3F3006159
:205D400080F83E17D4E900318D0F80F80A59C1F3017580F80B59C1F30B45A0F81259C1F350
:205D60000B01A0F81419C3F30B41A0F816192188C1F30B01A0F818197F49D1E90043190D6C
:205D800004D0A1F56171A0F81E1901E0A0F81E29C3F30B2121B1A1F5E161A0F8201901E0FA
:205DA000A0F82029210D04D0A1F5E161A0F8221901E0A0F82229714BD3E90013C3F3082424
:205DC000A0F8C0481C0E373CA0F8C248C1F30844A0F8C448DCB2373CA0F8C648684CD4E928
:205DE0000054E60DA0F8C868C1F30726373EA0F8CA68C4F30806A0F8CC68C4F3C736373EBA
:205E0000A0F8CE68C3F3C14680F8D868C3F3805680F8D968C1F3C16680F8DA68C1F38076BB
:205E200080F8DB68C1F3C10680F8DC68C1F3801680F8DD68C4F3C12680F8DE68C4F34036E0
:205E400080F8DF6880F8E428C3F3C05280F8E528C3F3405280F8E628C3F3414280F8E72824
:205E6000CA0F80F8E828C1F3407280F8E928C1F3416280F8EA28C1F3C01280F8EB28C1F32C
:205E8000401280F8EC28C1F3410180F8ED18C4F3803180F8EE18E90F80F8EF18C4F341213B
:205EA00080F8F01837494968C1F3006280F82429C1F3406280F82529C1F3806280F82629DD
:205EC000C1F3C06280F82729C1F3007280F82829C1F3407280F82929C1F3807280F82A2994
:205EE000294AC90F80F82B19D2E90012274C090E80F82C19D4E900311B0E80F82D392388E7
:205F0000A0F82E39130E80F83439120AA0F83C290A0CA0F84229A0F84419012180F85A1948
:205F20001B490968C1F3C63280F85B29C1F3062280F85C29C1F3460180F85D191549496813
:205F40004A0E80F85E29C1F3864280F85F29C1F3C62180F86019F0BDD816002006330020CE
:205F6000E016002000170020B0160020B8160020C816002070170020481700205017002055
:205F80005817002078170020A8160020A0160020081700201017002010B52EF0D9FA0128AA
:205FA00001D02EF0C9F8BDE8104008F095B900001348016841F4700101601248016841F037
:205FC000010101600F4A0832116841F0800111600021491C1429FCD30021116002680A4B4C
:205FE0001A400260074B094A1B1D1A60026822F48022026003480C30016024F007BA00004D
:2060000088ED00E000380240FFFFF6FE103000247047000010B50B4C012120462AF051FF96
:20602000002808D0012120462AF048FF0648016811B1491E016010BD2046BDE810402AF0F4
:20604000E1BE0000000400401028002010B5144C012120462AF035FF002810D0012120467A
:206060002AF02CFF002120462AF063FE0D480188491C8AB20280642A02D90021018010BD00
:2060800009484FF40061037808489A4203D2BDE810400DF038B8BDE810400DF036B80000CD
:2060A00000140040401C0020381C0020000C02402DE9F04FADF6040D894607461D4616466A
:2060C0004FF400616846DDF828B8FEF780F905F1140100208CB24FF0FE0A12228DF800A042
:2060E000210A8DF804208DF801103A0E8DF8052080463A0C8DF8062041463A0A8DF80C80B1
:206100008DF807208DF80D108DF80870042267218DF809208DF80E10ED22310E8DF80F1043
:20612000310C8DF81010310A8DF811108DF802408DF80A208DF803008DF812604FEA192134
:206140008DF80B008DF813108DF814906A4605E01BF800301118401C4B7580B2A842F7D3DB
:20616000914605F112014E46D01CFEF74DFD71194FF0010B4875000A1735AAB20325887517
:206180002846FD272D4E0BE019F80010FE2914D0FD291CD073196D1CD970ADB2401C80B27E
:2061A0009042F1D3200A86F803A03071D1467471FE2C18D0FD2C26D036E071196D1CCF70C8
:2061C000641CA9B27518A4B285F803B008E071196D1CCF70641CA9B27518A4B285F80380D9
:2061E000491C8DB2DAE72246B11D6846FEF7D6F822466946F01DFEF7D1F886F804807771C7
:2062000086F806B00EE02246B11D6846FEF7C6F822466946F01DFEF7C1F886F80480777109
:2062200086F806806D1CADB271196D1C81F803900DF6040DA8B2BDE8F08F0000703C0020F5
:2062400070B5204D204C294620462BF0BDFE50B3294620462BF0AEFE20462BF0A7FE1B496C
:2062600001F1CA0291F89231985491F892010022401CC0B281F89201C82801D981F892211A
:20628000A1F896214FF08045002128462AF051FD28462AF0BCFD012128462AF00FFE012199
:2062A00028462AF007FE0A4D204629462BF08CFE002805D029462046BDE870402BF07ABE06
:2062C00070BD00000503050000100140F85600200005030001482CF0A3BB0000881700203B
:2062E00070B500240CE00D5DDE78ED4375409E7835445E78AD1B1E7875401555641CA4B20C
:206300008442F0D370BDFEE7034610B50020024603E08C5C6040521C92B29A42F9D310BDDA
:206320000FB4084B10B504A902AA039803F04CFA044602A9002003F0DEFD204610BC5DF8EB
:2063400014FB0000F79E000802E008C8121F08C1002AFAD170477047002001E001C1121F8E
:20636000002AFBD1704770B504690D46A0680168A94219D88188A94216D36169A94201D1DA
:20638000A06904E0018AAAB2806805F0A8FB411C0AD06168C4E9055001EBC0012068096801
:2063A000C1F31301084470BD002070BD70B504690D46A0680168A94219D88188A94216D340
:2063C0006169A94201D1A06904E0018AAAB2806805F09BFB411C0AD06168C4E9055001EB01
:2063E000C00120680968C1F31301084470BD002070BD70B504690D46A0680168A94219D823
:206400008188A94216D36169A94201D1A06904E0018AAAB2806805F08EFB411C0AD06168DE
:20642000C4E9055001EBC00120680968C1F31301084470BD002070BD70B504690D46A06839
:206440000168A94219D88188A94216D36169A94201D1A06904E0018AAAB2806805F081FB66
:20646000411C0AD06168C4E9055001EBC00120680968C1F31301084470BD002070BD70B5C1
:2064800004690D46A0680168A94219D88188A94216D36169A94201D1A06904E0018AAAB2B7
:2064A000806805F074FB411C0AD06168C4E9055001EBC00120680968C1F31301084470BDA7
:2064C000002070BD70B504690D46A0680168A94219D88188A94216D36169A94201D1A069D0
:2064E00004E0018AAAB2806805F067FB411C0AD06168C4E9055001EBC00120680968C1F336
:206500001301084470BD002070BD70B504690D46A0680168A94219D88188A94216D36169C8
:20652000A94201D1A06904E0018AAAB2806805F05AFB411C0AD06168C4E9055001EBC001E9
:2065400020680968C1F31301084470BD002070BD70B504690D46A0680168A94219D8818879
:20656000A94216D36169A94201D1A06904E0018AAAB2806805F04DFB411C0AD06168C4E91A
:20658000055001EBC00120680968C1F31301084470BD002070BD70B504690D46A06801681C
:2065A000A94219D88188A94216D36169A94201D1A06904E0018AAAB2806805F040FB411C52
:2065C0000AD06168C4E9055001EBC00120680968C1F31301084470BD002070BD70B5046950
:2065E0000D461646A0680168B14226D88188B14223D36169B14201D1A06904E0018AB2B22D
:20660000806805F06CFA411C17D06168C4E9056001EBC0010868000D28804879A8800879DC
:20662000688091F90600E88091F907002881608AC0F34320A872012070BD002070BD70B566
:2066400004690D461646A0680168B14226D88188B14223D36169B14201D1A06904E0018AC3
:20666000B2B2806805F051FA411C17D06168C4E9056001EBC0010868000D28804879A880B4
:206680000879688091F90600E88091F907002881608AC0F34320A872012070BD002070BDAA
:2066A00070B504690D461646A0680168B14226D88188B14223D36169B14201D1A06904E0C9
:2066C000018AB2B2806805F036FA411C17D06168C4E9056001EBC0010868000D288048790C
:2066E000A8800879688091F90600E88091F907002881608AC0F34320A872012070BD00204F
:2067000070BD70B504690D461646A0680168B14226D88188B14223D36169B14201D1A0691F
:2067200004E0018AB2B2806805F01BFA411C17D06168C4E9056001EBC0010868000D2880A3
:206740004879A8800879688091F90600E88091F907002881608AC0F34320A872012070BD4D
:20676000002070BD70B504690D461646A0680168B14226D88188B14223D36169B14201D1A8
:20678000A06904E0018AB2B2806805F000FA411C17D06168C4E9056001EBC0010868000DFD
:2067A00028804879A8800879688091F90600E88091F907002881608AC0F34320A872012072
:2067C00070BD002070BD70B504690D461646A0680168B14226D88188B14223D36169B142ED
:2067E00001D1A06904E0018AB2B2806805F0E5F9411C17D06168C4E9056001EBC0010868F4
:20680000000D28804879A8800879688091F90600E88091F907002881608AC0F34320A87225
:20682000012070BD002070BD70B504690D461646A0680168B14226D88188B14223D361695E
:20684000B14201D1A06904E0018AB2B2806805F0CAF9411C17D06168C4E9056001EBC0012B
:206860000868000D28804879A8800879688091F90600E88091F907002881608AC0F343206F
:20688000A872012070BD002070BD70B504690D461646A0680168B14226D88188B14223D3AE
:2068A0006169B14201D1A06904E0018AB2B2806805F0AFF9411C17D06168C4E9056001EBDD
:2068C000C0010868000D28804879A8800879688091F90600E88091F907002881608AC0F3B1
:2068E0004320A872012070BD002070BD70B504690D461646A0680168B14226D88188B142E1
:2069000023D36169B14201D1A06904E0018AB2B2806805F094F9411C17D06168C4E905608D
:2069200001EBC0010868000D28804879A8800879688091F90600E88091F907002881608A17
:20694000C0F34320A872012070BD002070BD70B5044600256FF02F0608E02068411C2160F6
:20696000007805EB850106EB410145182068007800F0C6F80028F0D1284670BD2DE9FF5FF3
:2069800082B00021DDE90430020DDDF840B0034318D044F61050A2F2FF32424315141198F2
:2069A00001281FD0A5EB0B00401C5FEA000A4FF000064E4FDFF83891B046504615D5CAF1C2
:2069C000000413E0119801244AA3012801D16FEA0B010298119AC0E90031C0E9024206B0E3
:2069E000BDE8F09FCBF10000DFE704460021404A491842EB0450CDE9001012E0E00707D094
:206A000032463B4640464946FDF729FD8046894632463B4610461946FDF721FD06460F4658
:206A20006410002CEAD1DDE90401DDE90023BAF1000F06DAFDF713FD42464B46FDF70FFD90
:206A400005E0FDF747FF42464B46FDF743FF04460E460022284BFDF7C5FF03D84FF0FF3094
:206A6000014607E00022254B20463146FDF78BFEFDF79FFF102409E0002C0ADB0A220023ED
:206A8000FDF710FC039B30321A55641E50EA0102F2D1641C039AC4F111031444119A012AF1
:206AA00003D0012208430DD10AE0084304D000204FF0110B119072E7A3EB0B056D1E0DE023
:206AC0005B4504DD4FF0000205F1010504E003DA4FF00002A5F10105002AECD00298119930
:206AE000C0E90231C0E9004579E70000000014400000F03F300000000000F0430000E03F67
:206B00003038092801D80120704700207047000010B54021074801F096F9002304221E21D7
:206B200005481CF0CDFF054CA06003F051FC0020207010BD58C9042085A40008741D0020FB
:206B40002DE9F04100251C4688460646152A3BD2DFE802F00B1B1D2E3744535C5E676A7905
:206B6000878999A6ABB0B5BACD0030460EF075FF054640460EF071FF014605EBD57040103C
:206B800001EBD171A0EB6100A1E025800EE030460EF063FF074640460EF05FFF07EBD77188
:206BA000491000EBD070A1EB60008BE065800BE030460EF052FF074640460EF04EFF381AF5
:206BC00080E0258097E0608020883188084420806088718808446080BDE8F08130460EF075
:206BE0003CFF054640460EF038FF05EBD571491000EBD070A1EB60007CE030460EF02DFFB2
:206C0000054640460EF029FF281A73E025805FE030460EF022FF054640460EF01EFF281A41
:206C200055E02580084618E030460EF016FF054640460EF012FF05EBD571491000EBD07011
:206C4000A1EB600007E030460EF007FF054640460EF003FF281A208040460EF0C6FE40426A
:206C6000B1E7258018E030460EF0F7FE054640460EF0F3FE014605EBD570401001EBD171BC
:206C8000A0EB610007E030460EF0E7FE054640460EF0E3FE281A208030460EF0A6FE92E7A5
:206CA00008460EF0DAFE40420CE008460EF0D5FE40420CE008460EF0D0FE40421AE03046A9
:206CC0000EF0CBFE208071E730460EF0C6FE208030460EF08AFE054640460EF086FE05EBDE
:206CE000D571491000EBD070A1EB60006BE730460EF0B3FE208030460EF077FE054640460D
:206D00000EF073FE281A5EE770B5B1F90030B2F90040A34200DC23460380B1F90250B2F93F
:206D20000240A54200DD2C464480B1F90460B2F90450AE4200DA35468580B1F90610B2F955
:206D40000620914200DB1146C1800120AB4201DC8C4200DD002070BDF8B50D460446B0F9F1
:206D60000000B1F900101646884247DBB4F90210B5F90220914241DBB4F90410B5F9042000
:206D800091423BDCB4F90610B5F90620914235DC96B3ADF800006088ADF8020032466946EA
:206DA000284600F049F8002827D0A088ADF800006088ADF8020032466946284600F03CF800
:206DC00000281AD02088ADF80000E088ADF8020032466946284600F02FF800280DD0A0886C
:206DE000ADF80000E088ADF8020032466946284600F022F8002800D00120F8BD0020F8BD9D
:206E0000B0F90020B1F904309A4213DCB0F90420B1F900309A420DDBB0F90220B1F90630EA
:206E20009A4207DCB0F90600B1F90210884201DB01207047002070472DE9FC4114460E46D2
:206E4000B1F90020B0F9001005468A423ADBB5F90400824236DCB6F90270B5F90220974231
:206E600030DBB5F906309F422CDC002C75DD401A9A1A401C521C00B212B200EBD07002EB56
:206E8000D27240105210904200DB1046844200DD0446ADF80010288800222044ADF8040078
:206EA0006888ADF80200688831462044ADF806006846FFF7C1FF40B1BDF804002044ADF8AE
:206EC00004003FE00020BDE8FC81E8880022001BADF80200E888ADF8060031466846FFF7C3
:206EE000ABFF28B1BDF804002044ADF8040011E0A8880022001BADF80000A888ADF804006D
:206F000031466846FFF798FF50B1BDF80000001BADF80000BDF80200001BADF8020016E0DA
:206F20006888ADF80200688800222044ADF8060031466846FFF780FF70B1BDF80000001B0E
:206F4000ADF80000BDF806002044ADF806003146684619F081FBB6E7FFE70120B3E710B515
:206F6000B1F90040B2F900309C4200DA23460380B1F90240B2F902309C4200DA23464380FB
:206F8000B1F90440B2F904309C4200DD23468380B1F90610B2F90620914200DC1146C18025
:206FA00010BD30B5034680881C885D88001BDC88401C198000B2641B641C014624B25A8029
:206FC00018460EF06EFD2146BDE8304018460EF063BD2DE9FF4F87B01D46DDE91476DDF8CF
:206FE00058908B46022E50D3002F4ED001F094FC804611F0B3FB00F11004D0F808A0D8F8FD
:207000002410404601B188475A4604A80799FFF77BFE002839D0BDF810002188401A01B22E
:20702000ADF81010BDF812006288801AADF81200BDF814002288801A00B2ADF81400BDF85C
:2070400016206388D21AADF8162095B198F80820D2070ED1401A401C01B2002007E02A5C9C
:20706000802A01D9FF2200E000222A54401C8842F5DBD8F8140058B1CDE90065029704AAA6
:2070800051462046099B0BF065F90BB0BDE8F08FB9F1000F0AD001A8009680E8A00204AA8D
:2070A00051462046099B0AF0EFFEEEE7CDE90065029704AA51462046099B0AF07FFFE4E72D
:2070C0002DE9FF4F87B01D46DDE91476DDF858A09146022E52D3002F50D0014605A8089A84
:2070E000FFF712FE002849D001F016FC804611F035FB00F11004D0F808B0D8F82410404640
:2071000001B18847BDF814002188401A01B2ADF81410BDF816006288801AADF81600BDF8E7
:2071200018002288801A00B2ADF81800BDF81A206388D21AADF81A2095B198F80820D20708
:207140000ED1401A401C01B2002007E02A5C802A01D9FF2200E000222A54401C8842F5DB3F
:20716000D8F8140068B1CDF800900397CDE9016505AA59462046089B1DF0E6FA0BB0BDE863
:20718000F08FBAF1000F0BD002A805AA80E8A004CDE9009659462046089B1DF089F8EDE720
:2071A000CDF800900397CDE9016505AA59462046089B1DF02DF9E1E7D0F87821C2F3094310
:2071C0008B4202D204490A4002E0591A61F31942C0F8782170470000FFFF00FC2DE9FC5F00
:2071E00005461CF05BFE554C0190E8686060002128461CF093FD6068C16BA9B119F046FCD9
:2072000019F0BCFB60684E4AD0F8781111427DD0A34611F042FB002867D0DBF804005D465D
:207220004169002961D108E04549D0F87821C9430A40C0F87821BDE8FC9F11F08FFA0446B7
:2072400019F01EFDA0690028FCD16868B0F90000400000F017FF8246A16820688946814262
:2072600000D160688046686811F08CFA06460024AB462DE00A1992F85A213ABB01EBC4011C
:2072800031F95A2FB1F9025016FB052389885F00891A491C09B2490000910FE008EB07010F
:2072A0005046009A00F0B4FF09EB07005146009A00F0AEFF6D1C07EB46072DB2DBF80400B4
:2072C00000EBC400B0F96000A842E7DA641CA4B2DBF80410D1F87821C2F30942A242C9D8A7
:2072E000BAF1000001D000F053FFDBF804004FF480715C465A3001F081F86068202100F531
:20730000AD7001F07BF860680D4A00E00FE0D0F87811D2431140C0F8781101981CF0B8FDAC
:2073200063689D691DB1014618462268A84700F087FEBDE8FC5F00F005B80000201D002011
:207340000000FF0310B5044C2068002803D015F097FF0020206010BD981D00201821014834
:2073600000F071BD64C904202DE9FF5F0446DDE90E0613B9B0F5807F7ED0B6F900504FF00A
:20738000FF376D42454307EB25252DB22580B6F902C0CCF1000C0CFB00FC07EB2C273FB24D
:2073A0006780B6F900C0A1EB0C0141434FF0020C0CEB212109B2A180B6F90280A2EB080230
:2073C00042430CEB222000B2E080002B7ED04FF00A0A93FBFAF5684200EB800003EB40074A
:2073E00005F1010928B201F059FF00900FFA89F001F054FF83465A3528B201F04FFF8046DD
:2074000009F15A0000B201F049FF0146009AC7F10A0000FB02F300FB08F00BFB073301FB6B
:20742000070193FBFAF291FBFAF04FEA601AB4F90010B4F902000AFB01FCCDF80CC055113C
:20744000378805FB10C207EBA2220FFA82F905FB01F2BB46029277880AFB002107EBA12100
:207460000BB2B4F90410BE460AFB01FC05FB10C20BEBA22216B200E02FE005FB01F7CDE997
:20748000007CB4F90680DDF80CC00AFB007005FB18C1DDF804C0009F05FB18C5029A0AFB98
:2074A000087C0AFB08220BEBA1210EEBAC270EEBA02009B20EEBA2220BEBA5250FFA87FC18
:2074C00000B212B22DB24F46494500E00EE000DA0F46B54216DAA84615E000202080491E46
:2074E0006080A180521EE280BDE8FF9F32882A44228072883A44628032881144A180718829
:2075000008444FE0B046474504DA4F46494506DA0F4604E0B54201DA2F4600E03746278009
:207520004F46494500DD0F46B54201DDA84600E0B046474503DD4D46494505DC01E0B54217
:2075400001DD294600E03146A1809A4201DA154600E01D46844501DA614600E001468D42D0
:2075600005DA9A4201DA114606E0194604E0844501DA614600E0014661809A4201DD114691
:2075800000E01946844501DD654600E00546A94205DD9A4201DD104604E0184602E0844565
:2075A00000DD6046E0809FE72DE9FE4F0446D0F800B0B0F90800E589081AB4F90A10511ACA
:2075C000D4E90932B5F5807F3CD0A589002DA56B05FB00F005FB01F54FEA60104FEA651155
:2075E0003ED0256BE66A05FB00F706FB1177464305FB016003EBA72902EBA02080460612EA
:20760000B4F904004FEA2927B84248DD002F46DBB4F90610B14242DD002E40DB94F83410D3
:207620004A073FD58A0704F114031DD400FB067045004FF0020A0BEB05015246184600F074
:2076400093FE22E0256BE66A05FB00F706FB1177464305FB016003EBA70902EBA000CDE76E
:2076600003EB00095018C9E700FB067000EB40054FF0030A0BEB05010222184600F074FE2E
:20768000E81C584410F8010CA07594F83400C0071ED01948A18A008880B2814218D1002099
:2076A000BDE8FE8F32B204F118002369CDE90102002539B2AA468B4612F096FE0090BDF8B6
:2076C0000000A082DDE90102594612F025FEDBE7E07C78B1A4F83C90A4F83E80A4F84070A6
:2076E000A4F84260656484F848A02046BDE8FE4F00F004B80120D3E7044B03082DE9F04F91
:20770000044690F83C10D0F8009090F83E0087B04FF0FF36702907DAB4F940203546012A55
:2077200000D5002580310DE0902916DDB4F94020B4F904300125521C9A4200DB0025A1F214
:207740007F114942C9B28846702809DAB4F94210012900D50026803010E00025FF21F2E768
:2077600090280DDDB4F94210B4F906200126491C914200DB0026A0F27F104042C7B201E038
:207780000026FF2760690090A07D0590002083468246049094F83400400744D594F8481049
:2077A000606C11FB05014944022201A800F0E8FDA08894F8481010FB01F0616C022206FBC2
:2077C0000011494403A800F0DBFDA18894F8480011FB00F1626C06FB012210FB05901118E3
:2077E000022202A800F0CCFD94F83400800761D594F84800626C10FB052300EB09010B446C
:2078000013F8013C0493A38813FB00F306FB0322114411F801BC10FB0500111801EB0900EE
:2078200010F8010C45E0B4F84000B4F94220284401B204F118008146236912F0D5FD01902F
:20784000B4F84200B4F94010304402B254F8103F484612F0C9FD0390608E2368304402B2F0
:20786000208E284401B2484612F0BEFD029094F82400103C80071DD5B4F9422034F8400F5F
:20788000284401B2484612F047FD04906088B4F90010304402B2484612F03EFD8346608818
:2078A000304402B234F84009284401B2484612F033FD824694F8340042464546800735D520
:2078C000059810FB08F30499C8F1FF0011FB0031C1F307211BFB08F61AFB0060C0F3072034
:2078E00011FB07F3C7F1FF0610FB06331B0AA375022907D8022803D8002007B0BDE8F08F3A
:20790000002702E0022800D8FF270598022800D800220498022800D8FF22BBF1020F00D821
:207920000025BAF1020F03D8FF2501E0FF20A075EAB1FF2A04D0DDE900010FF0BDFE0090A9
:20794000BDB1FF2D17D0DDE902102A460FF0B4FE049097B1FF2F05D001463A4600980FF070
:20796000ABFE0090BDF80000A0820120C5E70198E5E70298ECE70398EAE7BDF81000F3E74D
:207980002DE9F0470446B0F908000A2700026062B4F90A000002A062B4F90C1091FBF7F5AE
:2079A000684200EB800001EB4006684205F1010800B201F073FC8246E84300B201F06EFCC5
:2079C0008146C5F15A0000B201F068FC0546C8F15A0000B201F062FCC6F10A0101FB0AF3AF
:2079E000024609FB0630694390FBF7F002FB061191FBF7F14011E06248112063A07C12F0D2
:207A000007FE94F8341060F3000184F83410A07C12F0EEFD94F8341060F3410184F834104F
:207A2000A07C042824D0052822D0062820D021F0040100BF84F8341021682162A16921F011
:207A4000E00160F30401A08860F39421E08860F35F51A161E0894FF4001101EB5001B1FBAA
:207A6000F0F0A063FF20A075208AA082BDE8F08741F00401DEE700002DE9F0473B4E884668
:207A80008146318821B13A483A4C056800200EE00020BDE8F08700BF00EBC00205EB8203F4
:207AA0001A6AA24201DD521E1A62401C80B28842F2D300241FFA88F721E000BF04EBC40048
:207AC00005EB800001898F4217D14168484612F027FD90B104EBC40005EB80004269016A1C
:207AE00011444FF47A720162914200DD02620028CFD12C460120328811E0641CA4B23088F7
:207B00008442DBD3F5E700BF00EBC00105EB8101266A0B6AB34200DA0C46401C80B29042B2
:207B2000F2D3606810B1204613F06AF81CF0B6F9054642464946204613F0B6F820B1002007
:207B40002062606940B10EE02421204600F056FC4FF0004020629BE728461CF099F96061BE
:207B600008B901206061204693E70000301D0020801D00200100008010B510210C4800F09D
:207B800062F913F04FF8044610F0D2FC50B1002C07D008482060084860600848A0600848A4
:207BA000E06010BD2246002306A010F0DDFCFEE770C9042097A7010859AA0108A1AB0108C4
:207BC00071A701084F7574206F66206D656D6F72790000000021084614F04AB870B50C46B2
:207BE000054600261021204600F008FC2878012804D0022807D0042808D00BE0288C2080A8
:207C0000688C608006E0686A606003E00A2060600020A0816A681AB1214628469047064675
:207C2000304670BD7FB5274CC0686060C168002947D00CF0F5FC606890F85000400740D4C1
:207C4000002569466068FFF7C9FF064660680CF0E7FC256061689DF80E000877012805D069
:207C60000878042808D1BDF80C00D0B11CF016F96168C968C1F87C0162681078012806D0A1
:207C8000022809D004280CD003280FD012E0694610460CF08FFA0DE0694610460CF078F9F4
:207CA00008E0694660680BF03BFF03E0694610460BF066FC60680CF0B3FC002EC1D16560F3
:207CC00025607FBD0C1D00207FB50D46040003D110F046FD040025D02E4EF5B10020ADF818
:207CE0000000ADF80200204610F04CFD401EADF80400204610F0B2FD401EADF806006A4659
:207D0000294602A8FFF700F800280BD0226912B102A920469047002511E0D4F87801304058
:207D2000C4F878017FBD00BF04EBC501002202A85A31FFF711F80028F4D16D1CADB2D4F867
:207D40007801C0F30940A842EED8D4F87801C0F30941202903D204EBC10002A907E03040EC
:207D6000C4F87801C0F3094004EBC00069465A300DF0DCFDD4F878014FF4800101EBB0600F
:207D80004FEAB010C4F878010321E06A1BF0C6FF7FBD0000FFFF00FC70B50C461E4615460B
:207DA000114600F000F9AEB10022294620461CF0F3FD2946204662681CF0E8FD616819B10E
:207DC0002A4620461CF0E8FD6560A068002800D1A56070BD29462046A2681CF0DDFD0022FD
:207DE000294620461CF0D2FDA16819B12A4620461CF0CCFDA56060680028EAD1656070BDB3
:207E0000002100B141680846704700B503460022FFF7F6FF03E01846521C00F004F801003B
:207E2000F9D1104600BD002802D00068091D40587047002801D0006840587047002100B10C
:207E400081680846704700224260C91C21F0030182600160704770B504460068083015F068
:207E6000BBF9050013D00146002220461CF094FD2946204662681CF089FD616819B12A46C6
:207E800020461CF089FD6560A06800B9A560284670BD2DE9F0410D4607002BD055B3FFF72A
:207EA000AFFFA84204D13846FFF7D5FF04461EE03868083015F090F904001BD02946384683
:207EC000FFF7B7FF06460146224638461CF05EFD3246214638461CF05FFD224629463846FC
:207EE0001CF05AFD2A46214638461CF04FFD2046BDE8F0810020FBE770B5044600680830E5
:207F000015F06AF9050013D00146002220461CF03DFD29462046A2681CF03EFDA16819B103
:207F20002A4620461CF032FDA560606800B96560284670BD28B1416809B9806808B1002045
:207F40007047012070472DE9F04116460D460746B14226D01EB11146FFF76BFF01E0FFF709
:207F60006DFF0446A5421CD02946384600F01BF82A46214638461CF009FD224629463846CC
:207F80001CF00AFD2A46314638461CF005FD3246294638461CF0FAFC06B9BD60002C00D11B
:207FA0007D60BDE8F08170B50A460446FFF728FF002390420AD111462046FFF734FF60607C
:207FC000011E01D0002224E0A36070BD2046FFF735FF9042114620460CD1FFF72AFFA06040
:207FE000011E05D02046BDE8704000221CF0CEBC636070BDFFF71DFF064611462046FFF719
:2080000012FF05460246314620461CF0BFFC324629462046BDE870401CF0BEBC10B5904259
:20802000029C01DB204610BD884201DC184610BD521AE41A401A604390FBF2F0184410BDC4
:2080400070B500200D49054601EBC002401CC0B295710228F8D30A4E002400BF56F8340006
:2080600038B115F00DF906EBC40046F8345085718580641CE4B2102CF0D370BDAC1D00206F
:2080800088C904202DE9F041050019D00126102D0BD83049002000BF01EBC0029279D20705
:2080A00011D0401CC0B20228F6D32B4C4FF0FF30002200BF04EBC2018B79DB0709D01AE0ED
:2080C0000020BDE8F08101EBC002967151F83000F7E78988A9420ED305D104EBC200867103
:2080E00054F83200EDE7002804DB04EBC0039B88994200D250B2521CD2B2102ADAD30028A2
:2081000005DB04EBC0018E7154F83000D9E7002704EBC7008079C00709D07F1CFFB2102F93
:20812000F6D3002213460DA010F01EFAFEE754F83700294615F0D2F830B104EBC7018E71F9
:208140008D8044F83700BCE7002213460F4810F00BFAFEE7AC1D002088C904204E6F20669F
:20816000726565206275666665722E20496E637265617365204C565F4D454D5F4255465F16
:208180004D41585F4E554D2E000000009831070810B500210C4B0A4653F83140844209D0BC
:2081A000491CC9B20229F7D3084B002153F83140844203D103EBC100827110BD491CC9B2D1
:2081C0001029F3D310BD0000AC1D002088C90420002803D00449884201D10020704750F872
:2081E000040C400870470000A41D002006490548064A4860016821F0010162F35F01016069
:208200007047000088CA04209C1D0020FC3F010030B500F0030401F003050346A54243D103
:208220004EE00C781C704C785C708C789C70CC78DC700C791C714C795C718C799C71CC79D5
:20824000DC710C7A1C724C7A5C728C7A9C72CC7ADC720C7B1C734C7B5C738C7B9C73CC7B78
:20826000DC730C7C1C744C7C5C748C7C9C74CC7CDC740C7D1C754C7D5C758C7D9C75CC7D38
:20828000DC750C7E1C764C7E5C768C7E9C76CC7EDC760C7F1C774C7F5C778C7F9C77CC7FF8
:2082A000DC772031203A2033202ABAD805E000BF11F8014B03F8014B521E002AF8D130BD01
:2082C0004CB3C4F1040405E011F8015B521E03F8015B641EFCB1002AF6D11CE010C9203A82
:2082E00010C310C910C351F8084B43F8084B51F8044C43F8044C51F8104B43F8104B51F82E
:208300000C4C43F80C4C51F8084C43F8084C51F8044C43F8044C202AE0D802E010C9121F34
:2083200010C3042AFAD804E011F8014B03F8014B521E002AF8D130BD10B5034605E000BFE8
:2083400011F8014B03F8014B521E002AF8D110BD10B5034605E000BF11F8014B03F8014B03
:20836000521E002AF8D110BD10B5034605E000BF11F8014B03F8014B521E002AF8D110BD4F
:2083800010B5034605E000BF11F8014B03F8014B521E002AF8D110BD10F0030309D0C3F1CC
:2083A000040303E0521E00F8011B5B1E0BB1002AF8D101EB012303EB014303EB01630EE0A5
:2083C00008C0203A08C040F8083B40F8043C40F8103B40F80C3C40F8083C40F8043C202A7F
:2083E000EED801E008C0121F042AFBD803E000BF00F8011B521E002AFAD1704710F0030304
:208400004FF0000219D0C3F1040303E0491E00F8012B5B1E8BB10029F8D1704704C020398E
:2084200004C040F8082B40F8042C40F8102B40F80C2C40F8082C40F8042C2029EED801E0FE
:2084400004C0091F0429FBD803E000BF00F8012B491E0029FAD1704710F003024FF0FF0312
:208460000AD0C2F1040203E0491E00F8013B521E12B10029F8D170474FF0FF320EE004C0ED
:20848000203904C040F8082B40F8042C40F8102B40F80C2C40F8082C40F8042C2029EED826
:2084A00001E004C0091F0429FBD802E000F8013B491E0029FAD1704770B50D4606460024DF
:2084C0002146304615F078FF38B18168641C65F3CB21E4B28160402CF2D3402421463046C4
:2084E00015F06AFF002807D08168641C65F3CB21E4B28160FF2CF1D370BD00002DE9F04782
:2085000086B014468A461646170A05464FF0000823E05146284615F04FFF814651462846C5
:2085200015F0CEFE06EB002084B202AA2146484600F04AFB012807D0380610D5BAF1000F70
:2085400007D04FF0000A08E0BDF8080006B0BDE8F087284615F072FE0546002DD9D124F467
:20856000FE40292804D02A2802D0CDF8008002E0024800680090BDF80000E7E7004B030832
:208580002DE9F8431546894617464FEA12280646A5E04946304615F00FFF0446806801056F
:2085A00070D481066ED0400505D425F4FE424946304629F005FB25F4FE40302859D024DC45
:2085C000112869D010DC052850D006DC01285DD0022845D004286CD148E0062846D0072875
:2085E00044D0102865D157E0162858D006DC122852D0132850D015285BD150E017284ED0CD
:2086000018284CD0202854D14CE060284AD010DC402838D006DC31282ED0322842D0332867
:2086200047D12CE042283DD0502832D0542840D138E048F28102811A904214D009DC7228F3
:2086400030D091282ED000F5FF40B0F5803F30D109E0012929D0022924D01F2929D121E05C
:208660002089400423E0A068800020E0208900041DE0A06880021AE0A068400217E0A0680B
:20868000000214E015E0A068C00110E02089C0040DE0A06840010AE0A068C00307E0A068EF
:2086A000800304E0A068400301E0A0684000002818DB4946304615F003FE07EB002085B270
:2086C0006A462946204600F0CFFA012814D05FEA086007D5B9F1000F12D04FF00009002EB1
:2086E0007FF457AF25F4FE40222819D00CDC032812D007280CD115E0BDF90000BDE8F883AB
:20870000304615F09BFD42E7312803D0C02805D00020F3E70F20F1E70520EFE70C20EDE738
:20872000FF20EBE74FF48070E8E72DE9F8431446894617464FEA122806463BE04946304690
:2087400015F03AFE0546806801051DD481061BD0400505D424F4FE424946304629F030FA82
:2087600024F4FE402C2809D00C38B0F5004002D0A12809D12DE02889800403E0A868C102E0
:2087800024D40003002817DB4946304615F098FD07EB002084B26A462146284600F0B4FABA
:2087A000012819D05FEA086006D5B9F1000F16D04FF00009002EC1D124F4FE402C2812D0E8
:2087C0006D2810D0AD38B0F5004F0CD0FF20BDE8F883A868C000D5E79DF80000F7E73046BB
:2087E00015F02CFDA8E70020F1E700002DE9F8431446894617464FEA122806463BE0494684
:20880000304615F0D9FD0546806801051DD481061BD0400505D424F4FE424946304629F0D7
:20882000CFF924F4FE406E2809D07F2804D08E38B0F5004F09D105E0A868000103E0A868B3
:20884000800100E0A868002817DB4946304615F037FD07EB002084B26A462146284600F092
:20886000A3FA012816D05FEA086006D5B9F1000F12D04FF00009002EC1D124F4FE407E2821
:208880000ED0BE280FD08E38B0F5004F08D00020BDE8F8830098FBE7304615F0CFFCACE710
:2088A0001BF086FAF4E70148F2E700005C8003082DE9F0411F4614460D46064615F07CFD26
:2088C0003A46214600F094FB002322462946304629F038F924F4FE4229463046BDE8F04165
:2088E00016F0E2BA2DE9F0411F4614460D46064615F062FD3A46214600F09AFB00232246D6
:208900002946304629F01EF924F4FE4229463046BDE8F04116F0C8BA0148406870470000FF
:20892000201D0020704730B504020020831803FB03F5A54200D818465208F7D10209000736
:208940000A80000E488030BD70B5164605460AF027FB040002D54FF0FF3070BD2968A01C1F
:20896000014402223046FFF7F3FC214628460AF067FB00F07F0070BD70B5164605460AF0A0
:208980000FFB040002D54FF0FF3070BD2968A01C014402223046FFF7DBFC214628460AF08F
:2089A0004FFB00F07F0070BD70B505460FF0C4FD20B14DB1286838B100240AE02A460023B8
:2089C00008A00FF0D1FDFEE7002070BD0AF0D9FA0444214628460AF038FBFF28F6D1A41C2B
:2089E000A0B270BD496E76616C6964207374796C6500000070B5164605460AF0D1FA04004B
:208A000002D54FF0FF3070BD2968A01C014401223046FFF79DFC214628460AF011FB00F05F
:208A20007F0070BD70B5164605460AF0B9FA040002D54FF0FF3070BD2968A01C01440422E3
:208A40003046FFF785FC214628460AF0F9FA00F07F0070BD70B50E4605460FF079FD18B3C7
:208A600030460FF069FD28B3002D48D03146284600F002FAA868810622D08006010E091DE6
:208A8000286814F02BFC04460FF052FDE0B1002C35D0A96800200A0600D501204A0600D565
:208AA000401C01F03F011DE02A46002314A00FF05BFDFEE73246002316A00FF055FDFEE722
:208AC000042014F089FBDEE72246002315A00FF04BFDFEE704EB810252F8042C44F8212050
:208AE000491EC9B28142F5D844F82060A8684FF0806101EBB0104FEAB0602C60A86070BD62
:208B0000496E76616C6964207374796C65206C6973740000496E76616C6964207374796CAE
:208B2000650000004F7574206F66206D656D6F727900000070B504460FF00AFD38B1207AF2
:208B400000060AD52046BDE8704000F079B92246002314A00FF008FDFEE7082014F03CFBC8
:208B600005460FF0E5FCA8B1D5B1284619F0C2FB29462046FFF76EFFA06840F08000A060C7
:208B8000400605D52068D0E90012026020684160284670BD2A46002307A00FF0E5FCFEE73D
:208BA000002070BD496E76616C6964207374796C65206C69737400004F7574206F66206DBA
:208BC000656D6F72790000002DE9F8431746894605460FF0BDFC002150B1BDB3286800289F
:208BE00032D04C1E4FEA1928ADF80010002623E02A46002317A00FF0B7FCFEE7F1B22846BF
:208C000019F034FC6A464946FFF79EFE404503D1BDF80000388016E0A9680A0604D500286C
:208C200002DB0EB9C905F3D5A04203DD0446BDF800003880761C36B2287A00F03F00B04244
:208C4000DCDC002C03DB0120BDE8F883FFE70020FAE70000496E76616C6964207374796C77
:208C600065206C69737400002DE9F8431746894605460FF06DFC002150B1BDB32868002839
:208C800032D04C1E4FEA1928ADF80010002623E02A46002317A00FF067FCFEE7F1B228466E
:208CA00019F0E4FB6A464946FFF766FE404503D1BDF80000388016E0A9680A0604D5002855
:208CC00002DB0EB9C905F3D5A04203DD0446BDF800003880761C36B2287A00F03F00B042A4
:208CE000DCDC002C03DB0120BDE8F883FFE70020FAE70000496E76616C6964207374796CD7
:208D000065206C69737400002DE9F8431746894605460FF01DFC002150B1BDB328680028E8
:208D200032D04C1E4FEA19288DF80010002623E02A46002317A00FF017FCFEE7F1B228463D
:208D400019F094FB6A464946FFF754FE404503D19DF80000387016E0A9680A0604D5002846
:208D600002DB0EB9C905F3D5A04203DD04469DF800003870761C36B2287A00F03F00B04233
:208D8000DCDC002C03DB0120BDE8F883FFE70020FAE70000496E76616C6964207374796C36
:208DA00065206C69737400002DE9F8431746894605460FF0CDFB48B1A5B3286800282FD0DB
:208DC0004FEA19284FF0FF34002621E02A46002316A00FF0C9FBFEE7F1B2284619F046FB34
:208DE0006A464946FFF71EFE404502D10098386015E0A9680A0604D5002802DB0EB9C90511
:208E0000F4D5A04202DD044600983860761C36B2287A00F03F00B042DEDC002C03DB01202C
:208E2000BDE8F883FFE70020FAE70000496E76616C6964207374796C65206C697374000037
:208E400010B502460FF084FB20B1107A000606D4002010BD002303A00FF086FBFEE71068BC
:208E6000006810BD496E76616C6964207374796C65206C697374000070B50E4604460FF007
:208E800067FB002550B130460FF056FB60B1A168880627D0002001F03F0121E02246002308
:208EA00027A00FF061FBFEE73246002329A00FF05BFBFEE7226852F82020B2420ED10129FC
:208EC00011D08800001F14F087F905460FF030FB90B1002D06D0002001461EE0401CC0B29A
:208EE0008142E7D870BD206814F0CAF92560A06820F07F00A06070BD2A46002319A00FF0E0
:208F000033FBFEE7226852F82020B24203D045F82120491CC9B2401CC0B2227A02F03F0268
:208F20008242EFD8206814F0ABF9A0684FF07C4101EBB0104FEAB0602560A06070BD0000CB
:208F4000496E76616C6964207374796C65206C6973740000496E76616C6964207374796C6A
:208F6000650000004F7574206F66206D656D6F727900000070B504460FF0EAFA002638B343
:208F8000002C24D0207A400609D5204619F04EFA050004D019F0B3FA284614F071F9207A37
:208FA000000609D52046FFF74BFF050004D019F0A6FA284614F064F9207A800602D020685C
:208FC00014F05EF92660A0686FF30800A06070BD2246002301A00FF0C7FAFEE7496E7661B2
:208FE0006C6964207374796C65206C697374000070B514460D4603460FF0AAFA40B11846FE
:2090000009F0BAFC22462946BDE8704000F030B81A46002301A00FF0A7FAFEE7496E766166
:209020006C6964207374796C65206C697374000070B514460D4603460FF08AFA40B11846DD
:2090400009F09AFC22462946BDE8704000F0D6B81A46002301A00FF087FAFEE7496E7661C0
:209060006C6964207374796C65206C697374000037B582B00546BDF80C1009F091FF0400C3
:2090800011D40146284609F0DBFFBDF80C1000F07F00C1F30621884205D1A41C2868022234
:2090A000204404A922E0FF20ADF800002846FFF77BFC00B90220001D84B22146284620F0EB
:2090C000B4FE002814D028680222204403A9801FFFF73EF928680222204404A9001FFFF768
:2090E00037F92868022220446946801EFFF730F905B030BD37B582B00546BDF80C1009F0E7
:209100004FFF040011D40146284609F099FFBDF80C1000F07F00C1F30621884205D1A41C57
:2091200028680222204404A922E0FF20ADF800002846FFF739FC00B90220001D84B2214676
:20914000284620F072FE002814D028680222204403A9801FFFF7FCF828680222204404A903
:20916000001FFFF7F5F82868022220446946801EFFF7EEF805B030BD37B582B00546BDF8EC
:209180000C1009F00DFF040011D40146284609F057FFBDF80C1000F07F00C1F306218842DC
:2091A00005D1A41C28680122204404A922E0FF20ADF800002846FFF7F7FB00B90220C01C82
:2091C00084B22146284620F030FE002814D028680222204403A9401FFFF7BAF828680122BC
:2091E000204404A9C01EFFF7B3F82868022220446946801EFFF7ACF805B030BD37B582B020
:209200000546BDF80C1009F0CBFE040011D40146284609F015FFBDF80C1000F07F00C1F3D1
:209220000621884205D1A41C28680422204404A922E0FF20ADF800002846FFF7B5FB00B94D
:209240000220801D84B22146284620F0EEFD002814D028680222204403A90838FFF778F8D3
:2092600028680422204404A9801FFFF771F82868022220446946801EFFF76AF805B030BDCA
:2092800010B518210348FEF7DEFD03490120087010BD00001CC90420BC1D00204FF4B47199
:2092A00090FBF1F201FB1200002802DA00F5B47000B20E495A2802DA31F910007047A0F12C
:2092C0005A025A2A03D2C0F1B40000B2F4E7A0F1B4025A2A01D210B202E0C0F5B47000B21A
:2092E00031F81000404200B270470000788003082DE9F04788B01D46109E92468946040006
:2093000007D0B9F1000F04D016F0120F10D0002004E0002008B0BDE8F087401C215C0A29DE
:2093200004D00D2902D00029F7D1F3E7401CF1E7B00701D547F618454FF000088DF81480CB
:20934000204FCDF8108021E00498CDF8188028B3002105AB06AACDE90231CDE9006220448E
:209360002B46524649461AF09BFD0699691A0DB2B0B104990844049021780A290BD00D2917
:2093800009D0205C0A2812D00D2810D00498205C08B1002DD8DC049868B110E00121D8E717
:2093A000049860B97A6804A920469047F3E70498401C0490EFE77A6804A920469047049888
:2093C000A8E70000CC1D00202DE9FF4F83B004464FF00000DDF848A0DDF8409020809346FA
:2093E0000F00608047D0BBF1000F44D05FEA8A7002D547F6184011900025A846BBF808601A
:2094000023E07819CDE900A05946119B069AFFF76FFF8044B4F9020006EB09010144B1F5BA
:20942000004F28D2304448446080A8EB0501CDF800A05A46069B019800F022F8B4F9001064
:20944000814200DB084620804546785D0028D8D15DB1781910F8010C0A2801D00D2804D18E
:20946000618806EB090008446080B4F9020028B1A0EB0900608007B0BDE8F08F6680FAE73F
:209480002DE9FC5F1F46DDF830A091460E4605000CD0B9F1000F09D02878002807D00020F4
:2094A000044600908DF804002EBB2BE00020BDE8FC9FDFF8548069462846D8F80420904762
:2094C00083460098D8F8042028440021904780465FEACA7004D0594601A800F017F850B966
:2094E00042465946484610F0D3FD00B2002802DD2044384404B20098B042DAD3002C01DD57
:20950000E01B04B22046D2E7CC1D002000230278232902D0012A0DD00FE02AB10021012A99
:2095200004D0022A04D008E0012101E0017004E0017001E0202902D001231846704702214E
:20954000F6E700002DE9F0471E4614460D468246DDF8209015E000BF4FEA540808FB0657DA
:20956000394650464A469047002808DD44F30000C0EB540407EB0605A4F1010401E005DAD1
:209580004446002CE8D12046BDE8F0873846FBE72DE9FC5F9B460CAB8A468146DDE91160A3
:2095A00093E81210DDE90F575FEA80784FF030031AD45EB15FEAC07808D000F00C0858EA93
:2095C0000C0803D0761E01E00B55641CBC4204D2202CF9D301E00B55641C5FEAC07803D04E
:2095E000B44201D2202CF6D35FEAC06825D55FEA40580AD44CB1BC4201D0B44205D1641E49
:2096000003D0102D03D1641E04E0102D02D0022D0AD00EE0850603D4202C1ED2782506E0D9
:20962000202C1AD2582502E0202C16D262250D55641C202C11D20B55641C202C0DD2BCF10F
:20964000000F01D02D2306E0430701D52B2302E0030702D520230B55641CCDE900BAC84622
:20966000154681468B46AA46800714D1274607E02A46DDE900316D1C2020C446E0477F1C4B
:20968000B742F5D307E02A466D1C641EDDE900311BF80400C047002CF5D15FEA897006D484
:2096A00009E02A46DDE900316D1C2020C047A5EB0A00B042F5D32846BDE8FC9F2DE9F04F33
:2096C0008FB099468B46DDE91818DDE91C63DDE91A4792468646002209B923F0100358052E
:2096E00007AD00D5C9B1B1FBF4F004FB1010C0B20A2801D2303009E05FEA836C02D54FF0AA
:20970000410C01E04FF0610C60440A38B1FBF4F1A854521C09B1202AE5D3CDF80880CDE9CF
:209720000563CDE90052CDE903474B46524659467046FFF72DFF0FB0BDE8F08F2DE9FF4FD2
:209740008FB01CACDDE9239594E8030820AC94E8C004002450EA010201D125F010056A0525
:209760000DF11C0802D550EA010217D032463B46FAF798FDD2B20A2A01D2303206E0AB06C9
:2097800001D5412300E061231A440A3A08F80420641C50EA010201D0202CE7D3CDE9008497
:2097A000CDF808B0CDE90595CDE9036A0FAF97E80F00FFF7EDFE13B0BDE8F08F9A4200D2F7
:2097C00088547047704700002DE9FF4F95B09B468946064600250FE2252877D1002427465E
:2097E000F84A0121059400E0044316F8013F203B01FA03F01042F7D130782A2811D06FF05A
:209800002F033078A0F13002092A16D8059A44F0020402EB820203EB42021044761C059093
:20982000EFE759F8042B0592002A03DA504244F40054059044F00204761C30782E2816D1D0
:2098400016F8010F44F004042A280DD06FF02F023078A0F13003092B09D807EB870302EB05
:209860004303C718761CF3E759F8047B761C30786C280FD006DC4C2817D068280DD06A289E
:2098800014D104E0742810D07A280FD10DE044F400140AE044F4801401E044F440147278BB
:2098A000824202D104F58014761C761C307866280BD013DC582877D009DC002875D04528DA
:2098C000F6D04628F4D047281AD19DE118E0632835D0642879D0652812D195E1702873D09A
:2098E00008DC6728F1D069286FD06E280DD06F2806D1B5E073282CD0752875D0782874D091
:209900005A46179990476D1C75E1C4F30250022809D003280DD0D9F8001004280DD00D60D6
:2099200009F1040967E1D9F80010EA17C1E90052F6E7D9F800100D80F2E70D70F0E719F871
:20994000041B8DF8001000208DF80100EA46012003E059F804AB4FF0FF3061074FF0000163
:2099600002D40DE008F101018846B9420FDA8045F8DB1AF808100029F4D108E008F10101E4
:2099800088468142FADB1AF808100029F6D105985B46A0EB080721463846179A00F094FA5B
:2099A000284400EB080507E04DE029E10DE01AF8010B5A4617999047B8F10108F7D25B46D7
:2099C00021463846179A13E142E00A220092C4F302524FF0000A022A08D059F804CB032A78
:2099E0004FEAEC710AD00DE029E02AE009F1070121F00702F2E802C1914609E00FFA8CFCED
:209A00004FEAEC71042A03D14FFA8CFC4FEAEC71002907DA0A460021DCF1000C61EB0201A4
:209A20002D2202E0220504D52B228DF80420012203E0E20701D02022F7E7904659E00A21E5
:209A400002E010220DE010214FF0000A00910BE010224FF0000A44F004040827009203E0B4
:209A600008224FF0000A0092C4F30252022A05D059F804CB0021032A08D009E009F10701A4
:209A800021F00702F2E802C1914605E01FFA8CFC042A01D10CF0FF0C4FF00008220728D53E
:209AA000702806D0009B83F0100353EA0A0305D00EE040228DF80420012208E05CEA0102AB
