S0220000687474703A2F2F737265636F72642E736F75726365666F7267652E6E65742F1D
S309080040000000270087
S319080040EC0800000008003FFF080040000B066904010200009B
S3250800420088600420814400086D630008F95F0008AD620008E7540008997400080000000010
S32508004220000000000000000000000000C143000879570008000000001D4400082168000892
S325080042409B4400089B4400089B4400089B4400089B4400089B440008195800089B44000886
S325080042609B4400089B4400089B4400089B4400089B4400089B4400089B4400089B440008F8
S325080042809B4400089B4400089B4400089B4400089B4400089B4400089B4400089B440008D8
S325080042A09B4400089B4400089B4400089B440008996800089B440008056900089B44000807
S325080042C09B4400089B4400089B4400089B4400089B4400089B4400089B4400085D730008A7
S325080042E09B4400089B4400089B4400089B4400089B4400089B4400089B4400089B44000878
S325080043009B4400089B4400089B4400089B4400089B4400089B4400085D6900089B44000870
S325080043209B4400089B4400089B4400089B4400089B4400089B4400089B4400089B44000837
S32508004340E95400089B4400089B4400089B4400089B4400089B4400089B4400089B440008B9
S325080043609B4400089B4400089B4400089B4400089B4400089B4400089B44000800000000DE
S325080043809B4400089B4400089B4400089B4400089B4400089B4400089B44000800000000BE
S325080043A09B4400089B440008B9600008DFF80CD000F0FCFC00480047D16802088860042087
S325080043C02C4B19680868B0E8F04F80F30988BFF36F8F4FF0000080F31188704700000000DA
S325080043E008480068006880F308884FF0000080F3148862B661B6BFF34F8FBFF36F8F00DFF0
S3250800440000BF00BF08ED00E0DFF80C00016841F470010160704700BF88ED00E0EFF30980B2
S32508004420BFF36F8F134B1A681EF0100F08BF20ED108A20E9F04F106009B44FF0500080F3CC
S325080044401188BFF34F8FBFF36F8F43F0D3FA4FF0000080F3118809BC19680868B0E8F04F9D
S325080044601EF0100F08BFB0EC108A80F30988BFF36F8F7047E0210020EFF30580704700005A
S325080044800648804706480047FEE7FEE7FEE7FEE7FEE7FEE7FEE7FEE7FEE7FEE739680008C9
S325080044A0AD4300082DE9F05F0546002092469B4688460646814640241BE0284641464746AB
S325080044C0224600F0A1FA53465A46C01A914110D311461846224600F088FA2D1A67EB0108E2
S325080044E04F4622460120002100F07FFA17EB00094E41201EA4F10104DFDC484631462A4664
S325080045004346BDE8F09FA0F16101192900D8203870470000014610B509683C22B1FBF2F348
S3250800452002FB1313B1FBF2F11D480360B1FBF2F302FB1313B1FBF2F118224360B1FBF2F342
S3250800454002FB1313B1FBF2F183600A1D0723B2FBF3F403FB142282618A0040F2B55102F602
S325080045606C32B2FBF1F344334361B2FBF1F301FB13218908C1613B2903D3027D920700D04D
S32508004580491C0022074C13460261E25C8A4203D8891A5B1C0361F8E7491CC16010BD0000E2
S325080045A05C40042044C40C0810B5431A934209D28318881803E010F8011D03F8011D521E72
S325080045C0F9D210BD40EA01039B0703D009E008C9121F08C0042AFAD203E011F8013B00F8C5
S325080045E0013B521EF9D210BDD2B201E000F8012B491EFBD270470022F6E710B513460A4688
S3250800460004461946FFF7F0FF204610BD421E12F8013F002BFBD111F8013B02F8013B002B84
S32508004620F9D1704730B505462A460B4612F8010B13F8014B08B1A042F8D01CB1002802D063
S325080046406D1CF1E7284630BD10B5044604E00B7800F8013B03B1491C521EF8D2204610BD60
S32508004660421C10F8011B0029FBD1801A704710B5002200E0521C835C8C5CA34201D1002B86
S32508004680F8D1D8B2E1B2401A10BD30B504460020034600E05B1C934203D2E05CCD5C401BA6
S325080046A0F8D030BD10B5044600E0401C0378002BFBD100E0401C521E04D311F8013B03703F
S325080046C0002BF7D100210170204610BD034611F8012B00F8012B002AF9D11846704770B544
S325080046E0064602F00FFF046805460A220021304600F028FA2C6070BD2DE9FE4F804681EA87
S325080047000300C00F0C46009021F0004123F00045B8EB0200A94105D24046214690461C46A2
S325080047200B46024623F00040104347D0270DC7F30A00C3F30A510290401A019040286BDAE2
S32508004740C3F3130040F4801B0098924620B10023D2EB030A63EB0B0B01985946C0F14002F6
S32508004760504600F042F906460D4650465946019A00F05AF910EB08006141002487EA11521B
S3250800478084EAE7731A4340D0009A62B3019A012A4FEA075215DC001B61EB02014FF00042F3
S325080047A002EA0752CDE90042001C41F5801132462B4600F00EFA03B0BDE8F08F4046214626
S325080047C0F9E7001B61EB0201001C41F5801300185B412018A2F5001747EB030140EAD5705D
S325080047E0B6196D4111E06D084FEA360645EAC0754FEA0752001B61EB0201001C41F5801110
S3250800480049084FEA30000019514132462B4603B0BDE8F04F00F0CEB9009801224000002310
S32508004820D0EB020263EBE073009821464FEAE074B8EB000061EB0401E9E783F000435BE7C2
S3250800484081F0004158E72DE9FE4F81EA030404F0004421F0004100944FF0000B23F00043C6
S3250800486050EA01045ED052EA03045BD0C3F30A54C1F30A552C44A4F2F3340194A0FB025475
S32508004880C1F3130141F48011C3F3130343F4801301FB024400FB034E840A970A44EA815426
S325080048A047EA8357A4FB076802958D0A05FB07854FEA932C04FB0C542705029D4FEA06585E
S325080048C047EA1637B5EB08056EEB070C870E920E47EA811742EA8312A7FB0201B6EB0B0122
S325080048E064EB00042B0D43EA0C335E1844EB1C50DA465146E7FB0201C5F313044FEA0B33C0
S3250800490043EA14534FEA0432019C43EA0603A4F10C040294009CCDE900B400F05AF903B07C
S32508004920BDE8F08F00200146F9E70EB5C10F80EAE0700844CA07002140F233438DE80E0048
S325080049400A460B4600F045F903B000BD0EB540F2334102910021CDE900110A460B4600F095
S3250800496038F903B000BDC1F30A5210B5C1F3130140F2FF3341F480119A4201DA002010BD1D
S3250800498040F233439A42A2F2334203DC524200F03BF810BD904010BD00F0004230F00040EA
S325080049A00AD0C10D01F56071C0F3160042EA0151C20840071143704700200146704730B514
S325080049C00B46014600202022012409E021FA02F59D4205D303FA02F5491B04FA02F528443F
S325080049E0151EA2F10102F1DC30BD202A04DB203A00FA02F1002070479140C2F1200320FA1E
S32508004A0003F3194390407047202A04DB203A21FA02F00021704721FA02F3D040C2F1200252
S32508004A209140084319467047202A06DBCB17203A41FA02F043EAE07306E041FA02F3D040FC
S32508004A40C2F1200291400843194670473A2800D2303820F02002412A01D3A2F137008842A0
S32508004A6001D34FF0FF307047426842B1016811F8013B23B1521EC0E90012184670470121AE
S32508004A80C160881E704742685AB1C368016843B983688B4205D0491E521CC0E90012002008
S32508004AA070474FF0FF3070470FB4002300B589B00CA900910B996FF00042CB601E4B069380
S32508004AC01E4B07930423CDE901321D4A089202466B46002000F01EFA09B05DF814FB70B551
S32508004AE086B006464FF0FF300091CDE90101002015460C4604903246694604A8FFF7D4FF72
S32508004B0002460498211825B108B1084600E020462860049800280DD0002A02DD00988842B3
S32508004B2008D0081B0094CDE901043246694604A8FFF7BAFF06B070BD694A0008874A000824
S32508004B40D94D00082DE9F04791460F4680460446002614F8015B2DB100F03AF90068405DFC
S32508004B60C007F6D12B2D02D02D2D18D0641E4A463946204600F0EAFA27B13968A14201D134
S32508004B80C7F8008071054FF002040BD54042002803DD02F0B7FC0460A007BDE8F08746F49D
S32508004BA08066E4E70028F8DA02F0ACFC04606FF00040F2E710B5141E73F1000408DA401C29
S32508004BC041F1000192185B411A4301D120F0010010BD2DE9F04D92469B4611B1B1FA81F255
S32508004BE002E0B0FA80F220329046FFF7FEFE04460F4640EA0A0041EA0B0153465A46084301
S32508004C0013D0114653EA010019D0C8F140025046FFF7FAFE05460E46504659464246FFF754
S32508004C20E4FE084305D0012004E020463946BDE8F08D0020054346EAE0762C4337430A98DF
S32508004C406305E40AA0EB08000022FD0A44EA47540A3002D500200146E9E70105101969414A
S32508004C60DDE9084500196941BDE8F04DA2E72DE9F04D81EA030404F0004B21F00045144631
S32508004C804FF0000A23F0004150EA050220D054EA01021DD0C5F30A570246C5F31303C1F327
S32508004CA01300C1F30A5640F4801543F48013A7EB0608101BD64608F2FD3873EB050002D3DE
S32508004CC008F1010801E092185B41B8F1000F03DA00200146BDE8F08D00204FF4801106463F
S32508004CE084460EE0171B73EB050705D3121B63EB050306434CEA010C49084FEA3000921807
S32508004D005B4150EA0107EDD152EA030012D082EA040083EA0501084305D0101BAB4106D2D6
S32508004D200122002306E000224FF0004302E06FF0010253101AEB06004CEB085110EB0A004E
S32508004D4041EB0B01BDE8F04DFFF734BFC1F30A52C1F3130140F2FF3341F480119A4202DA88
S32508004D6000200146704740F233439A42A2F2334202DC5242FFF748BEFFF737BE30B5041E1A
S32508004D8071F1000404DB4FF00044404264EB0101141E73F1000405DB1C464FF00043524278
S32508004DA063EB0403994208BF904230BD064C074D06E0E06840F0010394E807009847103481
S32508004DC0AC42F6D3FFF7F6FADCE40C08FCE40C0800487047D4C40C0810B50446FFF7F8FFB9
S32508004DE00068005D00F0010010BD00002DE9FF4F087883B09946FF2805D0491C2D2804D0A2
S32508004E000024002008E000200BE00124F9E700EB800003EB4000491C0B78FF2BF7D104B120
S32508004E20404200230293147819461D462D2C01D02B2C04D1521C2D2C13D000240294AA4632
S32508004E401478FF2C0FD00A25A3FB057801FB05814FF0000C03FB0C11521CE3194AEB0101DB
S32508004E60EEE70124EAE7814453EA010002D019F5C87F06DA03980021C0E9001107B0BDE87D
S32508004E80F08F0025AE4E2F46DFF8B882184600F0ACF9CDE90001B9F1000002DAC9F10004F0
S32508004EA000E004460023A74A1AEB030B42EB045A12E0E00707D02A46334638464146FFF774
S32508004EC0C2FC074688462A46334610461946FFF7BAFC05460E466410002CEAD1DDE90001E0
S32508004EE0B9F1000F5A46534606DAFFF7C0FE3A464346FFF7BCFE05E0FFF7A5FC3A464346E0
S32508004F00FFF7A1FC029A0AB181F00041039AC2E90001B3E72DE9FF4F1F468DB0D7E90146F7
S32508004F204FF0FF382E2045464FF000090B90B9696D1C0E988847396A824688470028F6D1E8
S32508004F40BAF1FF3F0AD024F4D064002E11DDBAF12B0F08D0BAF12D0F0BD102E0404611B06F
S32508004F608DE744F48064B9696D1C0E9888478246761E6946600501D52D2000E02B208DF830
S32508004F80000001F1010B0DF1200809E0B9696D1C0E98884782460F9844F40074761E0560C2
S32508004FA0002E02DDBAF1300FF0D00B998A453ED144F0800406E00F99681CA9F1010944F404
S32508004FC000740860B9696D1C761E0E98884782463028F0D02BE00B998A4505D1200603D402
S32508004FE044F08004761E18E0504602F08BFB08B30DF11301761E44F400748B4508D2AAF1FF
S3250800500030000BF8010B200607D5A9F1010003E0200602D409F101008146A00502D50F99E1
S32508005020681C0860B9696D1C0E9888478246002ED1DC53E0002E51DDBAF1650F02D0BAF188
S32508005040450F4BD1A00549D5B9696D1C24F44074761E0E9888478246002E0CDD2B2804D089
S32508005060BAF12D0F07D144F48074B9696D1C0E9888478246761EE00501D52D2100E02B2186
S3250800508008F8011BCDF82C8021E00DF12901761E44F4007488450CD2AAF1300010F0FF0097
S325080050A088F8000002D10B99884509D908F1010806E0E00501D5244801E042F20F708146D2
S325080050C0B9696D1C0E98884782460F980560002E04DD504602F016FB0028D6D1F9690E984F
S325080050E08847FF208BF8000088F800000020069007904B466A4608A906A8FFF777FEA005B4
S3250800510002D46FF001002AE714F0240F0AD0E00714D1DDE906123868031D3B600068C0E913
S3250800512000120BE0DDE9060100F06BF80146E00704D13868021D3A600068016028460EE7BC
S32508005140000014400000F03FF1D8FFFF2DE9F05F82460078002715468B460AF10104B94600
S32508005160302801D09DB113E014F8010B0127782803D0582801D045B10AE00DB1102D07D100
S325080051800027102514F8010B02E0082500E00A250026B0460EE005FB080005FB06F101273E
S325080051A001EB10461FFA80F8B6F5803F00D3B94614F8010B2946FFF749FC0028EBDABBF177
S325080051C0000F05D00FB1641E00E05446CBF80040B9F1000F06D002F095F902210160C81EA5
S325080051E0BDE8F09F48EA0640FAE70EB540F2334202920022CDE900221346FFF7EAFC03B034
S3250800520000BD01F0004330B421F0004150EA010206D00A0DA2F56072C1F31301002A02DCF6
S3250800522030BC00207047440F44EAC104C100E01830BC00EBC250AFF300800029A8BF70474C
S32508005240401C490008BF20F00100704710B4B0FA80FC00FA0CF050EA010404BF10BC7047A7
S3250800526049B1CCF1200421FA04F411FA0CF118BF012121430843A3EB0C01CB1D4FEA006165
S325080052804FEA102042BF002010BC704700EBC35010440029A4BF10BC7047401C490008BF26
S325080052A020F0010010BC704770B58C1810F8015B15F0070301D110F8013B2A1106D110F8E0
S325080052C0012B03E010F8016B01F8016B5B1EF9D12B0705D40023521E0DD401F8013BFAE700
S325080052E010F8013BCB1A921C03E013F8015B01F8015B521EF9D5A142D8D3002070BD000011
S32508005300026809480949036891F901009A4201D1401E04E0064B1B689A4204D1401C4870F3
S3250800532002483BF087BE7047440D0020E82400204C0D002030B541784FF056040D07124932
S325080053404FF030024FF02E030C70047802EB14144C708B70037803F00F0303F13003CB70B8
S325080053600BD0437802EB13120A71407800F00F000A2801D33730487130BD407802EB10106D
S3250800538008710020F7E70000F82A00203EB50D4C206814F0F5FF81B2012013F075FE002090
S325080053A0009001900290206814F0EAFF024606A306A1684602F092F80648694600681AF086
S325080053C0A7FF3EBD401400202500000025642573000000004814002038B50D4900680968CC
S325080053E0884214D10B4C052060700020A07002206071032020712069009094E80F003AF0FF
S3250800540099FD2069009094E80F003EF07BFD38BD340D0020E824002038B51D4900681D4CF8
S325080054200968884201D1002104E01B490968884204D1012117483AF049FD0FE01749096827
S32508005440884203D016490968884207D12079002503280AD0A570E570032020712069009035
S3250800546094E80F003AF066FD38BD6570A5700120E570207101460B4800681BF0D7FA0A48F0
S32508005480002300951A46194600681FF0ADFDE5E7F00E0020E8240020F80E0020E40E002018
S325080054A0E80E0020D40E0020500C002008B50B4A0068002152F82130984209D1084881701F
S325080054C004210171016900910FC83AF033FD08BD491CC9B20829EDD308BD0000CC22002092
S325080054E0E82400207047FEE704F044BD7CB50646FF200D468DF800008DF80400002405E0DB
S32508005500305D01AA694609F0DFFF641CAC42F7DB9DF804009DF8001040EA01207CBD7CB58C
S325080055200646100A0D468DF800008DF80420002405E0305D01AA694609F0C6FF641CAC425A
S32508005540F7DB9DF804009DF8001040EA01207CBD08B50B4900680968884202D102210020DF
S3250800556005E008490968884209D1022101203BF019FD0548016900910FC83BF0ADF908BD98
S32508005580D80D0020E00D0020E8240020F8B51C4900680325096802261A4C884204D111F07E
S325080055A0ABFC401E800018E017490968884203D111F0A2FCFD210EE014490968884203D1DA
S325080055C011F09AFCFE2106E011490968884215D111F092FCFF2101EB80006070257166714E
S325080055E009F0AEFD2069009094E80F003BF010FA2069009094E80F003EF084FCF8BD000019
S32508005600940D0020E8240020A40D0020B40D0020C40D0020F8B501683048314C02682079DE
S32508005620914209D1032802D0042802D04FE0032100E0042100200CE02A4A126891420BD1B3
S32508005640032802D0042802D041E0032100E0042101203BF0A7FC3AE0234A00270125D2F86A
S3250800566000E01F4A4FF0030C083271454CCA05D0DFF878E0DEF800E0714513D1032802D02E
S32508005680042806D008E084F800C067706571257102E084F804C0E7700096D4E900013EF098
S325080056A031FC14E012480068814210D184F800C06770657125710096D4E900013EF022FC36
S325080056C00C48012185850C4800681BF0AFF92069009094E80F003BF09BF9F8BDAC110020D8
S325080056E0E8240020B4110020581100205C11002078130020841900206413002038B504463F
S3250800570011F070FC1A4BD4F80020002153F82140A24220D1174C2279032A06D0042A19D102
S325080057208000001F0844E07003E08000001F0844A07004290ED20F4813F0DEFE01280FD0F7
S32508005740022801D0032805D12069009094E80F003EF0D8FB38BD491CC9B20429D6D338BDFA
S325080057602069009094E80F003BF052F9ECE700006C240020E8240020704770B5930701D00B
S3250800578003F099FC0024234608E0CD181B1DEE782D6866F31F6540F82450641C9342F4D341
S325080057A070BD000010B5094900680968884201D1002004E006490968884202D101203BF075
S325080057C0BBFCBDE810403BF0CFBC0000101200201C12002038B50F4C207C002819D0607103
S325080057E0E07B2146207191F90E10012802D0032802D002E0217000E0A17000202074E0733D
S32508005800A0733BF0F1FD2069009094E80F003EF079FB38BDE824002010B5002013F084FC7F
S32508005820BDE8104001200FF083BC000038B50F4A01680F4C1268914203D00E4A1268914237
S3250800584003D103212171022161700B4900680968884209D009490968884205D02069009071
S3250800586094E80F003EF04EFB38BD0000BC120020E8240020C01200200C130020181300208D
S32508005880704700002DE9F04F4F4900688BB0096888424ED14D4D03270024687C0226A0B114
S325080058A0012846D14A48808900287AD08DF804600720ADF816008DF818408DF819408DF882
S325080058C005708DF8144001A831E0424D012128681DF0A3F94349DFF800B1DFF80091DFF875
S325080058E000A1884640B3084609F03DFC89F80040012128681BF0A8FC8BF83A408DF8246090
S32508005900DAF8000020B100231A4609A943F0E8F88DF8006041208DF81440ADF812008DF833
S32508005920154000BF8DF801708DF81040684607F0F7FD0BB0BDE8F08FB9F802100029F8D04E
S32508005940B9F804000028F4D0274991F85810890708D5C0EB00108100404609F009FC404684
S3250800596009F0F6FB4FF0010889F80080414628681BF08FF88BF83A808DF82460DAF8000025
S3250800598020B100231A4609A943F0AAF88DF8006041208DF81440ADF812008DF81580C1E786
S325080059A0FFE7782109483EF0B1FE2879E87368792874082028716F712869009095E80F0065
S325080059C03EF0A0FAB5E70000D0120020E8240020946E0020CC1200209E7F0020541900203D
S325080059E080190020F81F0020EE6D00207CB501681C481D4C082602680325607C914215D172
S32508005A0090B101280FD1782117483EF07FFE2079E07360792074267165712069009094E830
S32508005A200F003EF06FFA7CBD7421EDE70F4A12689142F8D118B10128F5D17921E4E76570AF
S32508005A402079E073607920740920207108486571808F01902069009094E80F0040F020FF6C
S32508005A60DBE70000E8120020E8240020EC1200209E7F002070B5930701D003F01CFB0023F8
S32508005A801C4611E011F82350055531F823502E0A05196E7051F82360360CAE7051F8236007
S32508005AA05B1C360EEE70241D9442EBD370BD000010B503680B480C4901220468888DA3425C
S32508005AC006D1022801D3401E0AE081F8302010BD064C2468A342FAD1CB8D9842F5D2401C22
S32508005AE08885F2E7B413002084190020C0130020F0B505AC8B4394E8E00001EA02041C434B
S32508005B0062193A4410447242D0410844F0BDF0B505AC9A4394E8E00001EA03041443621919
S32508005B203A4410447242D0410844F0BD38B500218DF80010114A8DF8010000BF545C9DF83F
S32508005B400030491C2344C9B28DF80030B829F5D3D9B2C943491C8DF800108DF80100B82271
S32508005B60064948F2470027F023FB0222694648F2FF0027F01DFB002038BD0000BA880C086C
S32508005B802DE9F04F694E00244FF00A0B707885B0401CC0B2B0FBFBF20BFB1201DFF890A1CF
S32508005BA02746707009B10A287ED248F24E15012229465E4827F00AFA307810F0900F73D0D4
S32508005BC000F00F0006286FD24FF000088DF8008001226946284627F0EBFA00231A461946DF
S32508005BE0184607F029F951480122691C401D27F0EDF930784FF00107000721D1DFF82C9109
S32508005C0009F10509A9F1030599F80000042802D125F0CAFF20B199F80000022802D004E01C
S32508005C202F700DE025F0C0FF20B199F80000012802D005E06F7003E025F0B6FF00B9AF7050
S32508005C403078554600F00F01FF208840C0B28DF80000C0439AF8349040F0C000AAF83400F6
S32508005C60BAF80C00AAF81400BAF82000AAF82800A88E07FA04F1084218D02E48042230F8E4
S32508005C80141003A827F0A2F99DF80C009DF80D1000EB012105EB440081819DF80E209DF887
S32508005CA00F1002EB012100E018E00184641CE4B2052CDDD3A8890127B0F5487F03D8288C00
S32508005CC0B0F5F07F08D9307800F00F0001280BD9E889A881688C288486F80180307800F03C
S32508005CE08F00802809D018E0A88AA881288D288480203070A5F83490F0E7BAF834105046CE
S32508005D000A0602D521F0800105E04FF6FF728281028401F0E001AAF834107078F02801D946
S32508005D2086F801B005B03846BDE8F08FA2200020F4890020B0880C0837B58CB015460C462F
S32508005D400CA8FEF7E7FB01462C226846FEF72CFC0598643820700498401C60700698E070CB
S32508005D600398A07002982870019868700098A8700FB030BD0D2912D2DFE801F011070B076F
S32508005D80090709070709070907001F2070471E207047800701D01C2070471D207047002064
S32508005DA07047000030B58FB000241A4D0A940B942A4619A10AA80C9401F090FB174818497A
S32508005DC0184A0560272008604FF4817111600DF1180C022514A3012214A18CE82E0012A16C
S32508005DE0CDE9041012A101AD00910FA20BA885E815000AAB0FA211A11A4801F06FFB1020EE
S32508005E000D948DF834008DF835000DA8FFF792FA0FB030BD04690600256400000416002047
S32508005E20081600200C1600202E00000020620000200000005A657461000000002573252E85
S32508005E4034732573252E32732573252E32642573252E34642573252E32642573252E3264F7
S32508005E6000000000DA2A00202DE9F0471646DDE9089A0F4680461C4C00201C491C4A04E08D
S32508005E80850706D01444401CC0B24045F8D301250CE00C44F7E729464046FFF76BFF40F255
S32508005EA0A32148436D1C04EBC014EDB2BD42F2D30120104902E0401C0C44C0B2B042FAD39D
S32508005EC0002003E0401CC0B204F561649842F9D3002002E0401CC0B23C344845FAD304EBF6
S32508005EE00A00BDE8F087000080436D380085E2018033E101805101002DE9F84F314C064611
S32508005F0020790A285CD0304D326800212B680120DFF8B8A02E4FDFF8BC80DFF8BC909A42D2
S32508005F2003D0DAF800309A4202D12170617004E03B689A4203D120706070607118E0D8F83D
S32508005F4000309A420BD1032222706170607120712069009094E80F003AF0BEFC09E0D9F81F
S32508005F60000082422CD1217061700220607105202071012128681BF067F9012138681BF05D
S32508005F8063F90121D8F800001BF05EF90121D9F800001BF059F9012130681AF07AFD31681F
S32508005FA02868814203D0DAF80020914202D101211AF06FFD2069009094E80F003DF0A2FF0B
S32508005FC0BDE8F88FE8240020700C00206C0C0020740C0020780C00207C0C002070B50DF118
S32508005FE0100C4A409CE870005A402244324410446A42D041084470BDFEE7000038B51949C5
S3250800600000680968884201D1002016E016490968884201D1022010E014490968884201D1FF
S3250800602004200AE012490968884201D1012004E010490968884214D103203BF077F80E4C47
S3250800604002206071072020710020A0730120E07320743BF089F82069009094E80F003DF0CF
S3250800606051FF38BDA40C0020B80C0020CC0C0020E00C0020000D0020E824002070B50D4644
S32508006080044600EB820605E02046296810F016FA241D2D1DB442F7D370BD70B50DF1100C92
S325080060A061EA03039CE8700053401A19324410446A42D041084470BD10B5022012F034FDAD
S325080060C010B1022012F028FDBDE81040014814F015BE00005809022070477047064810B58F
S325080060E0012100681BF076F8044801210068BDE810401BF06FB80000540C00200C0E0020D8
S3250800610030B5184889B0012100681AF08FFC3C20ADF8120000208DF8140001218DF815103C
S3250800612002218DF800108DF810008DF80110684607F0DAF90C4A0D4C0D4D28B10DA11068EE
S325080061401AF0E6F8104904E010A110681AF0E0F81249206819F043F9012128681BF03AF8EA
S3250800616009B030BD0C0E00202C0E0020300E0020280E00205265736574205375636365739A
S325080061807366756C6C792100144D06085265736574204661696C6564210000003CFE0508F2
S325080061A01CB5082217496846FFF764FC154C2088C0F3C500382802D2C0F1380101E0C0F141
S325080061C078011048083000F039F80821684600F035F80D491022A1F13000FFF74BFC0A49B9
S325080061E00020206030396060086348638863C86305484021B038FEF7FEF90348303800F077
S32508006200C7F81CBD601C00209C6C0020074800210160416007480649016007494160044965
S32508006220C94381600449C943C1607047601C0020012345679C6C002089ABCDEF2DE9F04167
S325080062400D46184906460A68C2F3C50002EBC5020A60B2EBC50F4A6801D2521C4A6002EB2B
S325080062605572C0F14004104F4A60A54212D3384422463146FEF798F9384600F0B7FC03E09A
S32508006280301900F0B3FC403404F13F00A842F7D3002000E000242A1B31193844BDE8F041A7
S325080062A0FEF782B9601C0020EC6B0020FEE7000070B5294E30681EF07CFD284C284D61881B
S325080062C0884207D128681EF074FDA18800F2E47088423FD030681EF06CFD608028681EF02A
S325080062E068FD00F2E47081B2A18060881D4B012814D060B302282AD0042828D0062826D0B5
S32508006300072824D0092822D00B2820D013490022B1311868BDE870401EF0C6BD4FF4C870C5
S32508006320B1FBF0F200FB121010B1880704D00AE00A4900225A31ECE76420B1FBF0F200FBB6
S3250800634012100028F4D105490022891DE1E700220549DEE770BD000068140020080000201C
S32508006360641400206C1400201301002070470907090E002806DA00F00F0000F1E02080F855
S32508006380141D704700F1E02080F80014704700003EB5054620210B48FEF72DF90020009036
S325080063A00190044602902A5D07A1684601F096F8022269460348FEF775F9641C102CF2DBFC
S325080063C03EBD00007C6C002025303278000000007CB51C490068002509681B4C884201D116
S325080063E0657019E019490968884208D11848012100681CF012FC002823D001200BE01549C2
S32508006400096888421DD11448012100681CF005FC002816D0022060702079E07360792074F9
S32508006420092020710320607101952069009094E80F0040F035FA2069009094E80F003DF036
S3250800644061FD7CBD54120020E824002078120020701200209C1200209412002008B56421C3
S32508006460002012F011FE1A48012100681AF0DEFA18480022114600681EF081FD16480022C2
S32508006480114600681EF07BFD14480022114600681EF075FD12480022114600681EF06FFD37
S325080064A01048012100681AF0C1FA0F480022C17B0171017C4171827182608281C27302744E
S325080064C0827301690091C36803C83DF01BFD08BD981400209C140020A0140020A414002076
S325080064E0A814002000140020E824002008B50C483FF068FB002811D009480022C17B017185
S32508006500017C4171827182608281C2730274827301690091C36803C83DF0F4FC08BD0000F3
S32508006520E8240020FFF7E2BF2DE9F041124F134D06460024316857F82400814203D055F823
S32508006540242091420AD10E4918F049FF55F8240001211AF09EFA0B48846007E00A4918F0E6
S325080065603EFF55F8240001211AF06EFE641CE4B2052CDFD3BDE8F0819C240020B0240020E4
S3250800658028850508E824002064AF050830B51D4C01681D4822681D4D006889B0914209D189
S325080065A001211AF043FA286809B00121BDE830401AF03CBA164A1268914220D101211AF01A
S325080065C035FA012128681AF031FA012120681CF018FB002813D10A20ADF81200F0208DF84C
S325080065E014000F208DF8150002208DF800008DF8010000208DF81000684606F075FF09B0FD
S3250800660030BD00004013002030130020341300204813002030B504683748384A00210568E7
S32508006620374B0220128889B0AC4228D1354C372594F85840C4F34004BCB18DF814100B22AF
S325080066408DF815208DF80000ADF812508DF801008DF81010684606F047FF00282FD02A4838
S3250800666008F081FD2848283827E093F83F309A422BD3ADF812508DF8141001222FE0234D99
S325080066802D68AC421BD1224C382594F86E40C4F38004B4B18DF814108DF815108DF8000000
S325080066A0ADF812508DF801008DF81010684606F01BFF002803D01448143808F054FD09B037
S325080066C030BD93F840309A4204D209B0BDE8304020F0A0BEADF812508DF8141004228DF87B
S325080066E015208DF800008DF801008DF81010684606F0FAFEE3E700007412002028740020DF
S325080067009E7F0020EE6D0020F81F0020981200207E6D002038B50C4C0020207060700120C1
S32508006720607120710146094800681AF0B2F90848012100681AF088FD2069009094E80F0027
S325080067403DF0E0FB38BD0000E8240020700C00207C0C002070B51F4900680968884237D186
S325080067601D4C012120681AF035FD0022962120681DF0BCFE194D4FF4017128681DF05CFF81
S32508006780174C0022022120681DF01DFF0022154920681DF02EFF14A1206819F0B9FD1B48F1
S325080067A0012100681AF016FD194C782120681DF059FFDC2120681DF03FFF184815A10068EB
S325080067C019F0A6FD2868BDE8704001211AF002BD70BD00004C1200203013002034130020BA
S325080067E03C1300205C400A085768657468657220746F2073687574646F776E200A7468658D
S325080068002073797374656D203F0000004013002048130020436F6E6669726D004C1300200B
S3250800682010B542F08FFB012801D042F0D9F8BDE8104008F067BF00001348016841F470014F
S3250800684001601248016841F0010101600F4A0832116841F0800111600021491C1429FCD3B1
S325080068600021116002680A4B1A400260074B094A1B1D1A60026822F48022026003480C309B
S32508006880016024F05FB8000088ED00E000380240FFFFF6FE10300024FEB501218C0720466B
S325080068A026F0B3F8002825D00121204626F0AAF80021204625F0DFFF204626F045F80E4C1F
S325080068C06088002816D00D4D002605F54871A5F8FC08ADF808000A488DF800600191006802
S325080068E020B100231A46694642F084F9012085F8FE086680FEBD00005A190020D275002099
S325080069002C1A002010B5124C0121204626F07AF80021204625F0AFFF0E4C2078401CC0B2C6
S325080069202070642802D90020207010BD12F0B4FB2378094A98424FF40061104603D9BDE8E1
S32508006940104010F073BEBDE8104010F071BE0000000800405A190020000C024070B5144CD6
S325080069600121204625F0FAFF00281FD00121204626F048F80F49104E0888401C088000252F
S3250800698005EB850016F8201069B106EB8004606848B1207C38B9A068401EA06003D1E068D7
S325080069A080476068A0606D1C052DE9DB70BD00000010004052190020BC1F002030B5FDB026
S325080069C04FF4FA716846FDF716FE1948194D1A4C40786B4603284FF03B024FF000014FF089
S325080069E0020007D01EF092F820681EF0E2F9482819D011E01EF08AF820681EF0DAF928B18B
S32508006A0020681EF0D6F908280DD005E03B226B461E2102201EF07AF80022694628681EF0B3
S32508006A2043FA7DB030BD00226B461146F1E70000E8240020EC140020E814002070470000D0
S32508006A40074808B5C17B0171017C41710021C17301748173016900910FC83DF053FA08BD70
S32508006A60E82400202DE9F04F5A4C8BB02069009094E80F003FF0B0FE050057484FF04609F3
S32508006A804FF0470B4FF03C0A4FF0020800F1280600F1140759D094F9011039B14F480129EC
S32508006AA00FD002291CD0032969D128E04A4808F05AFB2946484808F05BFB474808F048FB6E
S32508006AC04EE090F85800800759D5384608F04BFB2946384608F04CFB384608F039FB45E02E
S32508006AE090F8580040064AD5304608F03CFB2946304608F03DFB304608F02AFB3CE0B5FB2A
S32508006B00FAF1374EB180317801290FD190F8580080070BD530483C30074608F024FB294615
S32508006B20384608F025FB384608F012FB2D48B18881872D488DF80080006820B100231A4642
S32508006B40694641F0CDFF432017E094F9010020B1012808D0022812D10BE01F4808F003FB6C
S32508006B60ADF816900BE0384608F0FDFAADF816B005E0304608F0F7FA4820ADF81600B5FBE2
S32508006B80FAF1B5FBFAF08DF80480090A8DF818108DF81900002546468DF805808DF8145057
S32508006BA001A806F0BDFCE07B2071207C6071E5732574A5736078032802D1667006202071AA
S32508006BC02069009094E80F003DF09CF90BB0BDE8F08F0000E8240020BC1F0020EE6D0020C0
S32508006BE0541900209E7F0020801900202DE9F04F0146FF4897B0D0E90062D0E902479146E6
S32508006C00402207A8FEF7B9FD0798FA4900900725CDE901513B46224649463046FEF768FFBA
S32508006C2080460898F44900900C26CDE9016123464A4641463846FEF75BFF83460998EF49DA
S32508006C4000901127CDE901714B46424659462046FEF74EFF82460A98E94900901624CDE9BA
S32508006C60014143465A4651464846FEF741FF05900B98CDE90005E34902915B4652464046D0
S32508006C800599FEF735FF80460C98CDE90006DE490291534641465846059AFEF729FF8346FC
S32508006CA00D98CDE90007D9490291424659465046059BFEF71DFF8146D5490E980090CDE970
S32508006CC0014143465A4649460598FEF711FF82460F98D0490090CDE901515B464A46514622
S32508006CE04046FEF705FF80461098CB490090CDE901614B46524641465846FEF7F9FE8346DA
S32508006D001198C6490090CDE901715346424659464846FEF7EDFE81461298C1490090CDE906
S32508006D20014143465A4649465046FEF7E1FE82461398BC490090CDE901515B464A46514609
S32508006D404046FEF7D5FE05461498B7490090CDE901614B46524629465846FEF7C9FE804680
S32508006D601598B2490090CDE9017153462A4641464846FEF7BDFE06461698AD490090CDE9A1
S32508006D8001412B46424631465046FEF7B1FE82460898A84900900524CDE9014143463246EE
S32508006DA051462846FEF7B3FE81460D98A24900900925CDE901513346524649464046FEF7E2
S32508006DC0A6FE834612989D4900900E27CDE9017153464A4659463046FEF799FE804607988C
S32508006DE0974900901426CDE901614B465A4641465046FEF78CFE05900C98CDE90004914929
S32508006E0002915B46424648460599FEF780FE81461198CDE900058C490291434649465846C0
S32508006E20059AFEF774FE03901698CDE90007874902914A464046059B0399FEF768FE824668
S32508006E400B98CDE90006824902914B465146039A0598FEF75CFE83461098CDE900047D49C5
S32508006E600291524659464846039BFEF750FE8046794915980090CDE9015153465A4641463E
S32508006E800398FEF744FE03900A98CDE90007734902915B46424650460399FEF738FE814684
S32508006EA00F98CDE900066E490291434649465846039AFEF72CFE82461498CDE900046949C5
S32508006EC002914A4651464046039BFEF720FE0446654909980090CDE901514B4652462146F2
S32508006EE00398FEF714FE83460E9860490090CDE901715346224659464846FEF708FE05469E
S32508006F0013985B490090CDE9016123465A4629465046FEF7FCFD80460C98564900900426AD
S32508006F20CDE901615B462A4641462046FFF756F881460F98504900900B27CDE901712B4687
S32508006F40424649465846FFF749F8824612984B4900901024CDE9014143464A465146284657
S32508006F60FFF73CF8049017251598CDE90005444902914B46524640460499FFF72FF883464F
S32508006F800898CDE900063F490291534659464846049AFFF723F881460B98CDE900073A494D
S32508006FA002915A4649465046049BFFF717F8824636490E980090CDE901415B464A4651468A
S32508006FC00498FFF70BF88046119831490090CDE901514B46524641465846FEF7FFFF0590B7
S32508006FE01498CDE900062B4953464246029153E09C6C002078A46AD756B7C7E8DB702024F0
S32508007000EECEBDC1AF0F7CF52AC68747134630A8019546FDD8988069AFF7448BB15BFFFF59
S32508007020BED75C892211906B937198FD8E4379A62108B44962251EF640B340C0515A5E262E
S32508007040AAC7B6E95D102FD65314440281E6A1D8C8FBD3E7E6CDE121D60737C3870DD5F4AD
S32508007060ED145A4505E9E3A9F8A3EFFCD9026F678A4C2A8D4239FAFF81F6718722619D6DB4
S325080070800C38E5FD44EABEA4A9CFDE4B604BBBF670BCBFBEC67E9B2848460599FEF79EFFC1
S325080070A083460798CDE9000794490291434659465046059AFEF792FF82460A98CDE9000426
S325080070C08F4902915A4651464046059BFEF786FF80468C490D980090CDE901515B4652464F
S325080070E041460598FEF77AFF8146109886490090CDE901615346424649465846FEF76EFF5A
S325080071008346139881490090CDE9017143464A4659465046FEF762FF064616987C49009078
S32508007120CDE901414B465A4631464046FEF756FF0746099877490090CDE901515B46324672
S3250800714039464846FEF74AFF81460798724900900624CDE9014133463A4649465846FEF7E8
S325080071609CFF80460E986D4900900A25CDE901513B464A4641463046FEF78FFF8246159877
S32508007180674900900F26CDE901614B46424651463846FEF782FF04900C981527CDE900077F
S325080071A0604902914346524648460499FEF775FF05901398CDE900045B490291DDE90421B4
S325080071C053464046FEF769FF81460A98CDE900055649DDE90432029149465046FEF75DFF5D
S325080071E083461198CDE900065149DDE9040302914A465946FEF751FF80464E490898009058
S32508007200CDE901714B465A4641460598FEF745FF82460F9848490090CDE901415B464246F9
S3250800722051464846FEF739FF06901698CDE90005424902914346524658460699FEF72DFF52
S3250800724081460D98CDE900063D490291534649464046069AFEF721FF80461498CDE900074D
S32508007260384902914A4641465046069BFEF715FF824635490B980090CDE901414B4642460B
S3250800728051460698FEF709FF044612982F490090CDE901514346524621464846FEF7FDFEA4
S325080072A0054609982A490090CDE901615346224629464046FEF7F1FE0646109825490090ED
S325080072C0CDE9017123462A4631465046FEF7E5FE2149024608682044086048681044486020
S325080072E0886830448860C8682844C860402107A8FDF781F917B0BDE8F08F0000FA27A1EA5B
S325080073008530EFD4051D880439D0D4D9E599DBE6F87CA21F6556ACC4442229F497FF2A435E
S32508007320A72394AB39A093FCC3595B6592CC0C8F7DF4EFFFD15D84854F7EA86FE0E62CFE8F
S32508007340144301A3A111084E827E53F735F23ABDBBD2D72A91D386EB9C6C00202DE9FE43D2
S32508007360434F444D394628463FF064FD424E434C10B3394628463FF053FD708840F2DC51BA
S32508007380884273D228463FF069FC01467088EF042218401C82F8201370800021384625F0B5
S325080073A06AFA384625F0D5FA0121384625F02AFB0121384625F022FB072128463FF011FD7A
S325080073C000274FF00108C0B12D4928463FF032FD98B1B088215C401CB08028463FF042FC18
S325080073E0B4F80009B188884207D840F2073128463FF002FDB78084F80289224E284631464F
S325080074003FF018FD18B1314628463FF009FD1E4E284631463FF00EFD002827D031462846A8
S325080074203FF0FEFC28463FF019FC184E0121304608F0FCFDA0F2DC50404205042D0C15D00D
S325080074400121304608F00CFDA4F8FC581048019010488DF80070ADF80850006820B1002306
S325080074601A46694641F0C6FB84F8FE88BDE8FE8305030500004800405A190020D275002046
S3250800748007030700000503000403040000600240F27800202C1A0020FEE7000002480022D7
S325080074A01C21006816F0AEBC681400200FB41CB50246002007AC00290BD0491ECDE900211C
S325080074C0054B6A462146069801F03AFA009A002111701CBC5DF814FB6F9000080FB4084BDF
S325080074E010B504A902AA039801F02AFA044602A9002001F0C7FD204610BC5DF814FB000050
S325080075008590000800487047582200200000000030B583B0044600F017F89FED090B05465B
S325080075208DED000B002221466846FDF7D8FA284600F020F89DED000B03B030BD0000000010
S32508007540000000000000000001480068704700005822002002E008C8121F08C1002AFAD17A
S3250800756070477047002001E001C1121F002AFBD170470000014908607047000058220020EB
S325080075802DE9FF5F82B00021DDE90430020DDDF840B0034318D044F61050A2F2FF32424336
S325080075A01514119801281FD0A5EB0B00401C5FEA000A4FF000064E4FDFF83891B04650467B
S325080075C015D5CAF1000413E0119801244AA3012801D16FEA0B010298119AC0E90031C0E91E
S325080075E0024206B0BDE8F09FCBF10000DFE704460021404A491842EB0450CDE9001012E03E
S32508007600E00707D032463B4640464946FDF71BF98046894632463B4610461946FDF713F945
S3250800762006460F466410002CEAD1DDE90401DDE90023BAF1000F06DAFDF705F942464B46E7
S32508007640FDF701F905E0FDF712FB42464B46FDF70EFB04460E460022284BFDF78FFB03D8A6
S325080076604FF0FF30014607E00022254B20463146FDF742F8FDF76AFB102409E0002C0ADB3C
S325080076800A220023FCF70EFF039B30321A55641E50EA0102F2D1641C039AC4F1110314445E
S325080076A0119A012A03D0012208430DD10AE0084304D000204FF0110B119072E7A3EB0B05AB
S325080076C06D1E0DE05B4504DD4FF0000205F1010504E003DA4FF00002A5F10105002AECD0E2
S325080076E002981199C0E90231C0E9004579E70000000014400000F03F300000000000F04328
S325080077000000E03F30380A2801D20120704700207047000010B54421074800F084FD002214
S325080077201E2106481EF0C2FC054CA06001F04AFF0020207010BD0000F80A0220799600089F
S325080077404C21002070B5B1F90030B2F90040A34200DC23460380B1F90250B2F90240A54227
S3250800776000DD2C464480B1F90460B2F90450AE4200DA35468580B1F90610B2F9062091422D
S3250800778000DB1146C1800120AB4201DC8C4200DD002070BDF8B50D460446B0F90000B1F9E8
S325080077A000101646884247DBB4F90210B5F90220914241DBB4F90410B5F9042091423BDC68
S325080077C0B4F90610B5F90620914235DC96B3ADF800006088ADF8020032466946284600F01E
S325080077E099F8002827D0A088ADF800006088ADF8020032466946284600F08CF800281AD054
S325080078002088ADF80000E088ADF8020032466946284600F07FF800280DD0A088ADF8000030
S32508007820E088ADF8020032466946284600F072F8002800D00120F8BD0020F8BDB0F90020D0
S32508007840B1F904309A4213DCB0F90420B1F900309A420DDBB0F90220B1F906309A4207DC9C
S32508007860B0F90600B1F90210884201DB0120704700207047F8B50D460446B0F90400B1F999
S3250800788000101646884243DBB4F90600B5F9021088423DDBB4F90000B5F90410884237DCE5
S325080078A0B4F90210B5F90620914231DC76B3ADF800006088ADF8020032466946284600F065
S325080078C029F818BBA088ADF800006088ADF8020032466946284600F01DF8B8B92088ADF8F2
S325080078E00000E088ADF8020032466946284600F011F858B9A088ADF80000E088ADF80200F0
S3250800790032466946284600F005F808B10020F8BD0120F8BD2DE9FC4114460E46B1F90020A8
S32508007920B0F9001005468A423ADBB5F90400824236DCB6F90270B5F90220974230DBB5F949
S3250800794006309F422CDC002C75DD401A9A1A401C521C00B212B200EBD07002EBD272401082
S325080079605210904200DB1046844200DD0446ADF80010288800222044ADF804006888ADF87E
S325080079800200688831462044ADF806006846FFF7C1FF40B1BDF804002044ADF804003FE027
S325080079A00020BDE8FC81E8880022001BADF80200E888ADF8060031466846FFF7ABFF28B16A
S325080079C0BDF804002044ADF8040011E0A8880022001BADF80000A888ADF8040031466846D2
S325080079E0FFF798FF50B1BDF80000001BADF80000BDF80200001BADF8020016E06888ADF872
S32508007A000200688800222044ADF8060031466846FFF780FF70B1BDF80000001BADF8000005
S32508007A20BDF806002044ADF80600314668461CF075FFB6E7FFE70120B3E710B5B1F90040DC
S32508007A40B2F900309C4200DA23460380B1F90240B2F902309C4200DA23464380B1F90440FE
S32508007A60B2F904309C4200DD23468380B1F90610B2F90620914200DC1146C18010BD00004D
S32508007A80F8B507461EF00FFB0025264C0646009537B1F868606038461EF0D6FB606802E03F
S32508007AA013F032F9606000691CF03CFE6068406908B11CF037FE6068C0691CF033FE6068BA
S32508007AC0006A1CF02FFE6068016941B31CF0BEFF20F0ACFC6068B0F85011C1B14FF48071D7
S32508007AE0303018F0F9FE6068202100F5987018F0F3FE6068A0F8505130461EF0CEFA00903D
S32508007B0060680068436A13B122680099984718F06DFD00F035F8BDE8F84000F005B8A0F803
S32508007B205051F8BDF420002070B50A4D002400BFC4EBC40655F8260008B118F0CBFD05EBE9
S32508007B4086001C2118F0C8FE641CE4B2042CEFD370BD0000D40B0220084949680AE04A68B2
S32508007B60824202D00A68824203D10A7E42F001020A7649690029F2D170470000C8200020BD
S32508007B80704700000421014800F04DBBEC0A02202021014800F047BB040B02202DE9FF419F
S32508007BA00446DDE90A671D004FF0000002D1B6F5807F2BD0039001900290ADF80C1000905B
S32508007BC0ADF80410ADF80A20ADF80E203B463246294668461CF002FE3B463246294601A809
S32508007BE01CF0FCFD3B463246294602A81CF0F6FD3B463246294603A81CF0F0FDBDF900009F
S32508007C00BDF90430984209DA054608E02080491E6080A180521EE280BDE8FF811D46BDF964
S32508007C200820BDF90C108A4201DA164600E00E46B54203DA984206DB184604E08A4201DA8D
S32508007C40104600E00846801E2080BDF90030BDF90420934201DD1D4600E01546BDF9080085
S32508007C60BDF90C10884201DD064600E00E46B54205DD934201DD194604E0114602E088422A
S32508007C8000DD0146891CA180BDF90230BDF90620934201DA1D4600E01546BDF90A00BDF964
S32508007CA00E10884201DA064600E00E46B54205DA934201DA194604E0114602E0884200DACD
S32508007CC00146891E6180BDF90230BDF90620934201DD1D4600E01546BDF90A00BDF90E101E
S32508007CE0884201DD064600E00E46B54205DD934201DD194604E0114602E0884200DD014658
S32508007D00891CE18088E700002DE9F04115460E460746114C1EF0C7F980462B463246394644
S32508007D20204617F043F920B10020A062E06950B110E02C21204618F0CFFD4FF00040A06257
S32508007D400020BDE8F08140461EF0A7F9E06108B90120E0612046F4E7280B022010B51421B7
S32508007D60074800F060FA17F0E7F840B10549016005494160054981600549C16010BDFEE797
S32508007D80100B022061E90108DDEC010859EE01082DE9010870B50D4604461021284618F09B
S32508007DA09BFD20680078012804D0022807D0042807D008E0208A2880608A688003E0E068E5
S32508007DC000E00A20686020684268002A03D02946BDE87040104770BDFEB5866A0446BEB9E8
S32508007DE0A08A218A0844A082E08A618A0844E08220460DF018FD06007BD0204610F08AFC7A
S32508007E0000220921304615F0FDFF6078800770D4208A10B9608A00286BD00025ADF8045010
S32508007E20ADF8085094F83C0000F00F000328304616D01AF027F80746304619F0FDFE0346B0
S32508007E400C200090B4F912103A4630460CF006FCADF80800304619F041FFC10712D017E088
S32508007E6019F0A4FF0746304619F040FF024603200090B4F910103B4630460CF0EFFBADF8F3
S32508007E800400E7E7BDF90410002901DDADF80450810705D4BDF90410002901DAADF8045010
S32508007EA0410705D4BDF90810002901DDADF80850000705D4BDF90800002801DAADF8085023
S32508007EC002AA01A9204621F007FCBDF90820BDF90410304600F042FA6078800709D4A08A14
S32508007EE0BDF804100844A082E08ABDF808100844E082FEBD2DE9FC5F0446806A5FEA000BA4
S32508007F0071D094F83C0000076DD017F0D3FB019000684021457E58461AF073FE4FF00008B4
S32508007F2018B9A4F81A80A4F81880584619F09CFF8246584619F09FFF064694F83C004FF056
S32508007F40640900F00F000C2802D003284CD09AE0A4F8188056B1B4F91A50002717F0AAFBBB
S32508007F6000684946407EC0F1640022E0608BC5F1640110FB01F191FBF9F06083584619F025
S32508007F805BFE0546584619F07DFF02460C200090B4F91A102B4658460CF060FB60830246A0
S32508007FA000231EE07A1917B210FB05F292FBF1F215B2002DF6D1ADF80070A4F81A806A460E
S32508007FC00021204621F088FB41F6FF72BDF90030514258460DF08CFDBDF8001001230844FE
S32508007FE002B200214CE09AE0A4F81A80BAF1000F0AD0B4F91850002717F05CFB006849469D
S32508008000407EC0F1640022E0208BC5F1640110FB01F191FBF9F02083584619F067FE05464B
S32508008020584619F0C3FE034603200090B4F918102A4658460CF012FB2083014600231EE0D7
S325080080407A1917B210FB05F292FBF1F215B2002DF6D1ADF80070A4F8188000226946204609
S3250800806021F03AFB41F6FF72BDF90030514258460DF0B6FCBDF800100123084401B2002234
S3250800808058461BF0DDFE208B002848D1608B002845D1C6B9584619F0F5FE0546584619F02E
S325080080A0CBFD002D06DC00280DDD002D02DA01232A4604E0002806DA0123404202B20021C5
S325080080C058461BF0BDFEBAF1000F19D1584619F00DFE0546584619F069FE002D07DC002847
S325080080E00EDD002D03DA01230022294605E0002806DA01230022404201B258461BF0A0FE19
S325080081000A215846019A15F07DFE6078800706D414F83C0F20F00F00207044F8148CBDE8AD
S32508008120FC9F7FB50E46040003D112F0EDFD04002CD012F05DFE002828D094F828004007D2
S3250800814024D4002506B3ADF80050ADF80250204612F0F2FD401EADF80400204612F032FE59
S32508008160401EADF806006A46314602A8FFF7EAFA00280BD02068017C890708D5DDE9000101
S32508008180C4E90C01012029E0A4F850517FBD82690AB102A9904700260AE004EBC601002264
S325080081A002A83031FFF7F6FA0028EFD1761CB6B2B4F85001B042F0D880B2202804D204EBE8
S325080081C0C00002A9303004E0A4F8505104F13000694611F005FFB4F85001401CA4F8500186
S325080081E060680028D2D01EF03BF87FBD002800D04068704700B503460022FFF7F7FF03E01C
S325080082001846521C00F004F80100F9D1104600BD0068091D405870470068405870470028FE
S3250800822000D08068704700224260C91C21F0030182600160704770B504460068083018F0F2
S32508008240BDF9050013D00146002220461EF04AFF2946204662681EF03FFF616819B12A465E
S3250800826020461EF03FFF6560A06800B9A560284670BD70B504460068083018F09FF9050064
S3250800828013D00146002220461EF026FF29462046A2681EF027FFA16819B12A4620461EF021
S325080082A01BFFA560606800B96560284670BD28B1416809B9806808B100207047012070471C
S325080082C070B504000DD0FFF791FF00228842204608D1FFF79DFF6060011E01D000221EE077
S325080082E0A26070BDFFF79BFF8842206808440AD10168A16029B12046BDE8704000221EF009
S32508008300EBBE626070BD05682046FFF781FF06460246294620461EF0DFFE2A4631462046CD
S32508008320BDE870401EF0DEBE10B50446006882680AB12146904720680068002801D020606D
S32508008340F5E710BD8068002801D0B0F9160070478068002801D0807E8009704770B516466F
S3250800836005460C4651EA06001AD0284618F068FDA86801233246018A21440182A868418A52
S3250800838031444182214628461AF0B4FF00220B21284615F037FD012803D128461AF004FF98
S325080083A0012070BD77B581B00E46050017D061221AF050FA040012D0206880B12846314669
S325080083C062221AF047FA10F0FF0208D023682046039998470090BDF80000ADF80C000398EA
S325080083E004B070BD2DE9F047074692B0408C1A9E40F00400788490463A8499468A46328900
S3250800840038461AF027FA0546A7F820903289514638461AF01FFA0446788CA54220F00400CF
S32508008420788403D12904B1EB044F68D0A7F820803289514638461AF00DFA05468046A7F83A
S325080084402090514638460EF0E9FF318900682A461DF0E8FB30890B2823D147F6FF794D45BA
S3250800846001D04C451DD138461AF082FB00EBD0704510384619F093FB00EBD0704010C8457C
S3250800848006D1691C431C994200DA00E0194688464C4506D1691C421C914201DA6C1C00E0F0
S325080084A014461948FFF7C7FE05002BD02F60C5E903843089A8806846C5F808A011F0BCF8CB
S325080084C01248FF21CDE90050114802901148039000200890CDE9090130880B9070889DF8DF
S325080084E0421040420C90F0680790002060F300018DF8421030690690684611F0F1F812B03B
S32508008500BDE8F087FEE700001C0B0220B9D20208EDD4020849D4020814210148FFF783BEC7
S325080085201C0B02202DE9F84F00259046894606462C460427E5E000BFF16807EBC4000858E1
S3250800854082017AD480B230EA090211D05FF0000230EA08000ED0002082426ED051F834A074
S325080085606A46102150461DF001F9002871D103E00122EDE70120EFE76A46112150461DF0AF
S32508008580F5F8002865D16A46122150461DF0EEF800285ED16A46132150461DF0E7F8002831
S325080085A057D16A46152150461DF0E0F8002850D16A46142150461DF0D9F8E8BB6A460A2104
S325080085C050461DF0D3F8B8BB6A466A2150461DF0CDF888BB6A466B2150461DF0C7F858BB15
S325080085E06A46012150461DF0C1F828BB6A46042150461DF0BBF8F8B96A46022150461DF00A
S32508008600B5F8C8B96A46032150461DF0AFF898B96A46052150461DF0A9F868B96A4606219D
S3250800862050461DF0A3F838B96A46322150461DF09DF808B96A4601E00BE061E06D21504620
S325080086401DF094F828B96A466C2150461DF08EF810B10320BDE8F88F6A46682150461DF040
S3250800866085F8E8BB6A46692150461DF07FF8B8BB6A466D2150461DF079F888BB6A466C2133
S3250800868050461DF073F858BB6A46372150461DF06DF828BB6A46382150461DF067F8F8B9FC
S325080086A06A46352150461DF061F8C8B96A46402150461DF05BF898B96A46452150461DF018
S325080086C055F868B96A46412150461DF04FF838B96A46422150461DF049F808B96A4600E0E9
S325080086E00AE0432150461DF041F828B96A46492150461DF03BF808B1022501E005B90125CC
S32508008700641C708CC0F3C500A0423FF615AF2846A0E700000148406870470000F4200020AB
S325080087207047C0F30410072800D9072070470000A0F57F41FF3905D0002804D0702803D2FC
S3250800874008490AE01F2070470749703880B2096829B1064A5268904201D2085C704700207B
S325080087607047000054C20C08782100208C21002010B518210348FFF756FD0349012008700D
S3250800878010BD0000C80A0220942100202DE9F041094D90460E466A681C46074619469047B7
S325080087A0306020B120686A68384400219047C8F80000BDE8F0810000A82100202DE9F04F68
S325080087C087B08A46DDE910581F4693460446002105B129805CB12078002809D0BAF1000FEE
S325080087E005D0002618F0060F15D0002004E0002007B0BDE8F08F401C215C0A2904D00D2959
S3250800880002D00029F7D100E0401C002DF0D04FF0FF312980ECE75FEA887001D541F6FF77AF
S32508008820894608468DF81410049127E00498CDF8189068B34FF0000C05AA06ABCDF80CC068
S32508008840CDF80080CDE9013220443B465A4651461DF042FE06997A1A314417B20EB288B109
S3250800886004990144049120780A280BD00D2809D0605C0A280FD00D280DD00846205C08B15E
S32508008880002FD3DC049848B105B12E800498AFE74FF0010CD0E7481C0490F3E7064A04A9EF
S325080088A0204652689047002DF0D001460022504615F0B5FB06B2E8E7A82100200023027805
S325080088C0232902D0012A0DD00FE02AB10021012A04D0022A04D008E0012101E0017004E03A
S325080088E0017001E0202902D00123184670470221F6E700002DE9F0471E4614460D4682469E
S32508008900DDF8209015E000BF4FEA540808FB0657394650464A469047002808DD44F300005B
S32508008920C0EB540407EB0605A4F1010401E005DA4446002CE8D12046BDE8F0873846FBE77E
S325080089402DE9FF4F95B09B468946064600250FE2252877D100242746F84A0121059400E04B
S32508008960044316F8013F203B01FA03F01042F7D130782A2811D06FF02F033078A0F130021A
S32508008980092A16D8059A44F0020402EB820203EB42021044761C0590EFE759F8042B0592C4
S325080089A0002A03DA504244F40054059044F00204761C30782E2816D116F8010F44F00404E4
S325080089C02A280DD06FF02F023078A0F13003092B09D807EB870302EB4303C718761CF3E74F
S325080089E059F8047B761C30786C280FD006DC4C2817D068280DD06A2814D104E0742810D06B
S32508008A007A280FD10DE044F400140AE044F4801401E044F440147278824202D104F580145C
S32508008A20761C761C307866280BD013DC582877D009DC002875D04528F6D04628F4D0472817
S32508008A401AD19DE118E0632835D0642879D0652812D195E1702873D008DC6728F1D06928BC
S32508008A606FD06E280DD06F2806D1B5E073282CD0752875D0782874D05A46179990476D1C26
S32508008A8075E1C4F30250022809D003280DD0D9F8001004280DD00D6009F1040967E1D9F8E7
S32508008AA00010EA17C1E90052F6E7D9F800100D80F2E70D70F0E719F8041B8DF8001000203E
S32508008AC08DF80100EA46012003E059F804AB4FF0FF3061074FF0000102D40DE008F10101FA
S32508008AE08846B9420FDA8045F8DB1AF808100029F4D108E008F1010188468142FADB1AF8AB
S32508008B0008100029F6D105985B46A0EB080721463846179A00F094FA284400EB080507E008
S32508008B204DE029E10DE01AF8010B5A4617999047B8F10108F7D25B4621463846179A13E118
S32508008B4042E00A220092C4F302524FF0000A022A08D059F804CB032A4FEAEC710AD00DE025
S32508008B6029E02AE009F1070121F00702F2E802C1914609E00FFA8CFC4FEAEC71042A03D132
S32508008B804FFA8CFC4FEAEC71002907DA0A460021DCF1000C61EB02012D2202E0220504D58C
S32508008BA02B228DF80420012203E0E20701D02022F7E7904659E00A2102E010220DE0102165
S32508008BC04FF0000A00910BE010224FF0000A44F004040827009203E008224FF0000A009262
S32508008BE0C4F30252022A05D059F804CB0021032A08D009E009F1070121F00702F2E802C173
S32508008C00914605E01FFA8CFC042A01D10CF0FF0C4FF00008220728D5702806D0009B83F0F9
S32508008C20100353EA0A0305D00EE040228DF80420012208E05CEA010206D030228DF80420D6
S32508008C408DF8050002229046009B83F0080353EA0A030AD15CEA010201D1620705D5302294
S32508008C608DF804204FF001087F1E582804D034A003900EA802900DE036A0F9E75346604673
S32508008C80009AFBF70FFC84460398825C0298401E029002705CEA0100F0D1029806A9081A7D
S32508008CA000F1200A600702D524F4803400E00127574502DDA7EB0A0000E0002000EB0A016C
S32508008CC0009005984144401A0590E00306D45B462146179A059800F0B3F90544002706E0E0
S32508008CE001A85A46C05D179990476D1C7F1C4745F6DBE0030CD55B462146179A059800F0EE
S32508008D009FF9054404E030205A46179990476D1C0099481E00900029F5DC08E002980299DA
S32508008D205A460078491C0291179990476D1CBAF10001AAF1010AF1DC65E10000092801006E
S32508008D40303132333435363738396162636465660000000030313233343536373839414213
S32508008D60434445460000000000F058F90544761C307800287FF4ECAD19B02846BDE8F08F80
S32508008D80620700D4062709F1070222F0070CFCE80223E14603F000485FEA080C02D00FF298
S32508008DA0702C0DE05FEA045C02D50FF2682C07E05FEAC47C02D00FF2602C01E0AFF2700C3A
S32508008DC04FF0FF3823F00043CDF850C065280CD006DC452809D046281DD047283DD13DE05E
S32508008DE0662818D067287ED138E00021112F01DB112000E0781CCDE9000106A90EA8FEF706
S32508008E00BFFBDDE90F010E9A03910021009207F1010A04914DE04FF000400097CDE9011023
S32508008E2006A90EA8FEF7ACFBDDE90F0203920E9B11990022DDF80CA00093049211B9791C39
S32508008E4000EB010AB7EB0A0004D4C0F1FF3007F1010A0490AAEB0700019044E0012F00DAB8
S32508008E6001270021112F01DD112000E03846CDE9000106A90EA8FEF783FBDDE90F010E9AE1
S32508008E800391002104910092BA4621070CD40399514500DA8A46BAF1010F05DD009AAAF132
S32508008EA00101515C302908D0B84202DA10F1040F06DA0121CDE9011015E0AAF10101E9E7AF
S32508008EC0002805DC049901440491AAEB000102E0411C514500DD8A460499401A401C019008
S32508008EE04FF000400290200704D40198504501DBCDF8048000208DF84F0002980DF14F071F
S32508008F00B0F1004F25D02B200E9002984FF0020800280CDA404202902D200E9007E00A2173
S32508008F200298FBF74CFD3031029007F8011DB8F10001A8F10108F2DC02980028EFD1791E0B
S32508008F400E980870307800F0200040F0450007F8020D12A8C01B00F107081498007800B140
S32508008F60012000EB0A01019801EBE07105984144401A401E0590E00306D45B462146179A11
S32508008F80059800F05DF805441498007818B15A46179990476D1CE00324D55B462146179A66
S32508008FA0059800F04DF805441CE00498002807DBDDE90301884203DD0098405C179901E0AD
S32508008FC0179930205A469047049805F10105401C04900198401E019004D12E205A46179989
S32508008FE090476D1CBAF10001AAF1010ADDDC05E017F8010B5A46179990476D1CB8F100019E
S32508009000A8F10108F4DC5B462146179A0598ABE62D0000002B000000200000002DE9F0412A
S32508009020044600251E461746880404D405E039462020B0476D1C641EF9D52846BDE8F08196
S325080090402DE9F041044600251E469046C80301D5302700E02027880404D505E041463846A4
S32508009060B0476D1C641EF9D52846BDE8F0814A68002A06D00A68531C0B6010704868401E02
S32508009080486070470A68531C0B601070704770B50C460546022A04D04AB1BDE8704018F0C6
S325080090A099B819F0AEFD002821462846F5D1BDE8704017F0BBBCFEE710B502004FF000001C
S325080090C00CD04B1E194200D0FEE70A44521E9A43B2F5802F02D20C2A01D9104610BD0C2009
S325080090E010BD00000A2921D3022A11D0122A11D0152A11D0182A0FD0172A0FD01A2A0FD0C0
S32508009100132A0FD0012A0FD009A20CA1FEF7E6B90BA2FAE70CA2F8E70DA2F6E70EA2F4E7FD
S325080091200FA2F2E710A2F0E711A2EEE770470000556E6B6E6F773A2000000000257300005B
S32508009140424D533A2000000044583A2000000000494E563A200000004D5050543A200000ED
S32508009160444344433A2000004143553A200000004D6F6E69746F723A200000002DE9FE4FA1
S32508009180DFF82CA3064600279AF800000124B84601282ED0CAF804804FF40A4005F0F6FA14
S325080091A0C44D4FF00109022837D000204FEA080105F83410641C401CC0B2E4B22028F7D37D
S325080091C04FF4064005F0E2FADFF8ECB2022852D00020414605F83410641C401CC0B2E4B29A
S325080091E02028F7D34FF4064005F0D0FA022866D079E0DAF80400554610B93FF0B1FE68606E
S325080092003FF0AEFE6968401A44F620618842C3D3C5F8048085F80080BEE7DFF8A0C2A84912
S32508009220BCF81200098F20F00303BCF80000884201D843F4007300214FEA090000FA01F25B
S325080092401A40CA4005F83420641C491CC9B2E4B21029F3D3BCF810305FF0000100FA01F225
S325080092601A40CA4005F83420641C491CC9B2E4B21029F3D3A4E7BBF84400002120F4004C33
S325080092804FEA090000FA01F202EA0C02CA4005F83420641C491CC9B2E4B21029F2D3BBF895
S325080092A04230002100FA01F21A40CA4005F83420641C491CC9B2E4B21029F3D392E7BBF84A
S325080092C0400040040FD505F83490641C4FF4C24BE4B2584605F03EFA40B1584605F056FA52
S325080092E002280ED102E005F83480EEE74FF40A4B584605F02FFA38B1584605F047FA0228B4
S3250800930002D09AF8000078B105F83480641C4FF4064BE4B2584605F01DFA40B1584605F029
S3250800932035FA022819D102E005F83490EEE74FF44C5B584605F00EFA20B1584605F026FA5B
S3250800934002280AD14FF4705B584605F003FA38B1584605F01BFA022802D09AF8000008B382
S3250800936005F834805749641CE0B2097805F83010401CC0B2DFF850B105F830800024AA4657
S325080093801AF83410B9B304EB44020BEB8205A988A1F57F42FF3A28D00AEBC400029040689F
S325080093A018B11FE005F83490DCE786F802904749474802F07FFF454882784178CDE90012AC
S325080093C003784348827841780078FCF74DFD0299002322464860A98861F31F4501462846A5
S325080093E001F01CFD02983B49416006EB47007F1C8480FFB204E0FFE70AEBC400C0F804804F
S32508009400641CA4B2452CBBD33780002086F8688002244A46594616E006EB40039B8803EB9C
S32508009420430301EB83031B7A012B01D01BB108E086F8684005E096F86830022B01D286F871
S325080094406820401CC0B28742E6D8002225E000BF06EB4207BD8805EB450001EB8000007AA1
S32508009460C8B9501C14E000BF06EB4004B4F804C00CEB4C0C01EB8C0C9CF808C0BCF1010FAD
S3250800948010D05C1E844202D1BCF1000F08D0401CC0B28342E8D8521CD2B233889342D7D8B3
S325080094A0BDE8FE8F06EB40008088A580B880F2E730030020482800207E6D00202874002053
S325080094C09E7F00205D1C0020AC930408B8200020B420002000D36C3808444A1E401E904315
S325080094E0114200D0FEE770472DE9F84F8146407A0F4600F00700022819D01046804697426D
S3250800950000DD3A46164603202A4C2B4A00EB460020F00305A06811681035411A636805EB51
S32508009520010C9C4505D2416821F0004124E00846E4E79D4219D892464FF0FF3B48196168F5
S32508009540884210D9002269461C48CDF800B00FF07DFC002269461A480FF078FCA168DAF8A7
S325080095600000091AEAE7A068DDE7284617F026F8C0B1416841F0004188EA6702416089EA0F
S3250800958002010160416801F04041491C31F0804141608681A0F80E8005D500F1100181606C
S325080095A0BDE8F88FFEE7A16801F1100229448260A160F5E7FC2000207421002015580108EC
S325080095C0AD8E010810B5084C012020700748FEF70DFE0028A06803D0BDE810401CF040BE1E
S325080095E0BDE810401CF030BE4C210020F80A022010B5044690F84200A16B820709D4B4F8C6
S3250800960040204AB1A2F57F43FF3B1BD0521EA4F84020B4F84020AAB909B1820712D52146F7
S325080096201448FEF74DFEFFF7CDFFE16809B120468847216909B1204688472046BDE81040B2
S3250800964017F048B8E26B52422263002911D0820702D4626B524222634210521C62F34100EA
S3250800966084F84200A26A206A2262A062E06AE162A06310BDF80A022070B5304D68681CF003
S325080096800CFD0646687880F00100687047E00020287094F842006978C0F380028A4242D09D
S325080096A061F3820084F84200216B8A19030719D4002917DC002A15DBC00709D1616939B157
S325080096C020468847216A01442162A16A0844A062A16809B12046884794F8420040F008009D
S325080096E084F84200206B8019206316D4E16A884200DD2163E169204688470146606A88423D
S3250800970004D0616262680AB120689047D4E90B01814202DB2046FFF76BFF287818B10848D8
S32508009720FEF764FD03E021460548FEF771FD0400ADD11CF0B8FC686070BD00004C21002007
S32508009740F80A0220092801D9373000E03030C0B2704700001CB504460A48006828B10A46FE
S3250800976069463FF08BFA012801D000201CBDDDE900212046FAF718FF01980CF07BFF009889
S3250800978080B21CBD9C2000202DE9FF411E46012A0AD00C46014622461A48FAF705FF002598
S325080097A0184F4FF0080816E00A46164900F0E8F90446F4E707EBC5008DF80C800096016883
S325080097C0019140680290684600F098FB01203EF057F86D1CADB2B5EBD40FEBD360070DD073
S325080097E024F0070004F00702C1198DF80C2001A80096FAF7D9FE684600F080FB04B00120C3
S32508009800BDE8F08108800020FEB504464048217A0022042901D011B102E0626800E0226864
S325080098203B4D103D03212B6823B1934202D085F8001200E02A60A27A042A4AD995F80022FE
S325080098400127022612B1012A1BD03DE0E27AAA72227BEA72637BEB80A27B2A81FF2A01D038
S3250800986012B136E0FF2B34D185F80072A27A04F10B01FAF799FEA07A21E000BF85F8006285
S325080098802AE0E27AAB7A9A4223D1227BEB7A9A421FD1627BEB889A421BD12B89A27B5B1C31
S325080098A09A4216D12A81A988A27A084404F10F01121FFAF779FEA888A17A0844001FA88017
S325080098C02889E9888842D9D095F80002022803D00FE085F8001210E00E488DF800708DF81B
S325080098E00A600068002811D000231A4669463FF081F995F80002032808D103B00448BDE86D
S32508009900F0404FF401711038FAF775BEFEBD0000EC6900202C1A00202DE9FE430446484B1E
S32508009920217A0020042901D011B102E0606800E02068434D0E3D03212A6822B1824202D092
S3250800994085F8E61500E02860A27A032A56D995F8E6054FF001094FF0020810B1012823D0BA
S325080099604FE0E07A6872A07B617B00EB012080B2A880801C05280AD985F8E69554F80B0F0F
S325080099801860606858600820E880BDE8FE8385F8E685A27A052A38D304F10B011846FAF77D
S325080099A003FEA07AE8802CE0207B6F7AE67A401C1037B74222D12E7A771C874202D0861B20
S325080099C0012E1BD1EE8840F2DC573244D21EBA4214DA2872A27AF01804F10D01921EFAF7D1
S325080099E0E3FDE888A17A0844801E80B2E880A988091D884205D385F8E68506E085F8E6152B
S32508009A0015E095F8E60502280DD104208DF80A000C488DF8009000680028B6D000231A460E
S32508009A2069463FF0E7F895F8E6050328ADD103B00348BDE8F04340F2EC510E38FAF7DBBD26
S32508009A40FE6300202C1A00202DE9FE4304464A4E217A0020042901D011B102E0606800E0D3
S32508009A602068454D0E3D0327296809B181425AD1286095F8E6054FF001094FF0020810B1BD
S32508009A80012823D052E0E07A6872607B217B00EB012080B2A880801C05280AD985F8E695B5
S32508009AA054F80B0F3060606870600820E880BDE8FE8385F8E685A27A052A3BD304F10B0112
S32508009AC03046FAF771FDA07AE8802FE0607B227BE17A00EB02206A7A80B210328A4222D11B
S32508009AE0297A814202D0411A01291CD1E988A27A40F2DC530A44D21E9A4214DA2872A27A02
S32508009B00881904F10E01D21EFAF74EFDE888A17A0844C01E80B2E880A988491D884205D3DE
S32508009B2085F8E68506E085F8E6751BE095F8E605022813D1E988F01CC91EFBF7D7FC00289F
S32508009B40F1D107208DF80A000C488DF80090006820B100231A4669463FF04CF895F8E605C0
S32508009B600328A4D103B00448BDE8F04340F2EC510E38FAF740BD0000FE6300202C1A0020D6
S32508009B802DE9F0410B460146144608200246082C06D222461846FAF707FD2046BDE8F081CB
S32508009BA00526083C0D681D604D685D6094FBF6F594FBF6F706FB1744E6B2ADB200242BE04C
S32508009BC00F7810371F54401C80B2270A1F54401C80B21C54401C8F5C80B2521C1F5492B268
S32508009BE0401C87B2885CD855521C90B27F1CBAB20F5C9F54401C80B2521C92B20F5C9F54FE
S32508009C00401C87B2521C90B2CA5D1A547F1C401C641CBAB280B2A4B2AC42D1D3002EBDD0A4
S32508009C200C7810341C54401C80B22C0A1C54401C80B21D54401C80B2002407E08D5C1D54B8
S32508009C40521C401C641C92B280B2E4B2B442F5D3A4E700000EB501208DF8000004208DF845
S32508009C600A0005480068002804D000231A4669463EF0C0FF0EBD00002C1A00202DE9F04F76
S32508009C804D4C4E4D844621682F68E08887B004F10A0A40F2EC5B4FEA1169C1F30746C1F30F
S32508009CA00723CAB2BCF1080F62D2DFE80CF0616407316461076459463F4824E007B3404C98
S32508009CC02068E8B1010E2173010C6173010AA173E073A088001D0CF0CFFC88B1A28804F1FB
S32508009CE00C01121DCDE90020FAF75EFC00230A22694628683EF0F4FE10B901980CF0BAFC37
S32508009D002F484FF4017107B0BDE8F04FFAF773BC142102A8FAF76FFC2A480068010E8DF8A5
S32508009D200810010C8DF80910010A8DF80A1025498DF80B007039D1E91D01CDE903010C2043
S32508009D400CF09AFC002813D00C21CDE9001002990160039941600499816000230A226946B0
S32508009D6028683EF0BDFE002802D101980CF082FC07B0BDE8F08F002F9DD000299BD084F8C7
S32508009D800A90E67223736273001D0CF075FC002891D0E2885146121DCDE90020FAF704FC4E
S32508009DA000230A22694628683EF09AFE002882D101980CF05FFC7EE7F06300209C20002022
S32508009DC0DC690020E06B00200EB5027A0021042A01D012B102E0416800E001680C4A1160E8
S32508009DE0A2F1700150F80B2F4A674068886701208DF8000003208DF80A0006480068002851
S32508009E0004D000231A4669463EF0F4FE0EBD0000E06B00202C1A00201CB50C0A8DF80040C6
S32508009E208DF80110FF218DF802108DF80310110A8DF804108DF80520190A8DF806108DF88E
S32508009E4007300346022208216846FFF79DFC1CBD1CB50C0A8DF800408DF8011000218DF829
S32508009E6002108DF80310110A8DF804108DF80520190A8DF806108DF80730034602220821BC
S32508009E806846FFF781FC1CBD1CB50C0A8DF800408DF80110FF218DF802108DF80310110A0E
S32508009EA08DF804108DF80520190A8DF806108DF807300346022208216846FFF765FC1CBD63
S32508009EC01CB50B0A8DF800308DF80110FF218DF802108DF80310110E8DF80410110C8DF89A
S32508009EE00510110A8DF806108DF807200346022208216846FFF748FC1CBD0000F0B585B0AC
S32508009F0000248DF8094002682146B2F5006F04D3009101680191042101E0CDE900218DF895
S32508009F200810017B8DF80A1000216A4605E0431855181B79491CEB72C9B29DF80A308B42F5
S32508009F40F5D80B4E1146304603F0F8FD054642F2107706E0641CBC4203D900F041F905B0F3
S32508009F60F0BD2946304604F029FA0128F2D1F6E70068004030B585B014216846FAF73BFB95
S32508009F806A460021324803F091FD9DF808100020042901D011B102E0019800E000982D49F1
S32508009FA02D4A2E4C0978531E19B1B2EB102F03D005E0B3EB102F06D10125257019B1B3EB7B
S32508009FC0102F03D004E0B2EB102F01D10021217000F0B2F8082808D2DFE800F00704090DA1
S32508009FE0110D07046846FFF72FFD05B030BD6846FFF70AFCF9E76846FFF7E6FEF5E79DF835
S3250800A0000B0023281BD19DF80C00432817D19DF80D00412813D19DF80E004E280FD19DF87F
S3250800A0200F0054280BD19DF81000452807D19DF81100532803D19DF81200542803D0684628
S3250800A040FFF76AFCD1E76846FFF704FECDE70000006800405C1C0020FB401F005D1C002051
S3250800A0602DE9FF4F0D4685B0934601462A463148DDF84890FAF798FA00240BF11000264611
S3250800A080C7B2DFF8B0A04FF006081FE008208DF80C00CDF80090E4B38DF80470B4F1010082
S3250800A0A08DF8050006EB46010AEB41000168CDF806108088ADF80A006846FFF71FFF641C5D
S3250800A0C0E4B201203DF0DCFB761CB6B2B5FBF8F0B042DBD84046B5FBF0F108FB115101B350
S3250800A0E0B5FBF0F100FB1151891C8DF80C10B5FBF0F100FB1152B5FBF8F08DF80470641E1C
S3250800A10000EB4001CDF800908DF805400AEB410100E00AE00DF10600FAF746FA6846FFF70C
S3250800A120EDFE09B00120BDE8F08F8DF804B00898B6E7000008800020264A002152F83130CE
S3250800A140834203D102EBC10000797047491C89B20429F3D3204A20F47F41127802F1FA52E0
S3250800A160FA32914201D102207047A1F1FA52463A29D0A1F1FB52FF3A27D0184A20F47021BA
S3250800A180914224D0A0F54071553920D0A0F5407156391CD0A0F54071593918D0A0F540715F
S3250800A1A05E3914D0B0F5647F11D0A0F5407191390DD0A0F54071923909D0A0F540719E39B9
S3250800A1C005D0002070470320704701207047052070470000D0810C085C1C0020FFD0A01FAC
S3250800A1E010B501F05FFF054C2068002805D1002208211E203EF01CFC206010BD9C2000206E
S3250800A2002DE9FC4782469D081F4691468846980700D06D1C002423E04FEA18208DF800004B
S3250800A2208DF80180681E8DF80200604207EB80008DF80340042801DD042600E0C6B209EBA1
S3250800A2408401324601A8FAF7AFF953460222311D6846FFF799FA01203DF012FB641CE4B2FE
S3250800A260AC42D9D3BDE8FC872DE9FC41804603F0010016460F4600EB5305002426E0380AA1
S3250800A2808DF800008DF80170681E8DF802008DF8034036F824004346000A8DF8040016F8E4
S3250800A2A024008DF8050006EB840002224188090A8DF8061080788DF8070008216846FFF781
S3250800A2C063FA01203DF0DCFA641CE4B2AC42D6D3BDE8FC8110B50024200309F0A3FF641CF9
S3250800A2E0A4B2072CF8D310BD70B500244FF400455FEAA51605EB043009F094FF641CA4B2D4
S3250800A300B442F7D3012070BD2DE9F0419EB088460746FAF7A5F986B2642104A8FAF76BF924
S3250800A320002404AD0FE0385D0009FFF70BFA05F81400385D00F00F00FFF704FA05EB4401E4
S3250800A340641C4870A4B2B442EDD3002005F81600761C06F00F00FFF7F5F90446C6F30710E3
S3250800A360FFF7F0F9034607A009A1CDE90041CDE9025008A20DA14046FDF7B0F81EB0BDE86A
S3250800A380F08100003033303330324130220D0A003039000041542B424C45414456444154BC
S3250800A3A0413D223032303130360000002573256325632573257325730000000010B500236E
S3250800A3C0C82205A105A000F0DDFA032801D0012010BD002010BD00004F4B000041542B4200
S3250800A3E04C4541445653544152540D0A000000002DE9F047E2B0C8211AA8FAF7FCF8964DEC
S3250800A4000126DFF858A2287800274FF006080F2812D2DFE800F008122E1B38424D606A98C4
S3250800A420A211F5F4F3000023C8228DA18DA000F0A9FA032800D12E700AE10023C82288A1C9
S3250800A4408AA000F09FFA03281CD001E10023C82283A188A000F096FA0328EDD102202870C6
S3250800A4608C498D4802F050FB3CF074FC05F06EFDEEE08A4BC8227AA189A000F083FA032882
S3250800A480DAD10420E1E00023C82275A187A000F079FA0328D0D10520D7E00023C82270A1AB
S3250800A4A086A000F06FFA0328C6D185F80080CFE00023C82285A189A000F064FA07240328A1
S3250800A4C007D00023C82266A189A000F05BFA0328B2D12C70BCE00023C82261A189A000F007
S3250800A4E051FA0328A8D10820AFE01AABC8228BA18CA000F047FA03289ED1092028708DA1E7
S3250800A5001AA8FAF78FF8554E00220A212B3E435CB354D30701D0891C00E0491C521CD2B26D
S3250800A520C9B20C2AF3D337730024574606EB4400417816F8140004F07FF83855641CE4B20D
S3250800A540062CF3D384E00023C82245A17CA000F019FA03287CD10A2077E0404C13201E3C6D
S3250800A56022212070FF206070C020A070E67027716171A771E67184F8088042216172A6729A
S3250800A580E7729AF8001021739AF8011061739AF80210A1739AF80310E1739AF804102174BB
S3250800A5A09AF805006074B9461021A01CFAF79EFFA074000AE0741427642101A8FAF71BF8C9
S3250800A5C000260DF10408A05D0009FFF7BBF808F81600A05D00F00F00FFF7B4F808EB4601A0
S3250800A5E0761CB6B24870BE42EDD308F8179050214CA8FAF700F85BA001AB02E027E01BE05B
S3250800A6000FE0009058A25DA14CA8FCF767FF0023C82213A14CA800F0B5F9032818D10C20D5
S3250800A62013E00023C8220EA156A000F0ABF903280ED10D2009E009E00023C82208A155A01F
S3250800A64000F0A0F9032803D10E20287000E02F70287862B0BDE8F0872020002063750020F9
S3250800A6604F4B000041540D0A00000000415445300D0A000041542B554152545F4355523DE3
S3250800A6803830303030302C382C312C302C300D0A0000000000350C0000480040D67E0020B7
S3250800A6A041542B474D520D0A0000000041542B43574D4F44453D300D0A00000041542B42CA
S3250800A6C04C45494E49543D320D0A00002B424C4547415454535352560000000041542B42A3
S3250800A6E04C4547415454535352563F0D0A00000041542B424C454741545453535256435241
