S0220000687474703A2F2F737265636F72642E736F75726365666F7267652E6E65742F1D
S32508000000280C0020C10100086502000833020008610200082D02000831030008000000002A
S325080000200000000000000000000000009302000831020008000000009102000895020008A0
S32508000040DB010008DB010008DB010008DB010008DB010008DB010008DB010008DB01000872
S32508000060DB010008DB010008DB010008DB010008DB010008DB010008DB010008DB01000852
S32508000080DB010008DB010008DB010008DB010008DB010008DB010008DB010008DB01000832
S325080000A0DB010008DB010008DB010008DB010008DB010008DB010008DB010008DB01000812
S325080000C0DB010008DB010008DB010008DB010008DB01000815030008DB010008DB010008B6
S325080000E0DB010008DB010008DB010008DB010008DB010008DB010008DB010008DB010008D2
S32508000100DB010008DB010008DB010008DB010008DB010008DB010008DB010008DB010008B1
S32508000120DB010008DB010008DB010008DB010008DB010008DB010008DB010008DB01000891
S32508000140DB010008DB010008DB010008DB010008DB010008DB010008DB010008DB01000871
S32508000160DB010008DB010008DB010008DB010008DB010008DB010008DB0100080000000035
S32508000180DB010008DB010008DB010008DB010008DB010008DB010008DB0100080000000015
S325080001A0DB010008DB010008DB010008DFF80CD000F02AF800480047A9090008280C002023
S325080001C00648804706480047FEE7FEE7FEE7FEE7FEE7FEE7FEE7FEE7FEE7FEE79D020008CE
S325080001E0AD010008D2B201E000F8012B491EFBD270470022F6E710B513460A4604461946B1
S32508000200FFF7F0FF204610BD064C074D06E0E06840F0010394E8070098471034AC42F6D353
S32508000220FFF7C8FF800D0008A00D000800BFFEE7704700BFFEE72DE9F04104460D4616466A
S325080002400027B846274604EB860805E02046296800F0C2FA241D2D1D4445F7D3BDE8F08105
S3250800026000BFFEE77047000010B5002807DA0A07140E054A00F00F031B1FD45403E00A076D
S32508000280130E024A135410BD18ED00E000E400E07047704710B500F0E5F810BD10B5194813
S325080002A0006840F47000174908601748006840F001001549086014490831096841F08001E5
S325080002C0114A08321160002000E0401C1428FCD300200D49083108600B4800680B49084035
S325080002E0094908600A48091D0860081F006820F48020091F0860002003490C31086000F082
S32508000300F5FC10BD88ED00E000380240FFFFF6FE1030002410B540F20531044800F021FD65
S3250800032018B10521014800F00DFD10BD0010014000BFFEE702E008C8121F08C1002AFAD11A
S3250800034070477047002001E001C1121F002AFBD1704710B500F0C0F910BD10B5FF2000F071
S3250800036001F810BD10B5044600BF02210A4800F01EFC0028F9D02146074800F016FC00BFF4
S325080003800121054800F013FC0028F9D0024800F008FCC0B210BD00000030014000B587B016
S325080003A040F6014000F0E0FB40F6014000F0DCFB40F6014000F0D8FB40F6064000F0D4FB3A
S325080003C040F6064000F0D0FB41F20C1000F0CCFB44F238020521204800F024FA44F2380355
S325080003E0002202211C4800F050FA44F2380301220021194800F070FA4FF4005300220121C2
S32508000400164800F042FA4FF4005302220021134800F062FA4FF40051104800F034FA002098
S3250800042001904FF4827000900020029005904FF40070039020200690002004906946084842
S3250800044000F0BDFB0721064800F0A0FB044800F0A3FB07B000BD00000004024000180240F7
S32508000460003001400448006820B103480068401E01490860704700001C0000202DE9F0417B
S3250800048006460C46174600254FF40051144800F0F8F90320FFF766FF124800884EF6187130
S325080004A0884202D1200EFFF75DFFC4F30740FFF759FFC4F30720FFF755FFE0B2FFF752FFC4
S325080004C0002504E0FFF749FF7055681C85B2BD42F8DB4FF40051024800F0D5F9BDE8F081C3
S325080004E0001802402000002010B500244FF40051094800F0C6F90520FFF734FF00BFFFF7D4
S325080005002CFF044604F001000028F8D14FF40051014800F0B8F910BD001802402DE9F05F68
S3250800052007460E4614464FF00008C146C2460025AB4606F0FF0ACAF10000C5B22046E117B7
S3250800054004EB1161C1F30728E11704EB11610912A4EB012101F0FF09BAF1000F20D1B8F1D7
S32508000560000F05D122463146384600F07BF864E009E04FF480723146384600F073F806F51B
S32508000580807607F58077B8F10000A8F1010101F0FF08EED14A463146384600F063F84CE06D
S325080005A0B8F1000F18D1A94510DDA9EB050000F0FF0B2A463146384600F054F82E442F4498
S325080005C05A463146384600F04DF836E022463146384600F047F830E0601B84B22046E11782
S325080005E004EB1161C1F30728E11704EB11610912A4EB012101F0FF092A463146384600F036
S3250800060031F82E442F4409E04FF480723146384600F028F806F5807607F58077B8F100000E
S32508000620A8F1010101F0FF08EED1B9F1000F04D04A463146384600F015F8BDE8F09F000017
S3250800064010B54FF40051064800F01BF90620FFF789FE4FF40051024800F015F910BD000095
S32508000660001802402DE9F04106460C4617460025FFF7E6FF4FF40051154800F002F90220D2
S32508000680FFF770FE134800884EF61871884202D1200EFFF767FEC4F30740FFF763FEC4F306
S325080006A00720FFF75FFEE0B2FFF75CFE002504E0705DFFF757FE681C85B2BD42F8DB4FF4DF
S325080006C00051034800F0DFF8FFF70EFFBDE8F081001802402000002010B5FFF75FFE10BD11
S325080006E00348006840F000400149086070470000103C024000B5012200BF00F031F80246DA
S32508000700012AFAD0104600BD10B503460024FFF7F1FF0446FCB91148006820F0F8000F498B
S3250800072008600846006843F0020108430B4908600846006840F480300860FFF7DBFF044634
S325080007400648006820F00200044908600846006820F0F8000860204610BD0000103C024027
S3250800076000201349096801F48031B1F5803F01D101201CE00E49096801F0100109B10520DB
S3250800078015E00B49096801F4807109B102200EE00749096801F0EF0109B1072007E004492A
S325080007A0096801F0020109B1062000E0002070470C3C02400548006800F0004028B104489B
S325080007C002490C390860034808607047103C024023016745AB89EFCD30B503460C460025B6
S325080007E0FFF788FF0546CDB90D48006820F440700B4908600846006840F400700860084650
S32508000800006840F0010008601C60FFF773FF05460348006820F0010001490860284630BDC9
S32508000820103C0240F0B503461C6A5D6A00200DE00126864016403EB187000F26BE40B443F1
S32508000840860001FA06F63443461CB0B20828EFD3082011E00126864016405EB1A0F10806D6
S32508000860B7000F26BE40B543A0F10806B60001FA06F63543461CB0B21028EBD31C625D62CD
S32508000880F0BD8162704781617047F0B504460D4616462168E268002019E0012787401F4092
S325080008A09FB14FEA400C032707FA0CF7B943470005FA07F739434FEA400C032707FA0CF7B8
S325080008C0BA43470006FA07F73A43471CB8B21028E3D32160E260F0BDF0B50C461546012CA1
S325080008E003D146681E43466002E046689E434660826800210DE001268E401E403EB14F00C1
S325080009000326BE40B2434E0005FA06F632434E1CB1B21029EFD38260F0BD000010B5044689
S3250800092072B6606804490860206880F3088800BF08460068804710BD180000202DE9F05FD3
S325080009400746884691460025BB464446AA461FE0E0780606A07846EA0046607846EA0026D8
S3250800096020780643241D2846691C8DB20D4941F82060B5F5007F07D100254FF4007258468D
S32508000980FFF759FC0BF5006B0AF104001FFA80FACA45DDD325B12A4602495846FFF74BFCD6
S325080009A0BDE8F09F28000020B2B0C8216846FFF720FC002500F09EF9FFF7CBFC08221103FB
S325080009C06448FFF75BFD63480078012803D0614800780F2872D1FFF7EDFE0820FFF794FEC4
S325080009E01020FFF791FE1820FFF78EFE2020FFF78BFE2820FFF788FE3020FFF785FE3820D6
S32508000A00FFF782FE4020FFF77FFE4820FFF77CFE5020FFF779FE5820FFF776FE8020FFF752
S32508000A2073FE8820FFF770FE9020FFF76DFE9820FFF76AFEA020FFF767FEA820FFF764FEC9
S32508000A40B020FFF761FEB820FFF75EFEC020FFF75BFEC820FFF758FED020FFF755FE3D4818
S32508000A600078012812D13B484068C821B0FBF1F03949088037484068C821B0FBF1F201FBA0
S32508000A8012003649088049F21E0415E031484068A0F58040C821B0FBF1F02F4908802D487D
S32508000AA04068A0F58040C821B0FBF1F201FB12002A4908804DF21E04002517E044E005EB1A
S32508000AC0C50000EB051004EBC001C8226846FFF7D5FC05EBC50101EB0511214A02EBC10063
S32508000AE0C8226946FFF72AFF681C85B21A4800888542E4DB19480088D0B11748008800EBC9
S32508000B00C00202EB001004EBC001144802886846FFF7B4FC1049098801EBC10202EB011186
S32508000B200F4A02EBC1000D490A886946FFF706FF0020084908700120C8700822C103054891
S32508000B40FFF7ECFCFFF7CCFD0648FFF7E7FE00BFFEE700000C000020140000201600002087
S32508000B600040000800420008074A02EB9011D1F8001800F01F0301229A401143024B03EB77
S32508000B809012C2F80018704700300240026842F40052026001617047016841F04001016001
S32508000BA070470146C86880B27047C160704702469068084008B1012070470020FCE70246D4
S32508000BC00020106800F441500B6818434B6818438B681843CB6818430B6918434B69184354
S32508000BE08B6918431060D36923F40063D3617047002000213A4A126842F48032384B1A6063
S32508000C0000BF401C364A126802F4003111B9B0F5006FF6D1324A126802F400320AB900BF45
S32508000C20FEE72F4A4032126842F080522C4B40331A602C4A126842F440422A4B1A60284AEB
S32508000C4008321268264B08331A601A46126842F400421A601A46126842F4A0521A60224AF8
S32508000C601B1F1A601A1F126842F080721B1F1A6000BF1B4A126802F00072002AF9D0194ACF
S32508000C80126842F48032174B1A6000BF154A526802F48032002AF9D0124A126842F4003257
S32508000CA0104B1A6000BF0F4A526802F40032002AF9D00B4A0832126822F00302084B0833B6
S32508000CC01A601A46126842F002021A6000BF044A0832126802F00802002AF8D0704700009C
S32508000CE000380240007000401964400910B5FFF77FFF10BD10B5124800684FF47A71B0FB90
S32508000D00F1F4601EB0F1807F01D301200FE0601E4FF0E02148610F214FF0FF30FFF7A4FA45
S32508000D2000204FF0E021886107200861002008B100BFFEE70021481EFFF796FA10BD000075
S32508000D402400002010B5024602EB9110006801F01F040123A340184008B1012010BD002004
S32508000D60FCE710B5024602EB9110006801F01F040123A340184008B1012010BD0020FCE762
S32508000D80A00D0008000000202800000034030008C80D000828000020000C00004403000889
S32508000DA056312E33330000000000000000000000000000000000000000000000000000000A
S30D08000DC016EF000000C2EB0B60
S503006F8D
S705080001AD44
