S02F0000557073696C6F6E343030312030302E32302E30313736206230312E3130283038303034464646292E73726563A9
S31508000000FC3F0220892A00081550000819500008EC
S315080000101D50000821500008255000080000000067
S315080000200000000000000000000000002950000841
S315080000302D50000800000000315000083550000817
S31508000040395000083D500008415000084550000846
S31508000050495000084D5000085150000855500008F6
S31508000060595000085D5000086150000865500008A6
S31508000070695000086D500008715000087550000856
S31508000080795000087D500008815000088550000806
S31508000090895000088D5000089150000895500008B6
S315080000A0995000089D500008A1500008A550000866
S315080000B0A9500008AD500008B1500008B550000816
S315080000C0B9500008BD500008C1500008C5500008C6
S315080000D0C9500008CD500008D1500008D550000876
S315080000E0D9500008DD500008E1500008E550000826
S315080000F0E9500008ED500008F1500008F5500008D6
S31508000100F9500008FD500008015100080551000883
S31508000110095100080D510008115100081551000831
S31508000120195100081D5100082151000825510008E1
S31508000130295100082D510008315100083551000891
S31508000140395100083D510008415100084551000841
S31508000150495100084D5100085151000855510008F1
S31508000160595100085D5100086151000865510008A1
S31508000170695100086D510008715100087551000851
S31508000180795100087D510008815100088551000801
S30D08000190895100088D51000891
S31508000200BFF34F8FDFF8001A0A6812F4E062DFF8CE
S31508000210FC0902430A60BFF34F8F00BFFDE70A00DF
S31508000220D2B2002A02D1818981810FE00A00D2B2B6
S31508000230012A04D1818951F4B051818106E0C9B2FD
S31508000240022903D1818951F4A0518181704730B4C4
S3150800025000210021002100210021DFF8B4391A68A5
S31508000260DFF8B0190A40196811F48031140102D474
S31508000270920C921C02E0920CA2F2EF12002903D112
S31508000280DFF894194A4309E01968890303D5DFF8AA
S3150800029088194A4302E0DFF884194A43196811F0BD
S315080002A00C01002904D0042906D0082908D009E041
S315080002B0DFF86819016008E0DFF86019016004E0FA
S315080002C0026002E0DFF854190160196811F0F001C4
S315080002D00909DFF84C49615C0568CD404560196835
S315080002E011F4E061090A615C4568CD4085601968CA
S315080002F011F46051C90A615C4368CB40C360DFF8FA
S315080003002439196811F00F01DFF81C49615C44684B
S31508000310B4FBF1F14161196811F4F8710909DFF8C4
S315080003200C3911F00F0133F81110B2FBF1F101612C
S3150800033030BC704770B586B004000D000020002060
S3150800034000200020002026006846FFF780FFDFF81F
S31508000350E008864207D0DFF8DC08864203D0DFF8DB
S31508000360D808864202D1DFF8D41801E0DFF8D018A1
S3150800037019204143A800B1FBF0F26420B2FBF0F16A
S3150800038009010B001B09642000FB132210013230FF
S315080003906422B0FBF2F010F00F000143218106B091
S315080003A070BD10B5C9B2082900DB03210100C9B226
S315080003B0022972D00100C9B203296ED00100C9B260
S315080003C004296AD0C0B2052867D1DFF87808016821
S315080003D051F480110160DFF870180B6853F00103BF
S315080003E00B60DFF868381C681C600B6853F0010363
S315080003F00B600B6853F008030B600B6853F010038F
S315080004000B600B6853F020030B60DFF844180B6889
S3150800041053F480530B60DFF83C180B6833F47023F1
S3150800042053F430230B60DFF830180B6853F00403DD
S315080004300B60DFF828180B6833F4706353F4006315
S315080004400B60016831F480110160016851F4801174
S315080004500160DFF80C481100C9B22000FFF7DFFE83
S31508000460DFF80028DFF80008824204D2DFF8FC072C
S3150800047000688218FFE74FF4165120009047DFF80E
S31508000480F007018851F004010180018851F0080144
S315080004900180018851F40051018010BD80B5DFF854
S315080004A0D407DFF8D417CA7B0270DFF8D037C978CB
S315080004B01970027819780520FFF773FFDFF8C0076F
S315080004C0016831F4704151F440510160DFF8B40716
S315080004D0016831F0E06151F000710160DFF8A807AA
S315080004E0016851F00801016001BD2DE9F04F87B0A0
S315080004F000208DF80E005FF0000A00208DF80F002E
S3150800050000245FF00A090020002000250126FF21AB
S3150800051008000027DFF87407C0798DF80D00DFF8AA
S31508000520588798F809008DF80C0098F8090088F89B
S315080005300A0098F80600012861D1002088F806000C
S3150800054000208DF8100004A8002141700021817058
S315080005500021C170012101710021417100218171C1
S315080005600021C17198F80C0000281AD10FF23D5CE1
S31508000570DFF8F406844505D2DFF8F006006810EBCC
S315080005800C0CFFE701200190DFF804070090082310
S3150800059004AA042198F80200E047DFF8F816088054
S315080005A02DE0DFF8F4C6DFF8C006844505D2DFF88B
S315080005B0BC06006810EB0C0CFFE70820009004ABA3
S315080005C0DFF8D8264146DFF8C406E047DFF8D0163C
S315080005D0088014E0DFF8CCB698F8032059460DF1E8
S315080005E00E00984782465046C0B2002807D0BBF88E
S315080005F00000DFF8B41608800020ABF8000050466B
S31508000600C0B200287CD00FF61D1CDFF85CA6D445C6
S3150800061005D2DFF85806006810EB0C0CFFE7DFF888
S315080006206CB6DFF888060290DFF884060190CDF8EC
S3150800063000B0434604AADFF87006018889B2DFF8DD
S315080006407406E04798F80B10012953D15FF03C096E
S315080006504AF6AA21DFF86026116098F80C100029DE
S3150800066029D0B8F80010012925D0B8F800100329B8
S3150800067021D0B8F8001007291DD0DFF81CC6D445CC
S3150800068005D2DFF8E805006810EB0C0CFFE7DFF889
S315080006901806008880B20090DFF81836DFF8FC25C7
S315080006A041465846E0470100DFF8F425108800283F
S315080006B020D111801EE0010089B2002914D0DFF88C
S315080006C0FCC5D44505D2DFF8A415096811EB0C0C56
S315080006D0FFE7DFF8D815019180B2009004ABDFF888
S315080006E0B02541465846E047DFF8A8251188002975
S315080006F000D110800020DFF8B01508805FF0000AEE
S315080007009DF80F0000284CD0DFF8B4C5DFF858056F
S31508000710844505D2DFF85405006810EB0C0CFFE79A
S31508000720DFF8A0B5DFF8840500904346DFF85C25BE
S31508000730BBF80010DFF89005E047010089B20029F0
S3150800074018D0DFF878C5DFF820158C4505D2DFF814
S315080007501C15096811EB0C0CFFE7DFF85015019121
S3150800076080B20090DFF86435DFF824254146DFF8CB
S315080007701C05E047010089B2002906D05FF03C0954
S315080007804AF6AA21DFF830251160DFF80825118816
S31508000790002900D110800020ABF8000000208DF859
S315080007A00F009DF80C00062818DADFF8E8241088F0
S315080007B0002813D001270FF2412CDFF8AC0484453A
S315080007C005D2DFF8A804006810EB0C0CFFE7DFF889
S315080007D00035DFF8BC149DF80C00E0479DF80D00C5
S315080007E0062814DA0FF2112CDFF87C04844505D2AA
S315080007F0DFF87804006810EB0C0CFFE7DFF8D43458
S31508000800DFF89C24DFF894149DF80D00E047DFF824
S315080008108404008880B200284AD13800C0B2002873
S3150800082046D00027B8F80000082824D19DF80C0007
S31508000830052820D198F8030008281CDADFF8981450
S31508000840DFF89804814204D2DFF89404006841185E
S31508000850FFE7DFF81024DFF81004824204D2DFF83D
S315080008600C0400688218FFE798F8030051F8201076
S31508000870DFF8EC039047B8F80000062818D198F876
S315080008800C00002810D1DFF85C34DFF8DC03834263
S3150800089004D2DFF854040068C318FFE70422DFF81F
S315080008A04C14DFF84C0498470020A8F800000125EE
S315080008B09DF80C0005281CD1DFF8A413088810F051
S315080008C00F0F04D00A884FF6F07002400A80088895
S315080008D080060ED5DFF81C040088DFF8C813DFF899
S315080008E0D4230B88D0540888401C088000208DF833
S315080008F00E009DF80D0005281ED1DFF86403018857
S31508000900090703D5018851F0080101800188890784
S3150800091003D5018851F002010180008880060BD5B5
S31508000920DFF8D0030088DFF8D013DFF89C230B88A4
S31508000930D0540888401C0880DFF8C0030068C0034C
S315080009407FF55DAE641C200080B2B0F5FA6F42DB1D
S3150800095000244846C0B200282CD1002088F8080098
S31508000960DFF84C03002180F83310002180F832109C
S315080009704AF6AA20DFF840130860DFF87403006817
S3150800098010F1773F05D1032088F80600FFF738FCF9
S3150800099012E0DFF86C13B448814204D2DFF864032E
S315080009A000684118FFE78847032088F80600FFF724
S315080009B027FC01E0B9F101092800C0B2002809D0D6
S315080009C03000C0B2002801D0761E04E00025FFF7EB
S315080009D017FC00E001269DF80C000628BFF60FAEAE
S315080009E00FF28D03A0488342BFF4F4AD9F48006818
S315080009F0C318EFE50000000030B41488002C35D089
S31508000A000400E4B2052C0BD19E4C256835F0E06550
S31508000A1055F000752560BC4C256855F0080525601D
S31508000A200400E4B2052C07D11C88095DB14C21806D
S31508000A308B4909884906FBD51988491C1980C0B213
S31508000A4005280BD18F48016831F0E06151F000713B
S31508000A5001608D48016851F0080101601888118805
S31508000A60884203D3002010800020188030BC7047CD
S31508000A700988002915D00178491C0170A34B9749AC
S31508000A808B4203D296490968CB18FFE70178D2B2A0
S31508000A9033F8122089B2914205D300210170012052
S31508000AA002E00021017000207047000070B50400C4
S31508000AB0049D059800262C70FF246C70C0B200288F
S31508000AC001D051F40041080080B2000AA870E9700C
S31508000AD0180080B2000A28716B71180080B240F2C3
S31508000AE05921884203DA180080B2002801D1002073
S31508000AF028E0002407E0200080B2105C210089B2BB
S31508000B0029448871641C2000190080B289B2884281
S31508000B10F1D3A41D7E4A5448824203D27248006823
S31508000B208218FFE7210089B228009047210089B280
S31508000B306854641C80B2000A210089B26854641C97
S31508000B40200080B270BD30B4584908700020487043
S31508000B506B2088700020C8700022002312E009E08C
S31508000B6015006A1CDFF85C4C5C488442F7D25C4886
S31508000B70006804191800C0B2205CEDB201EB050448
S31508000B8020715B1C1800C0B20428E9DB002312E0C0
S31508000B9009E015006A1CDFF8304C50488442F7D249
S31508000BA04F48006804191800C0B2205CEDB201EB8A
S31508000BB0050420715B1C1800C0B20328E9DB00237A
S31508000BC01800C0B2022819DA15006A1CDFF8FC4BB7
S31508000BD04248844200D302E04148006804191800DC
S31508000BE0C0B2205CEDB201EB050420715B1CE7E79F
S31508000BF000201300DBB20B441871521C1000C0B25F
S31508000C000A28F5DB30BC70470CED00E00400FA0555
S31508000C100410024000003C0800093D0000127A005A
S31508000C20544F00082C100240444F0008244F000877
S31508000C3000380140005001400054014000A24A0417
S31508000C40005125021C1002401810024020000140E5
S31508000C501010014004100140101401400014014016
S31508000C60005000403503000801020020040000205F
S31508000C700C5000401E3A002014000020183A0020AC
S31508000C80000C014004000140140C0140240000201F
S31508000C901F3A0020A54300202F190008DF3E002038
S31508000CA0A1430020BD430020AD430020E000002002
S31508000CB0A80000207F3C002000300040111A0008E0
S31508000CC0D1170008A94300203F41002045410020D4
S31508000CD0B5430020B1430020984F00080138002092
S31508000CE010000020991D000800000020033A00208B
S31508000CF00450000804500040B943002010E000E00A
S31508000D002F2700080C000020100C0140BC4F0008DB
S31508000D101920000830B4030000201C780D78AC4276
S31508000D2039D1DC7BD279944235D1002201E000200A
S31508000D30521C1400E4B2022C0ADA1000C0B218449D
S31508000D4040781400E4B20C446478A042EFD0012045
S31508000D50002201E00020521C1400E4B20A2C0DDA2D
S31508000D601400E4B21C4424791500EDB20D442D7923
S31508000D70AC4202D1C0B20028ECD00120C0B2002893
S31508000D8007D1987B897B884201D0012004E00020A6
S31508000D9002E0012000E0022030BC70472DE9F84F40
S31508000DA000250C00A4B20F2694FBF6F706FB1744A1
S31508000DB0002C40F0B480002401E00F39641C0E00BA
S31508000DC0B6B20F2EF9DA1600F17B51FA84F106292C
S31508000DD080F2A5805FF0000800901F002BE03A0023
S31508000DE051465846FFF796FF01282DD019F10109FB
S31508000DF04846C0B2F17B491C88421ADA0099424635
S31508000E00D2B20F20424301EB020010F1060A48460F
S31508000E10C0B216EB001B3A0051465846FFF77AFF58
S31508000E200028DCD14046C0B22100C9B2491E88421A
S31508000E3075D018F1010840462100C0B2C9B28842EF
S31508000E4007D25FF00009D3E70020B073FF20F073E4
S31508000E5065E0B07B401CB073002115E084465FFA5C
S31508000E608CFC94449CF804C086465FFA8EFE9E4429
S31508000E708EF804C0401C84465FFA8CFCBCF10A0F4D
S31508000E80ECDB907B9873491C08002200C0B2D2B2F2
S31508000E90904241D2009A0B00DBB20F20434302EB8B
S31508000EA00300821D0800C0B2002809D1787B537858
S31508000EB0984206D1B87B9378984202D1FD7B00E030
S31508000EC00025F07B50FA81F0401C16EB0013F879E8
S31508000ED0D873107818702800C0B2002805D050784A
S31508000EE0587090789870DD7014E000200CE0844605
S31508000EF05FFA8CFC94449CF801C086465FFA8EFE25
S31508000F009E448EF801C0401C84465FFA8CFCBCF1F6
S31508000F10030FECDB0020AEE7F07B2418F473BDE882
S31508000F20F18F00002DE9F84F86B090461D0000228B
S31508000F300022002200228DF8022000228DF80120CE
S31508000F400026002200228DF80A2000228DF80920AA
S31508000F5000228DF8082000228DF8032004AA002319
S31508000F600024C2E9003400270022EA72DFF8983A22
S31508000F70DFF8982A934204D2DFF8F42B1268D318C4
S31508000F80FFE7ADF80C100400BDF80C1020009847D8
S31508000F90002840F012842078A978884203D0207867
S31508000FA0F72840F00A846078FF2840F00684A07885
S31508000FB00002E178401821790902627911EB020BE7
S31508000FC02880DDF840A0DDF8449080B2002812D0D1
S31508000FD0012820D003283DD0042850D0052800F049
S31508000FE0F782062800F06083072800F08B8308281C
S31508000FF000F0C683E1E31FFA8BFBBBF1020F09D1B0
S31508001000A079002806D1E079012803D101202871AA
S315080010100120E872D1E31FFA8BFBBBF1020F18D14E
S31508001020A079002815D1E079012812D1002028716D
S315080010300120E87200206873F7208AF804002078F7
S31508001040F72806D0002088F80000002088F801005C
S315080010500227B2E31FFA8BFBBBF1020F0ED1A07970
S3150800106000280BD1E079012808D10120E8722879F7
S31508001070002803D12078F72800D00F279DE358468B
S3150800108080B24328C0F2A38204A80190E079401EEA
S31508001090032110FB01F08DF800002078F72800F0F6
S315080010A096820120E872A07901280BD1E8790128F7
S315080010B01CD0E879022819D001208DF802000020FA
S315080010C0E87113E0A079022808D1E87902280DD042
S315080010D001208DF802000120E87107E0A0790328B5
S315080010E004D101208DF802000220E871E079019907
S315080010F0C870FF2001998870DFF8783ADFF80C0984
S31508001100834204D2DFF8680A0068C318FFE7019A29
S3150800111014F1080112989847012856D101208DF834
S315080011200A00DFF8542ADFF8E408824204D2DFF81E
S31508001130400A00688218FFE79DF80000204410F175
S315080011400B011298019B1B785B1E10EB031090474E
S31508001150012802D101208DF80900DFF8202ADFF8DE
S31508001160AC08824204D2DFF8080A00688218FFE752
S315080011709DF80000204410F10B011298019B1B7882
S315080011805B1E10EB03109047012802D101208DF851
S315080011900800DFF8EC29DFF87408824204D2DFF889
S315080011A0D00900688218FFE79DF80000204410F176
S315080011B00B011298019B1B785B1E10EB03109047DE
S315080011C0012802D101208DF803009DF802000028AD
S315080011D000F0C9809DF80A00002800F0C4800020AD
S315080011E0AAF81000E87902283ED19DF809000128DE
S315080011F036D101202872019840788AF804000198AF
S3150800120080788AF80700E0790228C0F2AF800120CA
S315080012108DF80100A0798AF81C00E079401E8AF84A
S315080012201D00002008E0010089B22144C97A0200A5
S3150800123092B252449177401C010089B25A4692B242
S31508001240521F9142EFDB9AF82000002802D00020B6
S315080012508AF82000BDF80C000B38AAF8100085E0C3
S31508001260002028723C2681E0E87901283DD19DF8C6
S315080012700800012835D101202872019840788AF89B
S315080012800400019880788AF80700E07902286DDB67
S3150800129001208DF80100A0798AF81C00E079401E2B
S315080012A08AF81D00002008E0010089B22144C97AA5
S315080012B0020092B252449177401C010089B25A4604
S315080012C092B2521F9142EFDB9AF82000002802D012
S315080012D000208AF82000BDF80C000B38AAF8100088
S315080012E044E0002028723C2640E09DF803000128CF
S315080012F035D101202872019840788AF804000198AF
S3150800130080788AF80700E07902282FDB01208DF81B
S315080013100100A0798AF81C00E079401E8AF81D00B1
S31508001320002008E0010089B22144C97A020092B27D
S3150800133052449177401C010089B25A4692B2521F14
S315080013409142EFDB9AF82000002802D000208AF8A4
S315080013502000BDF80C000B38AAF8100006E00020A3
S3150800136028723C2602E0002028723C26287A0028AB
S3150800137002D0002089F8340099F83400002806D0F5
S31508001380287B9DF80110884201D03C2602E09DF892
S3150800139001002873287B002840F0F7809DF800009C
S315080013A02044407D9DF800102144897D090411EBF5
S315080013B000619DF800002044C07D11EB00219DF8D6
S315080013C000002044007E51FA80F0C9F800009DF81C
S315080013D000002044407E9DF800102144897E0904BF
S315080013E011EB00619DF800002044C07E11EB00213E
S315080013F09DF800002044007F51FA80F0C9F80400E7
S31508001400DFF88077DFF804A6574504D2DFF86007CF
S315080014100268D21900E03A009DF80000204410F155
S315080014201D010020904789F82E00574504D2DFF8A1
S3150800143040070268D21900E03A009DF800002044EF
S3150800144010F11D010120904789F82F00574504D255
S31508001450DFF81C070268D21900E03A009DF8000080
S31508001460204410F11D010220904789F830005745A5
S3150800147005D2DFF8FC060068C7193A0000E03A0012
S315080014809DF80000204410F11D010320904789F8BB
S315080014903100E879022802D0E879012806D1D9F87E
S315080014A00000B0F1006F08D0232606E0D9F8000046
S315080014B0DFF8D416884200D02326002000E0401C1E
S315080014C0010089B220290CDA010089B24944897BD6
S315080014D09DF8002012FA80F2224492F829209142BF
S315080014E0EDD080B2202818DA00200BE09DF8001015
S315080014F011FA80F1214491F82910020092B24A4467
S315080015009173401C010089B22029EFDB002089F87D
S3150800151033000020C9F8080016E0002100E0491C45
S31508001520080080B2202805DA080080B24844807B8B
S315080015300028F4D089B2202903DA012089F833007B
S3150800154002E0002089F83300D9F80800000E88F870
S315080015500000D9F80800000C88F80100D9F808003E
S31508001560000A88F80200D9F8080088F80300012064
S3150800157088F80400002088F80500300080B2000AC8
S3150800158088F8060088F807600827300080B2002827
S315080015901DD00020287200202873002088F800003B
S315080015A0002088F80100002088F80200002088F84A
S315080015B00300002088F80400002088F805003000A1
S315080015C080B2000A88F8060088F807600827F4E061
S315080015D0287A002867D00120E87201206871241D46
S315080015E0287B002801D03A2132E0A879042801D1C5
S315080015F000212DE099F83400002819D1012089F836
S3150800160034000020A9F80C0099F83300002809D105
S315080016100020C9F80800012089F83200002089F85E
S31508001620350005E0002089F83300012089F83200EA
S31508001630DFF85835DFF8D403834204D2DFF83005E3
S315080016400068C318FFE7EA79494620009847010071
S315080016502879002827D1080080B23A2823D0080024
S3150800166080B200280BD0002005E0002203009BB2C0
S315080016704B449A73401C020092B2202AF5DBA078EC
S3150800168088F80000E07888F80100207988F80200D8
S31508001690607988F80300080080B2000A88F8040018
S315080016A088F80510062788E01FFA8BFBBBF1020FA6
S315080016B027D1A079AB2824D1E079AB2821D1012004
S315080016C0E872287900281CD1287B002819D1D9F876
S315080016D00810D9F800004118B9F80C000818D9F80C
S315080016E00410491C884206D1002088F80000002012
S315080016F088F8010004E0FF2088F8000088F8010057
S3150800170002275AE01FFA8BFBBBF1020F37D1A87AE2
S31508001710062812DAA079002831D1E07901282ED1DD
S315080017200120E8722879002829D1002088F80000CD
S31508001730A87888F80100022721E0A079002812D1AC
S31508001740E07901280FD12078F7280CD1687B00288A
S3150800175009D10120E872002088F80000A87888F8E6
S31508001760010002270BE0A079002808D1E0790128BA
S3150800177005D12078A978884201D1012068731CE038
S315080017801FFA8BFBBBF1020F16D1A079002806D1F0
S31508001790E079082803DA0120E872E079E870287908
S315080017A0002809D1E87A002806D0002088F8000029
S315080017B0002088F801000227FFE7380080B207B04A
S315080017C0BDE8F08FF84F000800500008FC4F0008ED
S315080017D0F8B506000D0014000020A0718B4F8A4A48
S315080017E0BA4204D2DFF8880300688218FFE72900A6
S315080017F089B230009047002840F09780B078000200
S31508001800F17840183179090272798918608032783E
S3150800181023799A4240F08980020092B248F2010385
S31508001820D21A0AD0921E1ED0521E3CD0521E50D03A
S31508001830521E64D0921E62D077E0228812F50042CA
S3150800184080B282420ED189B202290BD1B079002822
S3150800185008D1F079002805D10120A071B5F108005A
S3150800186080B263E061E0228812F5004280B28242CB
S3150800187018D1080080B20F2814DBDFF814C3BC4562
S3150800188005D2DFF81003006810EB0C0CFFE7069A88
S31508001890230089B23000E0470120A071B5F10800A5
S315080018A080B243E041E0228812F5004280B28242CB
S315080018B00ED189B208290BD1307B002808D1707B5C
S315080018C0002805D10120A071B5F1080080B22DE0ED
S315080018D02BE0228812F5004280B282420ED189B2EC
S315080018E006290BD1B07A002808D1F07A002805D14C
S315080018F00120A071B5F1080080B217E015E0228832
S3150800190012F5004280B282420ED189B202290BD169
S31508001910B079002808D1F079002805D10120A071F6
S31508001920B5F1080080B201E0FFE70020F2BDF0B58E
S3150800193085B004001D000A9B00200E882680268894
S31508001940761E4BD0B61E49D0761E05D0761E022EC0
S3150800195044D9F61E12D053E08F4D2C48854203D247
S315080019608C4800684519FFE7002001900092238AF9
S3150800197014F11C0221882079A84741E0487A0628F4
S3150800198002DBE079062817DA00208DF8080083487C
S31508001990007A8DF80900804D1C48854203D27D489F
S315080019A000684519FFE7002001900092022302AA69
S315080019B021882079A84710E0774E1448864203D23A
S315080019C0744800688619FFE7002001900092083BDA
S315080019D09BB2AA1D21882079B04711E06E4E0B48AC
S315080019E0864203D26B4800688619FFE700200190FB
S315080019F00092083B9BB2AA1D21882079B047FFE7D1
S31508001A0080B205B0F0BD00001920000801020020D0
S31508001A10F0B599B004001D0000200B882380897852
S31508001A2061712188491E00F08D80891E04D0491EE7
S31508001A30042940F2878097E01F99CB7B062B80F21A
S31508001A408080C87B401C0F2310FB03F3002523E08E
S31508001A500DF1080CAE465FFA8EFE0F2000FB0EFE57
S31508001A605EFA87F06044BC465FFA8CFCB4449CF886
S31508001A7004C080F804C07F1C3800C0B20A28E7DB1F
S31508001A80B67B02AFAC465FFA8CFC0F2000FB0CFC61
S31508001A9007EB0C0086736D1C2800C0B2CE7B761C43
S31508001AA0B0422ADA2800C0B211EB001637780DF1D9
S31508001AB0080CAE465FFA8EFE0F2000FB0EFE0CF8F1
S31508001AC00E70002713E00DF1080CAE465FFA8EFE85
S31508001AD00F2000FB0EFE5EFA87F06044BC465FFAF4
S31508001AE08CFCB4449CF801C080F801C07F1C380007
S31508001AF0C0B20328E7DB0027BEE729498879002812
S31508001B0002D0087A00280CD0002006E0002102AD99
S31508001B100600F6B235442972401C0100C9B20329F1
S31508001B20F4DB1D4D1F48854203D21A480068451943
S31508001B30FFE70120019000929BB202AA21886079F2
S31508001B40A84711E0144E1748864203D21148006888
S31508001B508619FFE71E9B0120019000929BB22A007E
S31508001B6021886079B047FFE780B219B0F0BD000060
S31508001B7000000020DF210008CF210008A721000867
S31508001B80612100089920000800500008391E000845
S31508001B909D0D000804000020AD0A0008240000205E
S31508001BA014000020010200200620DFF8BC070168A7
S31508001BB0C90701D5012014E00168490701D50320AA
S31508001BC00FE00168090701D504200AE00168C90683
S31508001BD001D5052005E00068400601D5072000E08C
S31508001BE00620C0B2704770B504000620DFF87C579F
S31508001BF0DFF87C67AE4204D2DFF878070068801900
S31508001C0000E03000804709E0300005E0AE42FBD234
S31508001C10DFF86007006880198047641E0100C9B2B2
S31508001C20012901D1002CF1D1002C00D10A20C0B223
S31508001C3070BDF8B504000620DFF82C07016851F0DE
S31508001C407C010160DFF82467DFF82C57B54204D21F
S31508001C50DFF820070168491900E029005FF4302001
S31508001C6088470100C9B206291BD1DFF81077386802
S31508001C7050F002003860DFF808070460386850F052
S31508001C8040003860B54204D2DFF8E8060068451916
S31508001C90FFE75FF43020A8473A6843F6FD710A402B
S31508001CA03A60C0B2F2BD2DE9FC4104000D000620E1
S31508001CB00020009014F0030F02D00920C0B233E0D0
S31508001CC0DFF8A406016851F07C010160DFF89C7614
S31508001CD0DFF8A466BE4204D2DFF8980601688919BF
S31508001CE000E031004FF4005088470100C9B20629C8
S31508001CF019D1DFF88886D8F8000050F00100C8F836
S31508001D0000002560BE4204D2DFF86806006886191E
S31508001D10FFE74FF40050B047D8F8002043F6FE71AD
S31508001D200A40C8F80020C0B2BDE8F68138B50400FC
S31508001D300D000620A54201D209202CE0DFF8440652
S31508001D40DFF844160160DFF84416016001E014F577
S31508001D500064A54218D3DFF83816DFF8100681426A
S31508001D6004D2DFF8100600684118FFE7200088470C
S31508001D700100C9B20629EAD0DFF800160A6852F04F
S31508001D8080020A60C0B206E0DFF8F005016851F08B
S31508001D9080010160062032BDF8B506000C0015006A
S31508001DA006200021002702E0FF2161556D1C15F071
S31508001DB0030FF9D1DFF8DC158E4200D30920DFF8CE
S31508001DC0C415DFF8C4250A60DFF8C0250A6000E0FC
S31508001DD00120391D8D4227D3C0B2062824D1DFF849
S31508001DE088050068C007F3D4E05D04EB070149786D
S31508001DF00902091804EB0700807811EB004104EB8F
S31508001E000700C07811EB0061DFF88C25DFF85C0568
S31508001E10824204D2DFF85C0500688218FFE73000CA
S31508001E209047361D3F1DD4E7DFF85005016851F08D
S31508001E30800101600620F2BD2DE9F84F04000D006F
S31508001E4016004FF6FF7A2078000261784018B0F144
S31508001E500408A078E178090411EB0061207911EBF8
S31508001E60002160790F18D5F8009019EB070995F845
S31508001E703200002838D095F83500002834D13000D3
S31508001E80C0B2022803D03000C0B2012813D1DFF84F
S31508001E900C25DFF8D804824204D2DFF8D80400689B
S31508001EA08218FFE7DFF8F8145FF00060904706280D
S31508001EB015D00120AEE0DFF8E424DFF8B004824252
S31508001EC004D2DFF8B00400688218FFE7DFF8D414FC
S31508001ED0DFF8D4049047062801D001209AE05FF085
S31508001EE0000A012085F8350068684845C0F09080EA
S31508001EF095F83200002800F08B800FF2F11CDFF80D
S31508001F006CB4DC4505D2DFF86C04006810EB0C0CE9
S31508001F10FFE715F12E03A21DA11D404680B2E0473A
S31508001F200FF201235B4504D2DFF848040068C318A2
S31508001F30FFE7424692B2A11D484698473000C0B214
S31508001F40022802D0F6B2012E05D1DFF848048145F1
S31508001F500AD323205EE0DFF85004B9EB0000B0F5A1
S31508001F60EE2F01D3232055E0A868A9894018B84266
S31508001F702BD1404680B2B0F5157F11DA002007E074
S31508001F80414689B211FA80F12144FF228A71401C28
S31508001F90010089B2424692B2D2F515729142EFDB40
S31508001FA0DFF808345B4504D2DFF8C8030068C318B5
S31508001FB0FFE7424692B2A11D48469847062802D135
S31508001FC05FF0000A01E05FF0300A002000E0401CE4
S31508001FD00100424689B292B291420BD2010089B2FF
S31508001FE021448979020092B219F802209142EED072
S31508001FF05FF0300A414680B289B2884201D15FF06B
S31508002000000A504680B2002802D1AF60A5F80C80BD
S31508002010504680B2BDE8F28FF0B54FF6FF72002445
S3150800202022E014E0B446AE465FFA8EFE13009BB279
S3150800203093EA0E0E1EF00F0E3CF81E3092B293EA8B
S315080020401213BE42EDD2DFF8682312689619EDB274
S315080020501A0092B292EA251212F00F0236F81220EE
S315080020609BB292EA1312641C23000D009BB2ADB218
S31508002070AB420ED20578401CDFF83873DFF83863B8
S31508002080BE42CFD2DFF82833D3F800C01CEB060CCB
S31508002090C9E7100080B2F0BD02001000C0B2085CAB
S315080020A0D0F1FF001300DBB20B441B791818D2B22B
S315080020B01144097A0818C0B2704730B4002300E00A
S315080020C05B1C1C001500A4B2ADB2AC4209D21C00C0
S315080020D0A4B2045D1D00ADB24D5DAC42F0D0012046
S315080020E000E0002030BC70470000000070B40025F6
S315080020F00FE02C00A4B20E5DF643DC7866409C78AF
S31508002100A6195C78361B1C7866402C00A4B21655B6
S315080021106D1C2C000600A4B2B6B2B442E9D370BC5A
S315080021207047000070B4A54B834217D310FA82F2A9
S31508002130934213D200220DE01C1A14FA82F40C5DA5
S315080021409F4D1600B6B2AC551C1A14FA82F4FF2538
S315080021500D55521C1400A4B2042CEDDB70BC70475C
S31508002160F8B504000D00814E964FB74203D2814858
S315080021700368DB1900E03B000422211D280098476C
S3150800218000280ED1B74203D27A480068C719FFE77C
S31508002190022214F10B01E81DB847002801D10120DD
S315080021A000E00020F2BD10B50B00864C6F498C424A
S315080021B003D2704909680C19FFE70422011D1800AB
S315080021C0A047002801D1012000E0002010BD0079B9
S315080021D00978884201D1012000E00020704770B5D7
S315080021E00024002513785B1C13701378072B01DB7A
S315080021F0002039E0D378002B01D1002034E0437861
S315080022000E78B3421AD183784E78B34216D1C37882
S315080022108E78B34212D113795B1C13711379022B92
S3150800222003D103785370C37B9370D378012B01D104
S31508002230012019E0D3785B1ED3706D1C1378062B2A
S3150800224011DA641C604E494B9E4203D2494B1B6807
S315080022509E19FFE7EDB203235D432944E4B210EB70
S315080022600410B04700E0002070BD2DE9F0410500DC
S315080022704FF6FF70002D02D00C00002C01D139203A
S315080022806FE02E68A888871EDFF8E080DFF83CC17B
S31508002290C44504D23748006810EB0C0CFFE714F16C
S315080022A03103AA1DA91D380080B2E04794F8300012
S315080022B0022803D094F83000012805D1E068354992
S315080022C0884209D323204CE0E1683748091AB1F55A
S315080022D0EE2F01D3232044E0022E0BD13C4B43457D
S315080022E003D224480068C318FFE73A0092B2A91D32
S315080022F0E06898472D4B434503D21E480068C3182B
S31508002300FFE73A0092B2A91DE0689847062801D16E
S31508002310002000E03020002100E0491C0A003B00B4
S3150800232092B29BB29A420CD20A0092B22A4492798D
S31508002330E3688C461FFA8CFC13F80C309A42ECD0F2
S3150800234030203A0089B292B2914200D100200100B1
S3150800235089B2002904D12660E16811FA87F1E160A3
S3150800236080B2BDE8F08100000C2002400102002086
S31508002370A91B000800000020E71B000810200240E7
S31508002380142002400420024023016745AB89EFCDA3
S31508002390331C000800000808A71C00082D1D0008AB
S315080023A0FFFF0708FFBF070800500008991D00082F
S315080023B01000002001380020CC4F00080450000807
S315080023C0033A0020BB200008DF210008ED200008A2
S315080023D025210008BFF34F8FDFF81C160A6812F490
S315080023E0E062DFF8180602430A60BFF34F8F00BFAA
S315080023F0FDE710B40022038813F441530C884A8879
S3150800240014438A881443CA8814430A8914434A8998
S3150800241014438A891443CA89144323430380838B4C
S315080024204FF2FF7213408383098A018210BC7047FA
S3150800243018B585B0DFF8C805016851F0400101609C
S31508002440DFF8C0150A6832F0706252F030620A602E
S31508002450026852F0800202600A6822F0704252F066
S3150800246030420A60026852F020020260086830F4BE
S31508002470700050F430000860DFF88C05016851F0F0
S3150800248008010160DFF88405016831F4704151F4F0
S3150800249040510160DFF87805016831F48051016028
S315080024A0016851F4805101600020ADF800004FF436
S315080024B08270ADF802000020ADF804000220ADF8E5
S315080024C006000120ADF808004FF40070ADF80A00C8
S315080024D00820ADF80C000020ADF80E000720ADF876
S315080024E01000DFF8304569462000FFF782FF208894
S315080024F050F04000208006B010BDFF22DFF81835E6
S315080025001988890704D411004A1EC9B20029F5D1D1
S315080025101100C9B2002901D1002012E0DFF8FC142D
S31508002520C0B208801888C00704D41000421EC0B282
S315080025300028F7D1D2B2002A01D1002001E008888C
S31508002540C0B270472DE9F04180460C001500DFF84F
S31508002550D004016851F008010160DFF8C864DFF8AB
S31508002560C874B74204D2DFF8C4040168C91900E088
S31508002570390003208847B74204D2DFF8B00401685F
S31508002580C91900E039004046000CC0B28847B74276
S3150800259004D2DFF898040168C91900E039004046FA
S315080025A0000AC0B28847B74204D2DFF8800401683F
S315080025B0C91900E039004046C0B288475FF00008F4
S315080025C00EE0390005E0B742FBD2DFF86004016887
S315080025D0C919A5208847414689B2685418F10108E7
S315080025E04046210080B289B28842ECD3DFF818044D
S315080025F0016851F0080101600020BDE8F0812DE96D
S31508002600F84305000C000020ADF800000327DFF8AA
S315080026102064307800280AD1002C06D041F2010047
S31508002620281ADFF81014884214D300207DE0002C05
S3150800263006D0DFF80404281ADFF8F813884209D30D
S31508002640002072E0220001214FF48050984720783C
S3150800265000282DD03800471EC0B2002864D0307834
S3150800266000280ED141F20100854221D1DFF8CC3392
S31508002670DFF8B0038342E5D2DFF8B0030068C31879
S31508002680E0E7DFF8B403854212D1DFF8B033DFF8AC
S315080026909403834204D2DFF894030068C318FFE763
S315080026A022000121DFF89803984720780028D1D125
S315080026B0DFF87083DFF88493C14505D2DFF86C0331
S315080026C0036813EB090300E04B466A460221281DFE
S315080026D09847BDF80000B0F5167F03DABDF800008C
S315080026E0002800D1B6E7C14505D2DFF840030068E7
S315080026F010EB0909FFE72200BDF80010891D89B211
S315080027002800C847DFF83C23424504D2DFF83803DF
S3150800271000688218FFE7BDF80010A01D9047002842
S3150800272098D1BDF8000000E00020BDE8F2832DE94D
S31508002730F84F90B0002000200020002000264AF61E
S31508002740AA20DFF80813086041F201040494B84887
S315080027500078012801D1B8480490B24FDFF8F0821A
S31508002760B84504D2B148026812EB080200E04246B6
S31508002770DFF8E0924946049890470500CA46DAF819
S315080027800000DAF806100091012840F03181019026
S315080027909AF80A000E2840F02B819AF81F008DF847
S315080027A038009DF8380002280BD101208DF83D002D
S315080027B001200290009803909DF83D00002819D149
S315080027C016E1A548C1789AF80B20914211D1817873
S315080027D09AF80C2091420CD140789AF80D1088424C
S315080027E007D101208DF83D00012002900098039042
S315080027F0E2E7FDE0DFF864B2BB4504D2924802681E
S3150800280012EB0B0200E05A461AF11301002090471A
S315080028108DF83900BB4504D28B48026812EB0B02CF
S3150800282000E05A461AF11301012090478DF83A0044
S31508002830BB4504D28448026812EB0B0200E05A46F4
S315080028401AF11301022090478DF83B00BB4505D2CB
S315080028507D48006810EB0B0B5A4600E05A461AF101
S315080028601301032090478DF83C005FF0010A11E040
S3150800287048461AF101010268914224D11AF1010170
S31508002880009A914204D28088801E10F0030F1BD153
S315080028901AF1010A0098824517D20498ADB2AD1D07
S315080028A02D180495B84504D26048026812EB080250
S315080028B000E042464946049890470500280080B241
S315080028C00028D5D194E093E092E004945848007823
S315080028D0012801D158480490B84504D253480268E3
S315080028E012EB080200E04246494604989047040065
S315080028F0200080B215287BDB9DF83800022803D01B
S315080029009DF83800012810D1554ABA4203D24E48DC
S3150800291000688218FFE753495FF000609047062871
S3150800292066D15FF0006005900DE04D4ABA4203D2C9
S31508002930454800688218FFE74B4D4C4928009047E8
S31508002940062855D105950498A4B2A41D2418049404
S315080029500020DFF8F8A04AF6AA2BCAF800B03BE038
S3150800296042464946049890470400200080B2002851
S315080029703ED0484605680199491CA94238D13C4AC7
S31508002980BA4203D2304909688A18FFE702A9904774
S3150800299080B2002827D10498A4B2A41D2418049450
S315080029A001950098854211D1324BBB4203D2264885
S315080029B00068C318FFE704222F49304898470628BD
S315080029C016D103202E498871FFF704FD2D480068AB
S315080029D0C00301D5CAF800B0B845C1D21348026889
S315080029E012EB0802BDE7761C3000C0B20528EDDB05
S315080029F011B0BDE8F08F00000CED00E00400FA0508
S31508002A001408014000080140101001400010014060
S31508002A101810024000300140083001400C300140D7
S31508002A201410014001020020FB2400080C000020BD
S31508002A3026F10120FF5F09000170490045250008BD
S31508002A4000704900192000080000002000300040EE
S31508002A50FF2500087F3C0020F84F00089920000851
S31508002A602D1D0008FFFF070800500008FFBF0708D4
S31508002A706B220008991D0008033A0020045000083C
S31508002A801400002010E000E072B6002000210022A9
S31508002A900023002400250026002714481449016055
S31508002AA00A6882F3088813488047134800470F4886
S31508002AB00F4901600A6882F3088870470F48104971
S31508002AC000220260001D8842FBD370470D480B495F
S31508002AD000220260001D8842FBD3704748F29A1014
S31508002AE0C1F6FF70D0F8000070470000FC3F0220D6
S31508002AF000000008B53B0008353C0008000200202D
S30D08002B00FF3F0220000000203F
S31508003B00BFF34F8FB0490A6812F4E062AF48024328
S31508003B100A60BFF34F8F00BFFDE700200020002298
S31508003B20AB49086850F480300860086810F4003023
S31508003B30400C521CC0B2002802D1B2F5004FF4D195
S31508003B40086810F40030400CC0B2002831D0A148F3
S31508003B500268920892000260026852F0040202604B
S31508003B609D4A10681060106850F400501060106884
S31508003B7050F4A060106013689848034013601368F7
S31508003B8053F48033964803431360086850F08070F6
S31508003B90086008688001FCD51068800880001060FD
S31508003BA0106850F002001060106810F00C00082829
S31508003BB0FAD1704780B58B48016851F470010160ED
S31508003BC08349086850F001000860834A13688648EC
S31508003BD0034013600B68854803400B60086830F49F
S31508003BE080200860116882480140116000208149E0
S31508003BF008600020804908605FF41F007F4908605C
S31508003C007F48016851F0805101607E490A6852F088
S31508003C1001020A60016831F0805101606D4801684F
S31508003C2051F090010160FFF778FF5FF00060764978
S31508003C30086001BD80B5FEF73AFFFEF73FFF00F0CA
S31508003C4001F801BD80B572B64FF6FF710800411E36
S31508003C5080B20028FAD100F02EF801BD6B48016841
S31508003C6051F0800101606A490A6822F0704252F0F8
S31508003C7040520A60026852F0400202600A6832F056
S31508003C80706252F040720A6062490A6852F4007221
S31508003C900A6061490A6832F0F00252F030020A609E
S31508003CA0026852F48072026008680009000150F048
S31508003CB003000860704738B50020584845F255514A
S31508003CC001600621564A116040F6FF71554A116097
S31508003CD04CF6CC410160544CA579FEF7F7FE280056
S31508003CE0C0B203280AD15148006810F1773F05D1C0
S31508003CF0FEF7DDFEFEF7E2FE01F086F92800C0B207
S31508003D00042801DAA57101E0FFF7FAFE0020484908
S31508003D10086048F69F4047490860072046490860FA
S31508003D204648016851F01C010160FFF797FF012022
S31508003D3043490870FEF77CFB5220A070052060728C
S31508003D400320E070FF203F49C8710020E07352202D
S31508003D50FCF7F9FEFCF7A2FB09E007E088473A49B9
S31508003D603A488142F9D23A48006841188847394B9F
S31508003D70394A4FF45851394800F082F801280AD1D7
S31508003D805FF0C05032490860354908605FF000515D
S31508003D90086034490860344B344A4FF4807134481B
S31508003DA000F06EF8012802D1324833490860A0793C
S31508003DB00228D4D10120A071304924488142CDD2AD
S31508003DC0284800684118C9E70CED00E00400FA0528
S31508003DD0001002400020024004100240FFFFC0F716
S31508003DE00000040888ED00E000C0FFF8FFFFF6FEBB
S31508003DF0FFFF00F72C100240301002400810024066
S31508003E001C1002400C70004008ED00E01010014044
S31508003E100010014014100140041001400030004019
S31508003E200430004008300040140000200450000808
S31508003E3018E000E014E000E010E000E0181002408E
S31508003E400C3A002024000020EB04000801020020A0
S31508003E5004000020FF3700080002000800020020C6
S31508003E60080000200C000020FF4F0008004F000843
S31508003E700038002000E9FF17100000202F2700084F
S31508003E8010B489B29C1AA14206DA002010BC704709
S31508003E9011780170401C521C9A42F9D30120F5E7AB
S31508004F24010002000400060008000A000C00100034
S31508004F34200040008000000100010001000100017A
S31508004F4401020406080A0C10202020202020202014
S31508004F54000000000102030401020304060708090D
S31508004F6400000000F84F0008FC4F0008453C000804
S31508004F74250F0008D11700082F190008111A000870
S31508004F84000000000000000000000000000000000F
S31508004F94FF000000B004000060090000C012000011
S31508004FA480250000004B00000096000000C20100A6
S30908004FB4B0710B00BF
S31508004FBC2A0016000C000800040004000400000077
S31508004FCC000001CC01D8001401F0003C002801E4D3
S31508004FDC01A0006C007801B40050019C01880044C3
S31508004FEC0800000008004FFF080050000E061AE4DF
S30C08004FFC010AFFFF1500B2D0
S315080050048988888872B601480047000091530008C9
S315080050145E4800475E4800475E4800475E480047CA
S315080050245E4800475E4800475E4800475E480047BA
S315080050345E4800475E4800475E4800475E480047AA
S315080050445E4800475E4800475E4800475E4800479A
S315080050545E4800475E4800475E4800475E4800478A
S315080050645E4800475E4800475E4800475E4800477A
S315080050745E4800475E4800475E4800475E4800476A
S315080050845E4800475E4800475E4800475E4800475A
S315080050945E4800475E4800475E4800475E4800474A
S315080050A45E4800475E4800475E4800475E4800473A
S315080050B45E4800475E4800475E4800475E4800472A
S315080050C45E4800475E4800475E4800475E4800471A
S315080050D45E4800475E4800475E4800475E4800470A
S315080050E45E4800475E4800475E4800475E480047FA
S315080050F45E4800475E4800475E4800475E480047EA
S315080051045E4800475E4800475E4800475E480047D9
S315080051145E4800475E4800475E4800475E480047C9
S315080051245E4800475E4800475E4800475E480047B9
S315080051345E4800475E4800475E4800475E480047A9
S315080051445E4800475E480047154800475D480047E3
S315080051545D4800475D4800475D4800475D4800478D
S315080051645D4800475D4800475D4800475D4800477D
S315080051745D4800475D4800475D4800475D4800476D
S315080051845D4800475D4800475D480047E9820508D1
S31508005194EB820508F3820508FB82050803830508E4
S315080051A4054602080B83050835BD0508D5DC010844
S315080051B439BD05083DBD050841BD050845BD0508B9
S315080051C449BD05084DBD050851BD050855BD050869
S315080051D459BD05085DBD050861BD050865BD050819
S315080051E469BD05086DBD050871BD050875BD0508C9
S315080051F479BD05087DBD050881BD050885BD050879
S3150800520489BD05088DBD050891BD050895BD050828
S3150800521499BD05089DBD0508A1BD0508A5BD0508D8
S31508005224A9BD0508ADBD0508B1BD0508B5BD050888
S31508005234B9BD0508BDBD0508C1BD0508C5BD050838
S31508005244C9BD05080D830508CDBD0508D1BD0508EA
S31508005254D5BD0508D9BD0508DDBD0508E1BD0508A8
S31508005264E5BD0508E9BD0508EDBD0508F1BD050858
S31508005274F5BD0508F9BD0508FDBD050801BE050807
S3150800528405BE05081983050809BE05080DBE0508E7
S3150800529411BE050815BE050819BE05081DBE050874
S315080052A421BE050825BE050829BE05082DBE050824
S315080052B431BE050835BE050839BE05083DBE0508D4
S315080052C441BE050845BE050849BE05084DBE050884
S315080052D451BE050855BE050859BE05085DBE050834
S315080052E461BE050865BE050869BE05086DBE0508E4
S315080052F471BE050875BE050879BE05087DBE050894
S3150800530481BE050810B5074979441831064C7C4412
S31508005314163404E00A68081D114488470146A14268
S31508005324F8D110BD0C4805004448050030B40025E2
S3150800533413E050F8042BD30744BFA9F101039A18C4
S31508005344091F042942F8045BFAD213468C0744BFA2
S3150800535415809B1CC90748BF1D7050F8041B0029FB
S31508005364E7D130BC704700004EF68851CEF20001F2
S31508005374086840F470000860BFF34F8FBFF36F8F5F
S315080053844FF00070E1EE100A7047000056F078FD01
S31508005394002801D0FFF7B6FFAFF300800020AFF373
S315080053A4008045F030F800F00BF8000080B5AFF344
S315080053B40080024A11001820ABBEFBE72600020053
S315080053C456F0E2B810B504002000C0B2002801283F
S315080053D40BD82200D2B2DFF8C419012005F00CF963
S315080053E4DFF8BC090470012000E0002010BD2DE997
S315080053F4F84384B004000D0016001F000020039033
S315080054040020ADF808002800C0B250FA84F00A2833
S3150800541401DB00203BE00020388014F10C081DE075
S31508005424039880694078012816D10020ADF80A004F
S315080054340020019002A800900DF10A03320092B2EE
S3150800544400214046C0B259F8200005F050F93988C1
S31508005454BDF808004118398018F101084046C0B261
S315080054642900C9B251FA84F10C3188420EDADFF800
S315080054743499DFF8342903A94046C0B259F8200004
S3150800548405F0CEFA0028CBD1002000E0012005B0B3
S31508005494BDE8F0832DE9FF4705000E0090469946BE
S315080054A4002003900020ADF808003000C0B250FA7E
S315080054B485F00A2801DB002055E00020C9F8000021
S315080054C415F10C070C9C35E0D9F80000BDF8081056
S315080054D410FA81F0C9F800002BE003988069407837
S315080054E4012826D10020ADF80A000020019002A860
S315080054F400900DF10A03424692B200213800C0B268
S315080055045AF8200005F0F3F8BDF808000004DBD5C6
S315080055142000C0B20128D7D1BDF80800C043401CFA
S31508005524ADF80800D9F80010BDF80800091AC9F83A
S3150800553400107F1C3800C0B23100C9B251FA85F197
S315080055440C3188420EDADFF85CA8DFF85C2803A978
S315080055543800C0B25AF8200005F062FA0028BCD117
S31508005564002000E0012004B0BDE8F087F8B584B057
S3150800557404000D00002003900020ADF80800002068
S31508005584288015261CE0039880694078012816D1DE
S315080055940020ADF80A000020019002A800900DF141
S315080055A40A03220092B200213000C0B257F8200044
S315080055B405F09DF82988BDF8080041182980761C4D
S315080055C43000C0B24B280EDADFF8D877DFF8D827D0
S315080055D403A93000C0B257F8200005F021FA0028C4
S315080055E4D1D1002000E0012005B0F0BDF0B585B0AA
S315080055F404000D0000200490002003900020286079
S3150800560415261AE0049880694078012814D10020E8
S31508005614ADF808000020019003A8009002AB220010
S3150800562492B200213000C0B257F8200005F05FF8A6
S315080056342968039841182960761C3000C0B24B28A3
S315080056440EDADFF86077DFF8602704A93000C0B205
S3150800565457F8200005F0E4F90028D3D1002000E02B
S31508005664012005B0F0BDF8B584B004000D00002093
S3150800567403900020ADF80A00002028804B2620E07D
S3150800568403988069407801281AD10020ADF80800EB
S31508005694002001900DF10A00009002AB220092B29C
S315080056A400213000C0B257F8200005F020F8BDF8F4
S315080056B40800002804D02988BDF80A004118298062
S315080056C4761C3000C0B24D280EDADFF8D876DFF83B
S315080056D4D82603A93000C0B257F8200005F0A0F96F
S315080056E40028CDD1002000E0012005B0F0BDFEB5AC
S315080056F404000D001600270017E001200190380069
S31508005704C0B206EBC000406800903800C0B206EB91
S31508005714C000831C3800C0B236F830200021DFF8F8
S315080057248406806804F0E3FF7F1C3800C0B22900B1
S31508005734C9B251FA84F18842DFDB0120FEBD0100BB
S3150800574489B2090401D5002000E080B27047002818
S3150800575401D50020FFE77047010089B2090403D583
S31508005764C043401C80B200E080B27047010403D4F1
S31508005774C043401C80B200E080B2704738B598B088
S315080057840020179000200A9000200020059005A804
S3150800579405F0B2FB059800282AD0DFF8100605990B
S315080057A4059AB2FBF0F200FB1211DFF804269142C7
S315080057B407D20599059AB2FBF0F200FB12100A28E3
S315080057C416D2059ADFF8EC15012004F015FF0598A2
S315080057D4DFF8E415086030210022DFF8E0452000F0
S315080057E405F018FDDFF8D8250C210020FFF77FFF08
S315080057F40020ADF822000220ADF82000DFF8A44509
S31508005804002001900DF12200009008AB5C220121D2
S31508005814206B04F06CFF012001900DF1220000902A
S3150800582408AB40F24B120021A06804F060FF002088
S31508005834ADF824000020ADF81E000020ADF80800DD
S315080058440020ADF81C0009AB40F23F1209210020E4
S31508005854FFF7CDFD0DF11E0340F241120921002088
S31508005864FFF7C5FD02A94FF48170FFF7FCFEBDF8EA
S315080058742410BDF808004118BDF81E00091AADF831
S315080058841C100020ADF81A000DF11A0340F2291273
S3150800589409210020FFF7ABFD0020ADF8180006AB80
S315080058A440F22B1209210020FFF7A1FD0020002059
S315080058B4ADF810000020ADF80E00DFF8EC2417A9A7
S315080058C4206B05F0ADF8002800F06582179B0AAA3C
S315080058D42021012005F095FA002800F05C820A9838
S315080058E440680578179B0AAA2321012005F089FA3E
S315080058F4002800F050820A98406801782800C0B24F
S31508005904012803D10800C0B2002807D12800C0B274
S31508005914022813D10800C0B200280FD004AB40F205
S315080059242F1203210020FFF762FD0DF10E0340F24A
S315080059342D1203210020FFF75AFD20E02800C0B2EB
S31508005944012803D10800C0B2002809D02800C0B233
S31508005954022802D1C9B2002902D0EDB2002D0ED117
S3150800596404AB40F22F1201210020FFF740FD0DF190
S315080059740E0340F22D1201210020FFF738FD002006
S31508005984ADF80C000020ADF8120003A94FF4867098
S31508005994FFF7ECFDBDF80C10BDF808004118ADF88A
S315080059A412100220ADF80A000120019007A8009001
S315080059B40DF10A034FF4A3720021A06804F097FEC0
S315080059C40120019002A800900DF10A0340F25B122F
S315080059D40021A06804F08BFE012001900DF11A0045
S315080059E400900DF10A0340F247120021A06804F062
S315080059F47EFE012001900DF1120000900DF10A03BC
S31508005A044FF4A4720021A06804F071FE01200190ED
S31508005A1406A800900DF10A034FF495720021A068B8
S31508005A2404F065FE0120019004A800900DF10A0314
S31508005A344FF496720021A06804F059FE01200190E3
S31508005A440DF10E0000900DF10A034FF49772002130
S31508005A54A06804F04CFE4FF461600599059AB2FB00
S31508005A64F0F200FB1210A0F6D4500A2805D2D24848
S31508005A7401680598091A0B2904D2CF48006800283A
S31508005A8440F089810598CC49086000200BA830218C
S31508005A9405F000FCC94DBDF810002988401A80B2EB
S31508005AA4FFF74DFEADF82C00BDF810002880BDF8B0
S31508005AB40E006988401A80B2FFF741FEADF82E0041
S31508005AC4BDF80E006880BDF80C002989401A80B21A
S31508005AD4FFF735FEADF83400BDF80C002881BDF893
S31508005AE40800E989401A80B2FFF729FEADF83A00A2
S31508005AF4BDF80800E881BDF81200A98A401A80B2E8
S31508005B04FFF71DFEADF84000BDF81200A882BDF8E7
S31508005B141A00A98B401A80B2FFF711FEADF84800A7
S31508005B24BDF81A00A883BDF81C00698C401A80B217
S31508005B34FFF705FEADF84E00BDF81C006884BDF8F5
S31508005B441E00698D401A80B2FFF7F9FDADF85600BC
S31508005B54BDF81E006885BDF81800A98D401A80B2E4
S31508005B64FFF7EDFDADF85800BDF81800A885BDF897
S31508005B740C00002825D0BDF83400BDF82E10401AB4
S31508005B84FFF7E5FD698941186981BDF80810002900
S31508005B940DD1002805D1A989BDF834004118A98179
S31508005BA413E0A989BDF82E004118A9810DE0AC8936
S31508005BB4BDF83410081A80B2FFF7C1FD0419AC8188
S31508005BC403E0002068810020A881BDF808000028A9
S31508005BD43AD0BDF85600BDF85810401A80B2FFF7FF
S31508005BE4AEFDADF83C00BDF82C00BDF83C1088426B
S31508005BF412D2BDF82C00ADF83C00BDF84E10BDF825
S31508005C043C004118BDF82C00091AADF84E10698CF1
S31508005C14BDF84E0041186984BDF83A00BDF83C1039
S31508005C24401ABDF85810401A80B2FFF788FDADF83F
S31508005C343E00298ABDF83C0041182982698ABDF8C4
S31508005C443E004118698203E0002028820020688209
S31508005C54BDF84000002805D1A988BDF858004118A8
S31508005C64A98004E0698BBDF85800411869836889DE
S31508005C74298A0C18002C02D10020E8820BE0E88A55
S31508005C84201A80B2FFF75BFDADF84200200080B20F
S31508005C94FFF755FDE882A889698A0C18002C02D1F9
S31508005CA4002028830BE0288B201A80B2FFF747FDD3
S31508005CB4ADF84400200080B2FFF741FD2883A88B85
S31508005CC4002804D10020E8830020288438E0BDF8A1
S31508005CD4480000282ED0BDF82C00BDF83C10401A08
S31508005CE480B2FFF72CFDADF84A00BDF84800BDF8B0
S31508005CF44A10884205D3E98BBDF84A004118E9835E
S31508005D0408E0BDF84800ADF84A00E98BBDF84A003A
S31508005D144118E983BDF84800BDF84A10401A80B214
S31508005D24FFF70DFDADF84C00298CBDF84C00411861
S31508005D34298405E00020ADF84A000020ADF84C009F
S31508005D44688C002805D1E889002802D10020288516
S31508005D5411E0BDF84E00BDF84410401ABDF84C10C9
S31508005D64401A80B2FFF7EBFCADF85400298DBDF854
S31508005D74540041182985E98CBDF85420BDF844001F
S31508005D848218BDF84C0082185118E9840C4A0C2173
S31508005D940020FFF7ACFC19B030BD0000C8A1050807
S31508005DA44EF10120242D0020884600208051010050
S31508005DB477510100509D0508B4EE0120B8E801208A
S31508005DC4648205082DE9F84F9CB00020069006A8C1
S31508005DD405F092F80020ADF8580000200A2007F0D4
S31508005DE447F8002813D1162007F042F800280ED1E8
S31508005DF40D2007F03DF8002809D1132007F038F8DC
S31508005E04002804D1122007F033F8002815D0022000
S31508005E14ADF86E00DFF8B80D008800280DD1002013
S31508005E24019016A800900DF16E0340F2311200217C
S31508005E34DFF8A00D806804F05AFC0020ADF86C0069
S31508005E440020ADF856000220ADF854000A2007F0E9
S31508005E540FF800282AD1162007F00AF8002825D1B9
S31508005E640D2007F005F8002820D1132007F000F8C4
S31508005E7400281BD1122006F0FBFF002816D1DFF8F4
S31508005E84544D002001901BA8009015AB3422012123
S31508005E94206B04F02CFC002001900DF156000090B4
S31508005EA415AB33220121206B04F021FC0020ADF848
S31508005EB444000220ADF85C0008F0D6FFADF84400B3
S31508005EC4DFF8104D0120019011A8009017AB40F29D
S31508005ED47B120021A06804F00AFC0698002836D034
S31508005EE4DFF8F40C0699069AB2FBF0F200FB1211DD
S31508005EF4DFF8B82D914207D20699069AB2FBF0F25A
S31508005F0400FB12100A2822D2069ADFF8A41D0120E3
S31508005F1404F072FB0698DFF89C1D08603021002205
S31508005F24DFF89C5D280005F075F90020DFF8881D68
S31508005F3408800020DFF88C1D08800020DFF87C1D0F
S31508005F440880DFF8842D0C210020FFF7D0FB002001
S31508005F54ADF852000020ADF86A000220ADF83A0008
S31508005F64002001900DF1520000900DF13A035C22D5
S31508005F740121206B04F0BBFB012001900DF15200B6
S31508005F8400900DF13A0340F24B120021A06804F088
S31508005F94AEFB002001900DF16A0000900DF13A0362
S31508005FA41F220121206B04F0A2FB0020ADF850004B
S31508005FB40020ADF84E000020ADF830000020ADF802
S31508005FC42E000020ADF82C000020ADF82A00002091
S31508005FD4ADF80E0014AB40F2411209210020FFF778
S31508005FE406FA0DF14E0340F2451209210020FFF787
S31508005FF4FEF90CAB40F2431209210020FFF7F7F92A
S315080060040DF12E0340F2471209210020FFF7EFF99C
S315080060140DF10E014FF48170FFF725FBBDF8500012
S31508006024BDF80E100818BDF83010401A80B2FFF7F4
S3150800603486FBADF82C00BDF84E00BDF82E10401AAC
S3150800604480B2FFF77CFBADF82A000020ADF83800D3
S3150800605400200EAB40F23B1209210020FFF7C7F9D6
S31508006064BDF838700020ADF836000DF1360340F25D
S315080060744F1209210020FFF7BAF90020ADF82800CD
S315080060840AAB40F23F1209210020FFF7B0F90020BD
S31508006094ADF816000DF1160340F23D120921002051
S315080060A4FFF7A5F90020ADF868000020ADF86600F2
S315080060B4002001901AA800900DF166034FF490721F
S315080060C40021206B04F013FB0B2006F0D1FE0028F8
S315080060D403D10E2006F0CCFE03E0BDF82800ADF887
S315080060E438000020ADF864000020ADF82600002032
S315080060F4ADF824000220ADF85A000020019019A832
S3150800610400900DF15A0323220121206B04F0EFFAC3
S3150800611440F239150DF126032A0009210020FFF75C
S3150800612466F940F2371609AB320009210020FFF759
S315080061345EF90020ADF810000020ADF8220004A98D
S315080061444FF48770FFF712FABDF81010BDF80E0069
S315080061544118ADF822100020ADF80A00BDF8281041
S31508006164BDF836004118ADF80A100A2006F080FE7C
S31508006174002840F0B680162006F07AFE002840F083
S31508006184B0800D2006F074FE002840F0AA80132083
S3150800619406F06EFE002840F0A480122006F068FE81
S315080061A4002840F09E800220ADF862000020ADF879
S315080061B434000020ADF832000020ADF86000BDF8C8
S315080061C45600002878D00020019018A800900DF1F8
S315080061D4620340F21D120021206B04F088FA0DAB0D
S315080061E440F2511209210020FFF701F90DF132039B
S315080061F440F2531209210020FFF7F9F8DFF8CC0A18
S315080062040178012908D100210170DFF8C40A008841
S31508006214DFF8C01A087003E00020DFF8B81A08701F
S31508006224DFF898AADFF89C8ADFF88C9ABDF816106E
S31508006234B8F80000091AB9F800004118CF1BDFF8AE
S31508006244940A0078381880B2FFF779FAAAF8000099
S31508006254BAF80000DFF8781A0880DFF87C7A3888FC
S31508006264002804D1DFF8740A008800281BD0B9F87E
S3150800627400A0BDF834003988401A80B2FFF75FFAE7
S3150800628410EB0A0AA9F800A0B8F80090BDF8320085
S31508006294DFF8481A0988401A80B2FFF750FA10EB5B
S315080062A40909A8F80090BDF834003880BDF8320012
S315080062B4DFF8281A08800BE00120DFF8101A0870A6
S315080062C4DFF8F4090780BDF81600DFF8F819088026
S315080062D4BDF80A10DFF8E00900884118ADF80A107D
S315080062E4D1E00D2006F0C4FD002814D10A2006F0DA
S315080062F4BFFD00280FD1162006F0BAFD00280AD1E2
S31508006304132006F0B5FD002805D1122006F0B0FDCD
S31508006314002800F0B8800220ADF820000020ADF86F
S3150800632414000020ADF81200BDF85800012840F00A
S315080063349A800A2006F09CFD002809D1162006F04A
S3150800634497FD002804D1122006F092FD002819D0E2
S315080063540020019005A8009008AB4FF48C72002128
S31508006364D4F8340104F0C3F9002001900DF11200A9
S31508006374009008AB40F219120021D4F8340104F055
S31508006384B6F922E00D2006F073FD002804D1132087
S3150800639406F06EFD002818D00020019005A800908C
S315080063A408AB40F205220021D4F8340104F09FF921
S315080063B4002001900DF11200009008AB40F206226D
S315080063C40021D4F8340104F092F9DFF81089DFF8D3
S315080063D40899B9F80010B8F80000014389B20029F1
S315080063E407D1BDF81400022834DABDF812000228D1
S315080063F430DADFF8C4A8BAF800B0BDF81400B9F862
S315080064040010401A80B2FFF79AF910EB0B0BAAF8A2
S3150800641400B0DFF8B0B8BBF800000090BDF8120071
S31508006424B8F80010401A80B2FFF789F900994018A5
S31508006434ABF80000BDF81610BBF80000091ABAF844
S3150800644400004118CF1B380080B2FFF778F9DFF84F
S315080064546C180880BDF81400A9F80000BDF81200ED
S31508006464A8F8000007E0DFF850080780BDF8160012
S31508006474DFF850180880BDF80A10DFF83C080088D1
S315080064844118ADF80A100020ADF84C00DFF82C7856
S31508006494BDF82C10BDF82A00411838884118ADF803
S315080064A44C100220ADF842000020ADF84000002050
S315080064B4019010A800900DF1420333220121206BAC
S315080064C404F015F90120019010A800900DF142037B
S315080064D440F241120021A06804F009F90220ADF83F
S315080064E43E000020ADF83C0040F21F180020019041
S315080064F40FA800900DF13E0342460021206B04F0DC
S31508006504F6F8012001900FA800900DF13E0340F221
S3150800651479120021A06804F0EAF80220ADF8080010
S31508006524012001900BA8009002AB4FF4A37200213E
S31508006534A06804F0DCF80120019004A8009002ABDE
S3150800654432000021A06804F0D2F8012001900097D7
S3150800655402AB40F255120021A06804F0C8F80120E5
S31508006564019013A8009002AB40F233120021A068F0
S3150800657404F0BDF8012001900DF12A00009002AB49
S3150800658440F22F120021A06804F0B1F8012001900E
S315080065940DF10E00009002AB40F25B120021A068D8
S315080065A404F0A5F801200190DFF80C07009002AB6F
S315080065B440F245120021A06804F099F801200190E0
S315080065C40DF10A00009002AB40F247120021A068C0
S315080065D404F08DF8012001900DF13600009002AB0D
S315080065E42A000021A06804F082F8012001900AA874
S315080065F4009002AB40F227120021A06804F077F855
S31508006604012001900DF12200009002AB4FF4A47210
S315080066140021A06804F06BF8DFF8A8560120019061
S31508006624009502AB4FF495720021A06804F05FF858
S31508006634012001900DF12600009002AB4FF49672EA
S315080066440021A06804F053F80120019009A80090DD
S3150800665402AB4FF497720021A06804F048F80120B1
S31508006664ADF8080001200190DFF86405009002AB3C
S315080066744FF48E720021A06804F039F80220ADF8B0
S315080066840C000020ADF81E000020ADF85E000020C6
S31508006694ADF81C000020ADF84A000020ADF848000B
S315080066A40020ADF84600002695E0002001900DF183
S315080066B41E00009003AB40F2071200213000C0B25E
S315080066C404EB8000006B04F012F8002001900DF131
S315080066D45E00009003AB424600213000C0B204EBD2
S315080066E48000006B04F003F8002001900DF14A00C5
S315080066F4009003AB4FF4847200213000C0B204EB5F
S315080067048000006B03F0F3FF0020019012A80090AC
S3150800671403AB40F20B1200213000C0B204EB800038
S31508006724006B03F0E4FF002001900DF14600009091
S3150800673403AB4FF4857200213000C0B204EB80002D
S31508006744006B03F0D4FFBDF81E00282812DA0020D7
S31508006754ADF81E00012001900DF11E00009003AB58
S3150800676440F2111200213000C0B204EB8000006B25
S3150800677403F0BDFFBDF84600282811DA0020ADF85D
S315080067841C000120019007A8009003AB40F21312E5
S3150800679400213000C0B204EB8000006B03F0A7FFB1
S315080067A4BDF84A00282815DABDF84800282811DA61
S315080067B40020ADF81C000120019007A8009003AB47
S315080067C44FF4897200213000C0B204EB8000006BDC
S315080067D403F08DFF761C3000C0B20928FFF665AFBA
S315080067E44FF416700699069AB2FBF0F200FB1210E3
S315080067F4B0F507700A2806D20699DFF8B8040068C7
S31508006804091A0B2905D2DFF8AC040068002840F001
S31508006814DC8100200698DFF89C140860DFF8C06461
S31508006824DFF89C84BDF82600B8F80010401A80B238
S31508006834FEF785FF3080BDF82600A8F80000BDF8ED
S315080068442400B8F80210401A80B2FEF778FF708068
S31508006854BDF82400A8F80200BDF81000B8F808101E
S31508006864401A80B2FEF76BFF3081BDF81000A8F815
S315080068740800BDF80E00B8F80E10401A80B2FEF7EC
S315080068845EFFF081BDF80E00A8F80E00BDF82200E0
S31508006894B8F81410401A80B2FEF751FFB082BDF85A
S315080068A42200A8F814000B2006F0E2FA002804D106
S315080068B40E2006F0DDFA00280DD0BDF80A00B8F857
S315080068C41C10401A80B2FEF73AFFB083BDF80A00DE
S315080068D4A8F81C000CE0BDF80A00B8F81C10401A09
S315080068E480B2FEF72CFFB083BDF80A00A8F81C0096
S315080068F4BDF82C00BDF82A10081839880818B8F805
S315080069042210401A80B2FEF71AFF7084B8F82210D3
S31508006914708C4118A8F82210BDF83000BDF82E1066
S315080069240818B8F82A10401A80B2FEF708FF7085CE
S31508006934BDF83010BDF82E004118A8F82A1028888A
S31508006944B8F82C10401A80B2FEF7F9FEB0852888EC
S31508006954A8F82C00BDF8100000283BD030897188AF
S31508006964401AFEF7F4FEB8F80A104118A8F80A10F7
S3150800697400281CD1B08D002806D1B8F80C1030892F
S315080069844118A8F80C102BE0B08DB8F80810884206
S3150800699408D2B8F80C1030894118B08D091AA8F82D
S315080069A40C101DE0B8F80C00A8F80C0018E0B08D1F
S315080069B4002806D1B8F80C1070884118A8F80C10ED
S315080069C40EE0B8F80C1070884118B08D091AA8F8AA
S315080069D40C1005E00020A8F80A000020A8F80C000E
S315080069E4BDF80E0000282ED0708DB18D401A80B2E5
S315080069F4FEF7A5FE30823088318A88420DD2308867
S31508006A043082718C308A41183088091A7184B8F832
S31508006A142210708C4118A8F82210F089318A401A7D
S31508006A24B18D401A80B2FEF78AFE7082B8F810104B
S31508006A34308A4118A8F81010B8F81210708A41184C
S31508006A44A8F8121005E00020A8F810000020A8F8FD
S31508006A541200B8F80A00B8F810100C18002C03D164
S31508006A640020A8F816000CE0B8F81600201A80B220
S31508006A74FEF765FEF082200080B2FEF760FEA8F8F5
S31508006A841600B8F80C00B8F812100C18002C03D12C
S31508006A940020A8F818000CE0B8F81800201A80B2EC
S31508006AA4FEF74DFE3083200080B2FEF748FEA8F8B4
S31508006AB41800B08AF18A401A318B401A80B2FEF760
S31508006AC43EFE7083B08D718B401A80B2FEF737FE96
S31508006AD4B080B8F80410B0884118A8F80410B8F8BB
S31508006AE41A10708B4118A8F81A10B8F81C00002858
S31508006AF406D10020A8F81E000020A8F8200034E0DB
S31508006B04B08B002802D1308800282AD03088318AF0
S31508006B14401A80B2FEF713FEF083B08BF18B8842DD
S31508006B2405D2B08B002809D1F08B002806D0B8F816
S31508006B341E10F08B4118A8F81E1007E0B08BF083DE
S31508006B44B8F81E10F08B4118A8F81E10B18BF08BFC
S31508006B54091A3184B8F82010308C4118A8F8201086
S31508006B6403E00020F08300203084B8F822000028CF
S31508006B7407D1B8F80E00002803D10020A8F8280089
S31508006B840EE0708C318B401A318C401A80B2FEF7B5
S31508006B94D6FD3085B8F82810308D4118A8F8281085
S31508006BA4B8F82610328D308B8218308C821851181A
S31508006BB4A8F82610B8F82600FEF7C1FDA8F826009E
S31508006BC4414A0C210020FEF792FD1DB0BDE8F08F66
S31508006BD4AEF00120242D00208051010000B585B0B7
S31508006BE400210391002104910021ADF80810DFF873
S31508006BF4342B04A900F0FF0050F4D05003F010FF22
S31508006C04002801D100204FE0049B03AA0421012097
S31508006C1404F0F7F8002801D1002045E003984068FD
S31508006C24007803994968497850EA0120ADF80800C4
S31508006C3402F081FEADF808000220ADF80A00012032
S31508006C44019002A800900DF10A0340F225120021D2
S31508006C54DFF8D40A806803F04AFDBDF80800012865
S31508006C641FD0BDF8080003281BD0BDF80800042867
S31508006C7417D0BDF80800092813D0BDF808000A285B
S31508006C840FD0BDF8080016280BD0BDF808000D284B
S31508006C9407D0BDF808000F2803D0BDF8080010284F
S31508006CA401D1012000E0002005B000BD77510100A4
S31508006CB4509D0508B8EE0120AAF00120A6F001208F
S31508006CC4B8E80120ACF00120648205084FF10120E0
S31508006CD4A8F0012050F10120A2F00120A4F001201F
S31508006CE4E8E801202DE9F04F8BB000200A90002037
S31508006CF409900020ADF80C00002002905FF000090E
S31508006D0400208DF80300002700208DF802000020DB
S31508006D148DF801005FF0000A0020ADF810005FF05E
S31508006D24000B0024002500260B2006F0A1F80028F5
S31508006D3404D10E2006F09CF8002800D00126002075
S31508006D448DF800002CE0BDF80C0080B2800B80B2F0
S31508006D54002820D13800C0B201281CD03800C0B29F
S31508006D64032818D002988004800C029013E0BDF81A
S31508006D740C0080B2800B80B20328E4D13800C0B27C
S31508006D84012808D002988004800C0290029850F4D6
S31508006D944040029003279DF80000401C8DF800002F
S31508006DA49DF80000092880F22A8303AB4FF4807209
S31508006DB401219DF80000FEF71AFB0028EBD0DFF846
S31508006DC47089D8F80C006528C0F08E80BDF80C00D0
S31508006DD4C0F38110C0B201280BD102994FF63F7057
S31508006DE401400291029850F0400002905FF00109B8
S31508006DF47AE0BDF80C00C0F38110C0B203280FD1A5
S31508006E044846C0B201286FD002994FF63F70014038
S31508006E140291029850F0C00002905FF0030963E003
S31508006E24BDF80C00C0F38110C0B200283ED1002082
S31508006E34ADF804000020ADF8060001AB40F20312D9
S31508006E4409210020FEF7D3FA0DF106014FF48170EB
S31508006E54FEF78CFB4846C0B201280AD04846C0B2A1
S31508006E64032806D002994FF63F70014002915FF05D
S31508006E740009B8F80200000403D4B8F8020015287B
S31508006E8407DABDF8040000040FD4BDF80400652829
S31508006E940BDB02994FF63F7001400291029850F0BD
S31508006EA4400002905FF001091EE01DE0BDF80C00E9
S31508006EB4C0F38110C0B2022816D14846C0B20128D0
S31508006EC412D04846C0B203280ED04846C0B200289D
S31508006ED40AD002994FF63F7001400291029850F089
S31508006EE4800002905FF00209BDF80C00001210F051
S31508006EF4010000280CD002994FF6FF600140029168
S31508006F04029850F48070029001208DF8020012E075
S31508006F14BDF80C00001210F0010000280BD19DF8F2
S31508006F240200012807D002994FF6FF60014002913A
S31508006F3400208DF80200BDF80C00401210F0010084
S31508006F4400280CD002994FF6FF500140029102988E
S31508006F5450F40070029001208DF8010012E0BDF88B
S31508006F640C00401210F0010000280BD19DF8010016
S31508006F74012807D002994FF6FF50014002910020DC
S31508006F848DF80100BDF80C00801210F001000028ED
S31508006F940BD002994FF6FF3001400291029850F443
S31508006FA4806002905FF0010A11E0BDF80C008012BF
S31508006FB410F0010000280AD15046C0B2012806D0B4
S31508006FC402994FF6FF30014002915FF0000ADFF89C
S31508006FD45C070078012840F0AE8004AB4FF4907249
S31508006FE401210020FEF703FABDF80C00C0F3810066
S31508006FF4C0B203281BD1B8F83400000417D4B8F873
S315080070043400652813DBB8F8360000040FD4B8F842
S31508007014360065280BDB02994FF6F370014002919E
S31508007024029850F00C0002905FF0030BC8E0BDF81C
S315080070340C00C0F38100C0B2012830D1B8F834007E
S3150800704400042CD4B8F83400652828DB5846C0B2A6
S31508007054012813D05846C0B202280FD05846C0B2E9
S3150800706403280BD002994FF6F37001400291029857
S3150800707450F0040002905FF0010BA1E05846C0B23C
S31508007084022840F09D8002994FF6F3700140029160
S31508007094029850F00C0002905FF0030B90E0BDF8E4
S315080070A40C00C0F38100C0B202282BD1B8F8360010
S315080070B4000427D4B8F83600652823DB5846C0B23E
S315080070C401280FD05846C0B203280BD002994FF6B0
S315080070D4F37001400291029850F0080002905FF0A4
S315080070E4020B6DE05846C0B2012869D102994FF6E1
S315080070F4F37001400291029850F00C0002905FF080
S31508007104030B5DE0BDF80C00C0F38100C0B2002893
S3150800711456D15846C0B2012852D05846C0B20228A1
S315080071244ED05846C0B203284AD002994FF6F37097
S315080071340140029144E004AB40F2151201210020FB
S31508007144FEF755F9BDF8100010F0C00F29D0B8F8AD
S315080071543400000411D5B8F834004FF69C718842FF
S315080071642EDA02994FF6F37001400291029850F014
S31508007174040002905FF0010B22E05846C0B20128D1
S315080071841ED0B8F8340065281ADB02994FF6F37056
S3150800719401400291029850F0080002905FF0020B39
S315080071A40EE05846C0B201280AD05846C0B2022892
S315080071B406D002994FF6F370014002915FF0000B76
S315080071C40020DFF8602509A9DFF86C0A006B03F0D4
S315080071D427FC002800F08380099B0AAA4FF49071C3
S315080071E4002003F00EFE00287AD00A984068017839
S315080071F4C80711D5B8F81A004FF69D72904203DBFA
S31508007204B8F81A0000041FD4B8F81A00642803DA78
S31508007214B8F81A00000417D53000C0B2002860D0A8
S31508007224C8055ED5B8F866004FF69D71884203DB3B
S31508007234B8F86600000407D4B8F86600642850DA7B
S31508007244B8F8660000044CD402994FF6FC70014065
S315080072540291029850F00300029003249DF800005E
S31508007264002816D1B8F80200000440F1A380B8F843
S3150800727402004FF6ED71884280F29C80029850F025
S31508007284100002900298BDF80C1011F4C05108437E
S315080072940290BDF80C00401310F00100002800F01D
S315080072A49B8002994DF6FF7001400291029850F4B2
S315080072B40050029001208DF80300BDF80C0080B23E
S315080072C4800B80B201287FF452AD02988004800CAA
S315080072D40290029850F48040029001275BE51DE273
S315080072E41CE2B8F81A00000407D43000C0B200281B
S315080072F441D0B8F8660000043DD54FF69D71B8F83C
S315080073041A00884207DB3000C0B200280FD0B8F84C
S31508007314660088420BDA02994FF6FC700140029126
S31508007324029850F0020002900224022596E74FF6CE
S315080073349C71B8F81A00884207DB3000C0B20028EE
S3150800734413D0B8F8660088420FDA2000C0B20228C3
S3150800735484D002994FF6FC7001400291029850F0CD
S31508007364010002900124012578E702992800C0B299
S315080073740143029172E72000C0B202283FF46EAFBF
S31508007384B8F81A00642809DA3000C0B200283FF4B5
S3150800739465AFB8F866006428FFF660AF02994FF641
S315080073A4FC7001400291029850F0010002900124F9
S315080073B4012553E7B8F80200000408D4B8F8020017
S315080073C4142804DB029850F0200002905AE7029829
S315080073D430F03000029055E7BDF80C00401310F069
S315080073E4010000287FF469AF9DF8030001283FF4E3
S315080073F464AF02994DF6FF70014002915DE7DFF82C
S315080074042C030078012840F078810220ADF81C008E
S315080074140020ADF80E00002001900DF10E0000903A
S3150800742407AB40F27D120021DFF80C08806803F0F0
S315080074345EF9BDF80E00642803DB029850F4803028
S315080074440290BB4C608B4FF69D71884202DA608BC2
S31508007454000419D4608B642802DB608B000413D5FE
S31508007464BDF80E00642803DBBDF80E0000040BD536
S315080074743000C0B2002836D0B4F86600642832DB7F
S31508007484B4F8660000042ED4002005900020089065
S315080074940120009005AB4FF4867209210020FDF700
S315080074A4F9FF0120009008AB40F20D1209210020D3
S315080074B4FDF7F0FF059800280BD50598C043401C36
S315080074C40590059832280ED3029850F4802002902D
S315080074D409E00598322802D20898322803D302987C
S315080074E450F400300290029810F00F0F04D002985E
S315080074F410F00F00032811D10298800B10F0030036
S3150800750401280BD00298000C10F00100002805D1C0
S315080075140298C0F38110C0B2012852D10020069007
S315080075240120009006AB40F2151209210020FDF750
S31508007534B1FF0698002807D40698142804D302989D
S3150800754450F4800002900AE00698002807D50698A9
S3150800755410F1130F03D2029850F4001002906088B9
S31508007564000402D46088142807DB6088000414D554
S3150800757460884FF6ED7188420FDBBDF80C00C0F346
S31508007584810080B2002804D0BDF80C0010F0030F67
S3150800759403D1029850F4001002900298C0F38110A7
S315080075A4C0B201280DD10298C00CC0B2022804D07A
S315080075B40298400CC0B2022803D1029850F4001075
S315080075C402906088000408D560884FF6ED718842F9
